{
  "_format": "hh-sol-artifact-1",
  "contractName": "DiceBet",
  "sourceName": "contracts/DiceBet.sol",
  "abi": [
    {
      "inputs": [],
      "stateMutability": "nonpayable",
      "type": "constructor"
    },
    {
      "anonymous": false,
      "inputs": [
        {
          "indexed": true,
          "internalType": "uint256",
          "name": "betId",
          "type": "uint256"
        },
        {
          "indexed": true,
          "internalType": "address",
          "name": "player",
          "type": "address"
        },
        {
          "indexed": false,
          "internalType": "uint8",
          "name": "choice",
          "type": "uint8"
        },
        {
          "indexed": false,
          "internalType": "uint256",
          "name": "amount",
          "type": "uint256"
        }
      ],
      "name": "BetPlaced",
      "type": "event"
    },
    {
      "anonymous": false,
      "inputs": [
        {
          "indexed": true,
          "internalType": "uint256",
          "name": "betId",
          "type": "uint256"
        },
        {
          "indexed": true,
          "internalType": "address",
          "name": "player",
          "type": "address"
        },
        {
          "indexed": false,
          "internalType": "uint8",
          "name": "choice",
          "type": "uint8"
        },
        {
          "indexed": false,
          "internalType": "uint8",
          "name": "diceResult",
          "type": "uint8"
        },
        {
          "indexed": false,
          "internalType": "bool",
          "name": "isWinner",
          "type": "bool"
        }
      ],
      "name": "DiceRolled",
      "type": "event"
    },
    {
      "anonymous": false,
      "inputs": [
        {
          "indexed": true,
          "internalType": "address",
          "name": "previousOwner",
          "type": "address"
        },
        {
          "indexed": true,
          "internalType": "address",
          "name": "newOwner",
          "type": "address"
        }
      ],
      "name": "OwnershipTransferred",
      "type": "event"
    },
    {
      "anonymous": false,
      "inputs": [
        {
          "indexed": true,
          "internalType": "uint256",
          "name": "betId",
          "type": "uint256"
        },
        {
          "indexed": true,
          "internalType": "address",
          "name": "player",
          "type": "address"
        },
        {
          "indexed": false,
          "internalType": "uint256",
          "name": "amount",
          "type": "uint256"
        },
        {
          "indexed": false,
          "internalType": "bool",
          "name": "isWinner",
          "type": "bool"
        }
      ],
      "name": "PayoutSent",
      "type": "event"
    },
    {
      "anonymous": false,
      "inputs": [
        {
          "indexed": false,
          "internalType": "uint256",
          "name": "amount",
          "type": "uint256"
        }
      ],
      "name": "PlatformFeeCollected",
      "type": "event"
    },
    {
      "inputs": [],
      "name": "MAX_BET_AMOUNT",
      "outputs": [
        {
          "internalType": "uint256",
          "name": "",
          "type": "uint256"
        }
      ],
      "stateMutability": "view",
      "type": "function"
    },
    {
      "inputs": [],
      "name": "MIN_BET_AMOUNT",
      "outputs": [
        {
          "internalType": "uint256",
          "name": "",
          "type": "uint256"
        }
      ],
      "stateMutability": "view",
      "type": "function"
    },
    {
      "inputs": [],
      "name": "PLATFORM_FEE_PERCENT",
      "outputs": [
        {
          "internalType": "uint256",
          "name": "",
          "type": "uint256"
        }
      ],
      "stateMutability": "view",
      "type": "function"
    },
    {
      "inputs": [],
      "name": "betCounter",
      "outputs": [
        {
          "internalType": "uint256",
          "name": "",
          "type": "uint256"
        }
      ],
      "stateMutability": "view",
      "type": "function"
    },
    {
      "inputs": [
        {
          "internalType": "uint256",
          "name": "",
          "type": "uint256"
        }
      ],
      "name": "bets",
      "outputs": [
        {
          "internalType": "address",
          "name": "player",
          "type": "address"
        },
        {
          "internalType": "uint8",
          "name": "choice",
          "type": "uint8"
        },
        {
          "internalType": "uint256",
          "name": "amount",
          "type": "uint256"
        },
        {
          "internalType": "uint256",
          "name": "timestamp",
          "type": "uint256"
        },
        {
          "internalType": "bool",
          "name": "isResolved",
          "type": "bool"
        },
        {
          "internalType": "bool",
          "name": "isWinner",
          "type": "bool"
        },
        {
          "internalType": "uint8",
          "name": "diceResult",
          "type": "uint8"
        }
      ],
      "stateMutability": "view",
      "type": "function"
    },
    {
      "inputs": [
        {
          "internalType": "uint256",
          "name": "betId",
          "type": "uint256"
        }
      ],
      "name": "emergencyResolveBet",
      "outputs": [],
      "stateMutability": "nonpayable",
      "type": "function"
    },
    {
      "inputs": [
        {
          "internalType": "uint256",
          "name": "betId",
          "type": "uint256"
        }
      ],
      "name": "getBet",
      "outputs": [
        {
          "components": [
            {
              "internalType": "address",
              "name": "player",
              "type": "address"
            },
            {
              "internalType": "uint8",
              "name": "choice",
              "type": "uint8"
            },
            {
              "internalType": "uint256",
              "name": "amount",
              "type": "uint256"
            },
            {
              "internalType": "uint256",
              "name": "timestamp",
              "type": "uint256"
            },
            {
              "internalType": "bool",
              "name": "isResolved",
              "type": "bool"
            },
            {
              "internalType": "bool",
              "name": "isWinner",
              "type": "bool"
            },
            {
              "internalType": "uint8",
              "name": "diceResult",
              "type": "uint8"
            }
          ],
          "internalType": "struct DiceBet.Bet",
          "name": "",
          "type": "tuple"
        }
      ],
      "stateMutability": "view",
      "type": "function"
    },
    {
      "inputs": [],
      "name": "getContractBalance",
      "outputs": [
        {
          "internalType": "uint256",
          "name": "",
          "type": "uint256"
        }
      ],
      "stateMutability": "view",
      "type": "function"
    },
    {
      "inputs": [],
      "name": "getMaxBetAmount",
      "outputs": [
        {
          "internalType": "uint256",
          "name": "",
          "type": "uint256"
        }
      ],
      "stateMutability": "view",
      "type": "function"
    },
    {
      "inputs": [],
      "name": "getMinBetAmount",
      "outputs": [
        {
          "internalType": "uint256",
          "name": "",
          "type": "uint256"
        }
      ],
      "stateMutability": "view",
      "type": "function"
    },
    {
      "inputs": [
        {
          "internalType": "address",
          "name": "player",
          "type": "address"
        }
      ],
      "name": "getPendingBet",
      "outputs": [
        {
          "internalType": "uint256",
          "name": "",
          "type": "uint256"
        }
      ],
      "stateMutability": "view",
      "type": "function"
    },
    {
      "inputs": [],
      "name": "owner",
      "outputs": [
        {
          "internalType": "address",
          "name": "",
          "type": "address"
        }
      ],
      "stateMutability": "view",
      "type": "function"
    },
    {
      "inputs": [
        {
          "internalType": "address",
          "name": "",
          "type": "address"
        }
      ],
      "name": "pendingBets",
      "outputs": [
        {
          "internalType": "uint256",
          "name": "",
          "type": "uint256"
        }
      ],
      "stateMutability": "view",
      "type": "function"
    },
    {
      "inputs": [
        {
          "internalType": "uint8",
          "name": "choice",
          "type": "uint8"
        }
      ],
      "name": "placeBet",
      "outputs": [],
      "stateMutability": "payable",
      "type": "function"
    },
    {
      "inputs": [],
      "name": "renounceOwnership",
      "outputs": [],
      "stateMutability": "nonpayable",
      "type": "function"
    },
    {
      "inputs": [
        {
          "internalType": "address",
          "name": "newOwner",
          "type": "address"
        }
      ],
      "name": "transferOwnership",
      "outputs": [],
      "stateMutability": "nonpayable",
      "type": "function"
    },
    {
      "inputs": [],
      "name": "withdrawPlatformFunds",
      "outputs": [],
      "stateMutability": "nonpayable",
      "type": "function"
    },
    {
      "stateMutability": "payable",
      "type": "receive"
    }
  ],
  "bytecode": "0x608060405234801561001057600080fd5b5061001a33610023565b60018055610073565b600080546001600160a01b038381166001600160a01b0319831681178455604051919092169283917f8be0079c531659141344cd1fd0a4f28419497f9722a3daafe3b4186f6b6457e09190a35050565b610ec5806100826000396000f3fe6080604052600436106101025760003560e01c80636f9fb98a1161009557806393526525116100645780639352652514610424578063a416f5ab14610444578063b13f52e01461045a578063b3043cf414610490578063f2fde38b146104a557600080fd5b80636f9fb98a146103ba578063715018a6146103cd57806382a5285d146103e25780638da5cb5b146103fc57600080fd5b806344b0b788116100d157806344b0b78814610342578063550ed1f01461036f578063560d52d41461038a5780636475e3d31461039f57600080fd5b8063061e494f1461010e57806322af00fa14610251578063309167f514610303578063430468441461032d57600080fd5b3661010957005b600080fd5b34801561011a57600080fd5b506101e0610129366004610da2565b6040805160e081018252600080825260208201819052918101829052606081018290526080810182905260a0810182905260c081019190915250600090815260026020818152604092839020835160e08101855281546001600160a01b038116825260ff600160a01b9091048116938201939093526001820154948101949094529182015460608401526003909101548082161515608084015261010081048216151560a08401526201000090041660c082015290565b6040516102489190600060e08201905060018060a01b03835116825260ff6020840151166020830152604083015160408301526060830151606083015260808301511515608083015260a0830151151560a083015260ff60c08401511660c083015292915050565b60405180910390f35b34801561025d57600080fd5b506102be61026c366004610da2565b600260208190526000918252604090912080546001820154928201546003909201546001600160a01b03821693600160a01b90920460ff90811693918181169161010082048116916201000090041687565b604080516001600160a01b03909816885260ff9687166020890152870194909452606086019290925215156080850152151560a08401521660c082015260e001610248565b34801561030f57600080fd5b5061031f670de0b6b3a764000081565b604051908152602001610248565b61034061033b366004610dbb565b6104c5565b005b34801561034e57600080fd5b5061031f61035d366004610de5565b60036020526000908152604090205481565b34801561037b57600080fd5b50670de0b6b3a764000061031f565b34801561039657600080fd5b5061031f600581565b3480156103ab57600080fd5b5061031f66038d7ea4c6800081565b3480156103c657600080fd5b504761031f565b3480156103d957600080fd5b50610340610772565b3480156103ee57600080fd5b5066038d7ea4c6800061031f565b34801561040857600080fd5b506000546040516001600160a01b039091168152602001610248565b34801561043057600080fd5b5061034061043f366004610da2565b610786565b34801561045057600080fd5b5061031f60045481565b34801561046657600080fd5b5061031f610475366004610de5565b6001600160a01b031660009081526003602052604090205490565b34801561049c57600080fd5b506103406107f5565b3480156104b157600080fd5b506103406104c0366004610de5565b610910565b6104cd610986565b66038d7ea4c6800034101561051e5760405162461bcd60e51b815260206004820152601260248201527142657420616d6f756e7420746f6f206c6f7760701b60448201526064015b60405180910390fd5b670de0b6b3a764000034111561056c5760405162461bcd60e51b8152602060048201526013602482015272084cae840c2dadeeadce840e8dede40d0d2ced606b1b6044820152606401610515565b60018160ff1610158015610584575060068160ff1611155b6105d05760405162461bcd60e51b815260206004820152601e60248201527f43686f696365206d757374206265206265747765656e203120616e64203600006044820152606401610515565b33600090815260036020526040902054156106265760405162461bcd60e51b8152602060048201526016602482015275141b185e595c881a185cc81c195b991a5b99c818995d60521b6044820152606401610515565b6004805490600061063683610e24565b90915550506004546040805160e0810182523380825260ff808616602080850191825234858701818152426060880190815260006080890181815260a08a0182815260c08b018381528d845260028089528d85209c518d549a518c16600160a01b026001600160a81b0319909b166001600160a01b039190911617999099178c55945160018c01559251968a019690965594516003988901805492519351909716620100000262ff0000199315156101000261ff00199215159290921661ffff19909316929092171791909116179093558382529390935291839020849055915183917f4f1eed5e863a822b0f9eb960dfdab2cc5a99beec4b191f2a7a9c7e28e5a155249161075491879160ff929092168252602082015260400190565b60405180910390a3610765816109df565b5061076f60018055565b50565b61077a610cf8565b6107846000610d52565b565b61078e610cf8565b6000818152600260205260409020600381015460ff16156107e85760405162461bcd60e51b815260206004820152601460248201527310995d08185b1c9958591e481c995cdbdb1d995960621b6044820152606401610515565b6107f1826109df565b5050565b6107fd610cf8565b47806108425760405162461bcd60e51b81526020600482015260146024820152734e6f2066756e647320746f20776974686472617760601b6044820152606401610515565b600080546040516001600160a01b039091169083908381818185875af1925050503d806000811461088f576040519150601f19603f3d011682016040523d82523d6000602084013e610894565b606091505b50509050806108d95760405162461bcd60e51b815260206004820152601160248201527015da5d1a191c985dd85b0819985a5b1959607a1b6044820152606401610515565b6040518281527f1e78db4c4ee9ca4946fb3ee60599d1e0258a8b22e183510241ff770ab6332baf9060200160405180910390a15050565b610918610cf8565b6001600160a01b03811661097d5760405162461bcd60e51b815260206004820152602660248201527f4f776e61626c653a206e6577206f776e657220697320746865207a65726f206160448201526564647265737360d01b6064820152608401610515565b61076f81610d52565b6002600154036109d85760405162461bcd60e51b815260206004820152601f60248201527f5265656e7472616e637947756172643a207265656e7472616e742063616c6c006044820152606401610515565b6002600155565b6000818152600260205260409020600381015460ff1615610a395760405162461bcd60e51b815260206004820152601460248201527310995d08185b1c9958591e481c995cdbdb1d995960621b6044820152606401610515565b80546040805142602080830191909152448284015241606090811b6bffffffffffffffffffffffff19908116828501526074840188905294901b90931660948201528151608881830301815260a890910190915280519101206000610a9f600683610e3d565b610aaa906001610e5f565b8354600380860180546201000060ff86811691820262ff000019600160a01b80890484168514610100810261ffff199097169690961760011791909116919091179094556001600160a01b03958616600090815260209586526040808220919091558a54815195810490921685529484019190915292820181905293945091169086907f0e3d4c918450e1891ec92a2a895e4f1562742c5a8ed6b6971f9d13588e0f15b89060600160405180910390a38015610ca757600084600101546002610b739190610e78565b905080471015610bc55760405162461bcd60e51b815260206004820152601d60248201527f496e73756666696369656e7420636f6e74726163742062616c616e63650000006044820152606401610515565b84546040516000916001600160a01b03169083908381818185875af1925050503d8060008114610c11576040519150601f19603f3d011682016040523d82523d6000602084013e610c16565b606091505b5050905080610c575760405162461bcd60e51b815260206004820152600d60248201526c14185e5bdd5d0819985a5b1959609a1b6044820152606401610515565b855460408051848152600160208201526001600160a01b039092169189917f3be17e2b44ad5849f62d1b9fa71e55bbd23793999c2c3f00cde51c4e1ac4c3c8910160405180910390a35050610cf1565b835460408051600080825260208201526001600160a01b039092169187917f3be17e2b44ad5849f62d1b9fa71e55bbd23793999c2c3f00cde51c4e1ac4c3c8910160405180910390a35b5050505050565b6000546001600160a01b031633146107845760405162461bcd60e51b815260206004820181905260248201527f4f776e61626c653a2063616c6c6572206973206e6f7420746865206f776e65726044820152606401610515565b600080546001600160a01b038381166001600160a01b0319831681178455604051919092169283917f8be0079c531659141344cd1fd0a4f28419497f9722a3daafe3b4186f6b6457e09190a35050565b600060208284031215610db457600080fd5b5035919050565b600060208284031215610dcd57600080fd5b813560ff81168114610dde57600080fd5b9392505050565b600060208284031215610df757600080fd5b81356001600160a01b0381168114610dde57600080fd5b634e487b7160e01b600052601160045260246000fd5b600060018201610e3657610e36610e0e565b5060010190565b600082610e5a57634e487b7160e01b600052601260045260246000fd5b500690565b80820180821115610e7257610e72610e0e565b92915050565b8082028115828204841417610e7257610e72610e0e56fea2646970667358221220bb7ee5e9de2de895e2ae4fcd8e8f974c7506348c0b78d8ba6ca7e9f3d04f5ce864736f6c63430008130033",
  "linkReferences": {},
  "deployedLinkReferences": {}
}