{
  "_format": "hh-sol-artifact-1",
  "contractName": "MonadReliefERC20",
  "sourceName": "contracts/MonadReliefERC20.sol",
  "abi": [
    {
      "inputs": [
        {
          "internalType": "address",
          "name": "_gov",
          "type": "address"
        },
        {
          "internalType": "address",
          "name": "_registry",
          "type": "address"
        },
        {
          "internalType": "address",
          "name": "_token",
          "type": "address"
        }
      ],
      "stateMutability": "nonpayable",
      "type": "constructor"
    },
    {
      "anonymous": false,
      "inputs": [
        {
          "indexed": true,
          "internalType": "bytes32",
          "name": "beneficiaryId",
          "type": "bytes32"
        },
        {
          "indexed": true,
          "internalType": "address",
          "name": "wallet",
          "type": "address"
        },
        {
          "indexed": false,
          "internalType": "uint256",
          "name": "amount",
          "type": "uint256"
        }
      ],
      "name": "Disbursement",
      "type": "event"
    },
    {
      "anonymous": false,
      "inputs": [
        {
          "indexed": true,
          "internalType": "address",
          "name": "donor",
          "type": "address"
        },
        {
          "indexed": false,
          "internalType": "uint256",
          "name": "amount",
          "type": "uint256"
        },
        {
          "indexed": true,
          "internalType": "bytes32",
          "name": "beneficiaryId",
          "type": "bytes32"
        }
      ],
      "name": "Donation",
      "type": "event"
    },
    {
      "inputs": [
        {
          "internalType": "bytes32",
          "name": "beneficiaryId",
          "type": "bytes32"
        },
        {
          "internalType": "uint256",
          "name": "amount",
          "type": "uint256"
        }
      ],
      "name": "donate",
      "outputs": [],
      "stateMutability": "nonpayable",
      "type": "function"
    },
    {
      "inputs": [
        {
          "internalType": "address",
          "name": "",
          "type": "address"
        }
      ],
      "name": "donorHasDonated",
      "outputs": [
        {
          "internalType": "bool",
          "name": "",
          "type": "bool"
        }
      ],
      "stateMutability": "view",
      "type": "function"
    },
    {
      "inputs": [],
      "name": "governance",
      "outputs": [
        {
          "internalType": "address",
          "name": "",
          "type": "address"
        }
      ],
      "stateMutability": "view",
      "type": "function"
    },
    {
      "inputs": [],
      "name": "registry",
      "outputs": [
        {
          "internalType": "contract IBeneficiaryRegistryErc20",
          "name": "",
          "type": "address"
        }
      ],
      "stateMutability": "view",
      "type": "function"
    },
    {
      "inputs": [],
      "name": "stablecoin",
      "outputs": [
        {
          "internalType": "contract IERC20",
          "name": "",
          "type": "address"
        }
      ],
      "stateMutability": "view",
      "type": "function"
    },
    {
      "inputs": [],
      "name": "totalDisbursed",
      "outputs": [
        {
          "internalType": "uint256",
          "name": "",
          "type": "uint256"
        }
      ],
      "stateMutability": "view",
      "type": "function"
    },
    {
      "inputs": [],
      "name": "totalDonationCount",
      "outputs": [
        {
          "internalType": "uint256",
          "name": "",
          "type": "uint256"
        }
      ],
      "stateMutability": "view",
      "type": "function"
    },
    {
      "inputs": [],
      "name": "totalDonations",
      "outputs": [
        {
          "internalType": "uint256",
          "name": "",
          "type": "uint256"
        }
      ],
      "stateMutability": "view",
      "type": "function"
    },
    {
      "inputs": [],
      "name": "uniqueDonorCount",
      "outputs": [
        {
          "internalType": "uint256",
          "name": "",
          "type": "uint256"
        }
      ],
      "stateMutability": "view",
      "type": "function"
    }
  ],
  "bytecode": "0x6080346100a057601f61074e38819003918201601f19168301916001600160401b038311848410176100a5578084926060946040528339810103126100a057610047816100bb565b906100606040610059602084016100bb565b92016100bb565b60018060a01b0380928160018060a01b03199516856001541617600155168360005416176000551690600254161760025560405161067e90816100d08239f35b600080fd5b634e487b7160e01b600052604160045260246000fd5b51906001600160a01b03821682036100a05756fe608060408181526004918236101561001657600080fd5b600092833560e01c9182630b024f8714610595575081635aa6e67514610560578163603090bc1461054157816376557a191461017d5781637b1039991461014a57816387aa86c9146100ff578163bf95c78d146100dd57508063de2ed893146100bf5763e9cbd8221461008857600080fd5b346100bb57816003193601126100bb5760209073ffffffffffffffffffffffffffffffffffffffff600254169051908152f35b5080fd5b50346100bb57816003193601126100bb576020906003549051908152f35b9050346100fb57826003193601126100fb5760209250549051908152f35b8280fd5b9050346100fb5760206003193601126100fb573573ffffffffffffffffffffffffffffffffffffffff81168091036100fb57818360ff92602095526007855220541690519015158152f35b5050346100bb57816003193601126100bb5773ffffffffffffffffffffffffffffffffffffffff60209254169051908152f35b919050346100fb57806003193601126100fb5781359060249081359081156105005773ffffffffffffffffffffffffffffffffffffffff9485875416938251947f48aefc32000000000000000000000000000000000000000000000000000000008652868387015260209586818481855afa9081156104f6578a916104d9575b5015610498578582918551928380927f095214580000000000000000000000000000000000000000000000000000000082528b888301525afa9081156103b4579088918a9161045a575b50169687156104195761025c85600354610625565b60035560055460018101809111610407578991879160055533835260078252858320805460ff8116156103be575b50506002541660648651809481937f23b872dd00000000000000000000000000000000000000000000000000000000835233898401528d888401528a60448401525af19081156103b4578991610387575b501561034757509081610312847f8489523a0949d54d08ae65a8576d31d3b14c72c328a833f30dbb9d02505a77c096959454610625565b90558481518381527f4653725aaef32330a11da5e47adc56343bba69a948d45aa8e3dbdd2c0b9bd6bb853392a351908152a380f35b600f9085606494519362461bcd60e51b85528401528201527f7472616e73666572206661696c656400000000000000000000000000000000006044820152fd5b6103a79150863d88116103ad575b61039f81836105b1565b810190610608565b386102db565b503d610395565b84513d8b823e3d90fd5b60019294507fffffffffffffffffffffffffffffffffffffffffffffffffffffffffffffff0091935016179055600654600181018091116104075789918791600655388061028a565b828a601186634e487b7160e01b835252fd5b5060099085606494519362461bcd60e51b85528401528201527f6e6f2077616c6c657400000000000000000000000000000000000000000000006044820152fd5b809250878092503d8311610491575b61047381836105b1565b8101031261048d5751878116810361048d57879038610247565b8880fd5b503d610469565b50600c9085606494519362461bcd60e51b85528401528201527f6e6f7420617070726f76656400000000000000000000000000000000000000006044820152fd5b6104f09150873d89116103ad5761039f81836105b1565b386101fd565b85513d8c823e3d90fd5b5162461bcd60e51b81526020818601526008818401527f6e6f2076616c75650000000000000000000000000000000000000000000000006044820152606490fd5b5050346100bb57816003193601126100bb576020906006549051908152f35b5050346100bb57816003193601126100bb5760209073ffffffffffffffffffffffffffffffffffffffff600154169051908152f35b8490346100bb57816003193601126100bb576020906005548152f35b90601f7fffffffffffffffffffffffffffffffffffffffffffffffffffffffffffffffe0910116810190811067ffffffffffffffff8211176105f257604052565b634e487b7160e01b600052604160045260246000fd5b90816020910312610620575180151581036106205790565b600080fd5b9190820180921161063257565b634e487b7160e01b600052601160045260246000fdfea26469706673582212205e7393f90fbbc45934e160fc692f6373ed9c482187ed0397bff92e5eaa24b48364736f6c63430008180033",
  "linkReferences": {},
  "deployedLinkReferences": {}
}