{
  "address": "0xC7B6788316A38aF04e7F1BE09BfFA63575dD8D64",
  "abi": [
    {
      "inputs": [
        {
          "internalType": "string",
          "name": "name",
          "type": "string"
        },
        {
          "internalType": "string",
          "name": "symbol",
          "type": "string"
        },
        {
          "internalType": "uint256",
          "name": "_reserveRatio",
          "type": "uint256"
        }
      ],
      "stateMutability": "nonpayable",
      "type": "constructor"
    },
    {
      "inputs": [
        {
          "internalType": "address",
          "name": "spender",
          "type": "address"
        },
        {
          "internalType": "uint256",
          "name": "allowance",
          "type": "uint256"
        },
        {
          "internalType": "uint256",
          "name": "needed",
          "type": "uint256"
        }
      ],
      "name": "ERC20InsufficientAllowance",
      "type": "error"
    },
    {
      "inputs": [
        {
          "internalType": "address",
          "name": "sender",
          "type": "address"
        },
        {
          "internalType": "uint256",
          "name": "balance",
          "type": "uint256"
        },
        {
          "internalType": "uint256",
          "name": "needed",
          "type": "uint256"
        }
      ],
      "name": "ERC20InsufficientBalance",
      "type": "error"
    },
    {
      "inputs": [
        {
          "internalType": "address",
          "name": "approver",
          "type": "address"
        }
      ],
      "name": "ERC20InvalidApprover",
      "type": "error"
    },
    {
      "inputs": [
        {
          "internalType": "address",
          "name": "receiver",
          "type": "address"
        }
      ],
      "name": "ERC20InvalidReceiver",
      "type": "error"
    },
    {
      "inputs": [
        {
          "internalType": "address",
          "name": "sender",
          "type": "address"
        }
      ],
      "name": "ERC20InvalidSender",
      "type": "error"
    },
    {
      "inputs": [
        {
          "internalType": "address",
          "name": "spender",
          "type": "address"
        }
      ],
      "name": "ERC20InvalidSpender",
      "type": "error"
    },
    {
      "anonymous": false,
      "inputs": [
        {
          "indexed": true,
          "internalType": "address",
          "name": "owner",
          "type": "address"
        },
        {
          "indexed": true,
          "internalType": "address",
          "name": "spender",
          "type": "address"
        },
        {
          "indexed": false,
          "internalType": "uint256",
          "name": "value",
          "type": "uint256"
        }
      ],
      "name": "Approval",
      "type": "event"
    },
    {
      "anonymous": false,
      "inputs": [
        {
          "indexed": true,
          "internalType": "address",
          "name": "buyer",
          "type": "address"
        },
        {
          "indexed": false,
          "internalType": "uint256",
          "name": "amountEth",
          "type": "uint256"
        },
        {
          "indexed": false,
          "internalType": "uint256",
          "name": "amountTokens",
          "type": "uint256"
        }
      ],
      "name": "TokensPurchased",
      "type": "event"
    },
    {
      "anonymous": false,
      "inputs": [
        {
          "indexed": true,
          "internalType": "address",
          "name": "seller",
          "type": "address"
        },
        {
          "indexed": false,
          "internalType": "uint256",
          "name": "amountTokens",
          "type": "uint256"
        },
        {
          "indexed": false,
          "internalType": "uint256",
          "name": "amountEth",
          "type": "uint256"
        }
      ],
      "name": "TokensSold",
      "type": "event"
    },
    {
      "anonymous": false,
      "inputs": [
        {
          "indexed": true,
          "internalType": "address",
          "name": "from",
          "type": "address"
        },
        {
          "indexed": true,
          "internalType": "address",
          "name": "to",
          "type": "address"
        },
        {
          "indexed": false,
          "internalType": "uint256",
          "name": "value",
          "type": "uint256"
        }
      ],
      "name": "Transfer",
      "type": "event"
    },
    {
      "inputs": [
        {
          "internalType": "address",
          "name": "owner",
          "type": "address"
        },
        {
          "internalType": "address",
          "name": "spender",
          "type": "address"
        }
      ],
      "name": "allowance",
      "outputs": [
        {
          "internalType": "uint256",
          "name": "",
          "type": "uint256"
        }
      ],
      "stateMutability": "view",
      "type": "function"
    },
    {
      "inputs": [
        {
          "internalType": "address",
          "name": "spender",
          "type": "address"
        },
        {
          "internalType": "uint256",
          "name": "value",
          "type": "uint256"
        }
      ],
      "name": "approve",
      "outputs": [
        {
          "internalType": "bool",
          "name": "",
          "type": "bool"
        }
      ],
      "stateMutability": "nonpayable",
      "type": "function"
    },
    {
      "inputs": [
        {
          "internalType": "address",
          "name": "account",
          "type": "address"
        }
      ],
      "name": "balanceOf",
      "outputs": [
        {
          "internalType": "uint256",
          "name": "",
          "type": "uint256"
        }
      ],
      "stateMutability": "view",
      "type": "function"
    },
    {
      "inputs": [],
      "name": "buy",
      "outputs": [],
      "stateMutability": "payable",
      "type": "function"
    },
    {
      "inputs": [
        {
          "internalType": "uint256",
          "name": "ethAmount",
          "type": "uint256"
        }
      ],
      "name": "calculateBuyReturn",
      "outputs": [
        {
          "internalType": "uint256",
          "name": "",
          "type": "uint256"
        }
      ],
      "stateMutability": "view",
      "type": "function"
    },
    {
      "inputs": [],
      "name": "calculateCurrentPrice",
      "outputs": [
        {
          "internalType": "uint256",
          "name": "",
          "type": "uint256"
        }
      ],
      "stateMutability": "view",
      "type": "function"
    },
    {
      "inputs": [
        {
          "internalType": "uint256",
          "name": "tokenAmount",
          "type": "uint256"
        }
      ],
      "name": "calculateSellReturn",
      "outputs": [
        {
          "internalType": "uint256",
          "name": "",
          "type": "uint256"
        }
      ],
      "stateMutability": "view",
      "type": "function"
    },
    {
      "inputs": [],
      "name": "decimals",
      "outputs": [
        {
          "internalType": "uint8",
          "name": "",
          "type": "uint8"
        }
      ],
      "stateMutability": "view",
      "type": "function"
    },
    {
      "inputs": [],
      "name": "name",
      "outputs": [
        {
          "internalType": "string",
          "name": "",
          "type": "string"
        }
      ],
      "stateMutability": "view",
      "type": "function"
    },
    {
      "inputs": [],
      "name": "reserveBalance",
      "outputs": [
        {
          "internalType": "uint256",
          "name": "",
          "type": "uint256"
        }
      ],
      "stateMutability": "view",
      "type": "function"
    },
    {
      "inputs": [],
      "name": "reserveRatio",
      "outputs": [
        {
          "internalType": "uint256",
          "name": "",
          "type": "uint256"
        }
      ],
      "stateMutability": "view",
      "type": "function"
    },
    {
      "inputs": [
        {
          "internalType": "uint256",
          "name": "tokenAmount",
          "type": "uint256"
        }
      ],
      "name": "sell",
      "outputs": [],
      "stateMutability": "nonpayable",
      "type": "function"
    },
    {
      "inputs": [],
      "name": "symbol",
      "outputs": [
        {
          "internalType": "string",
          "name": "",
          "type": "string"
        }
      ],
      "stateMutability": "view",
      "type": "function"
    },
    {
      "inputs": [],
      "name": "totalSupply",
      "outputs": [
        {
          "internalType": "uint256",
          "name": "",
          "type": "uint256"
        }
      ],
      "stateMutability": "view",
      "type": "function"
    },
    {
      "inputs": [
        {
          "internalType": "address",
          "name": "to",
          "type": "address"
        },
        {
          "internalType": "uint256",
          "name": "value",
          "type": "uint256"
        }
      ],
      "name": "transfer",
      "outputs": [
        {
          "internalType": "bool",
          "name": "",
          "type": "bool"
        }
      ],
      "stateMutability": "nonpayable",
      "type": "function"
    },
    {
      "inputs": [
        {
          "internalType": "address",
          "name": "from",
          "type": "address"
        },
        {
          "internalType": "address",
          "name": "to",
          "type": "address"
        },
        {
          "internalType": "uint256",
          "name": "value",
          "type": "uint256"
        }
      ],
      "name": "transferFrom",
      "outputs": [
        {
          "internalType": "bool",
          "name": "",
          "type": "bool"
        }
      ],
      "stateMutability": "nonpayable",
      "type": "function"
    },
    {
      "stateMutability": "payable",
      "type": "receive"
    }
  ],
  "transactionHash": "0xeb740e7539bcabd3c1faab44551364ff2c33a855709bea05aa80be409f7345d3",
  "args": [
    "APPU",
    "APPU",
    50
  ],
  "numDeployments": 1,
  "solcInputHash": "0a6a84ba016f86489017f90962abd80a",
  "bytecode": "0x60806040523480156200001157600080fd5b50604051620011b9380380620011b9833981016040819052620000349162000196565b8282600362000044838262000298565b50600462000053828262000298565b50505060008111801562000068575060648111155b620000c55760405162461bcd60e51b815260206004820152602360248201527f5265736572766520726174696f206d757374206265206265747765656e20312d60448201526203130360ec1b606482015260840160405180910390fd5b60065550620003649050565b634e487b7160e01b600052604160045260246000fd5b600082601f830112620000f957600080fd5b81516001600160401b0380821115620001165762000116620000d1565b604051601f8301601f19908116603f01168101908282118183101715620001415762000141620000d1565b816040528381526020925086838588010111156200015e57600080fd5b600091505b8382101562000182578582018301518183018401529082019062000163565b600093810190920192909252949350505050565b600080600060608486031215620001ac57600080fd5b83516001600160401b0380821115620001c457600080fd5b620001d287838801620000e7565b94506020860151915080821115620001e957600080fd5b50620001f886828701620000e7565b925050604084015190509250925092565b600181811c908216806200021e57607f821691505b6020821081036200023f57634e487b7160e01b600052602260045260246000fd5b50919050565b601f8211156200029357600081815260208120601f850160051c810160208610156200026e5750805b601f850160051c820191505b818110156200028f578281556001016200027a565b5050505b505050565b81516001600160401b03811115620002b457620002b4620000d1565b620002cc81620002c5845462000209565b8462000245565b602080601f831160018114620003045760008415620002eb5750858301515b600019600386901b1c1916600185901b1785556200028f565b600085815260208120601f198616915b82811015620003355788860151825594840194600190910190840162000314565b5085821015620003545787850151600019600388901b60f8161c191681555b5050505050600190811b01905550565b610e4580620003746000396000f3fe6080604052600436106100f75760003560e01c8063828f3a9c1161008a578063a9059cbb11610059578063a9059cbb14610296578063bc3c39cb146102b6578063dd62ed3e146102d6578063e4849b321461031c57600080fd5b8063828f3a9c1461024357806395d89b4114610263578063a10954fe14610278578063a6f2ae3a1461028e57600080fd5b806323b872dd116100c657806323b872dd146101bc578063313ce567146101dc5780634d31c57a146101f857806370a082311461020d57600080fd5b806306fdde0314610128578063095ea7b3146101535780630c7d5cd81461018357806318160ddd146101a757600080fd5b3661012357331561010c5761010a61033c565b005b346005600082825461011e9190610c38565b909155005b600080fd5b34801561013457600080fd5b5061013d610444565b60405161014a9190610c4b565b60405180910390f35b34801561015f57600080fd5b5061017361016e366004610cb5565b6104d6565b604051901515815260200161014a565b34801561018f57600080fd5b5061019960065481565b60405190815260200161014a565b3480156101b357600080fd5b50600254610199565b3480156101c857600080fd5b506101736101d7366004610cdf565b6104f0565b3480156101e857600080fd5b506040516012815260200161014a565b34801561020457600080fd5b50610199610514565b34801561021957600080fd5b50610199610228366004610d1b565b6001600160a01b031660009081526020819052604090205490565b34801561024f57600080fd5b5061019961025e366004610d3d565b610578565b34801561026f57600080fd5b5061013d6105de565b34801561028457600080fd5b5061019960055481565b61010a61033c565b3480156102a257600080fd5b506101736102b1366004610cb5565b6105ed565b3480156102c257600080fd5b506101996102d1366004610d3d565b6105fb565b3480156102e257600080fd5b506101996102f1366004610d56565b6001600160a01b03918216600090815260016020908152604080832093909416825291909152205490565b34801561032857600080fd5b5061010a610337366004610d3d565b6106de565b600034116103915760405162461bcd60e51b815260206004820152601b60248201527f4d7573742073656e642045544820746f2062757920746f6b656e73000000000060448201526064015b60405180910390fd5b600061039c34610578565b9050600081116103e45760405162461bcd60e51b8152602060048201526013602482015272139bdd08195b9bdd59da08115512081cd95b9d606a1b6044820152606401610388565b34600560008282546103f69190610c38565b90915550610406905033826108c8565b604080513481526020810183905233917f8fafebcaf9d154343dad25669bfa277f4fbacd7ac6b0c4fed522580e040a0f33910160405180910390a250565b60606003805461045390610d89565b80601f016020809104026020016040519081016040528092919081815260200182805461047f90610d89565b80156104cc5780601f106104a1576101008083540402835291602001916104cc565b820191906000526020600020905b8154815290600101906020018083116104af57829003601f168201915b5050505050905090565b6000336104e4818585610902565b60019150505b92915050565b6000336104fe858285610914565b610509858585610992565b506001949350505050565b600061051f60025490565b600003610532575066038d7ea4c6800090565b606460065461054060025490565b61054a9190610dc3565b6105549190610dda565b60055461056990670de0b6b3a7640000610dc3565b6105739190610dda565b905090565b600061058360025490565b600003610596576104ea826103e8610dc3565b60006105a160025490565b600554600654919250906064906105b89083610dc3565b6105c29190610dda565b6105cc8386610dc3565b6105d69190610dda565b949350505050565b60606004805461045390610d89565b6000336104e4818585610992565b60008061060760025490565b116106545760405162461bcd60e51b815260206004820152601860248201527f4e6f20746f6b656e7320696e2063697263756c6174696f6e00000000000000006044820152606401610388565b6002548211156106a65760405162461bcd60e51b815260206004820181905260248201527f4e6f7420656e6f75676820746f6b656e7320696e2063697263756c6174696f6e6044820152606401610388565b60006106b160025490565b6005546006549192509082906064906106ca8488610dc3565b6106d49190610dc3565b6105cc9190610dda565b6000811161072e5760405162461bcd60e51b815260206004820152601c60248201527f4d7573742073656c6c206d6f7265207468616e203020746f6b656e73000000006044820152606401610388565b3360009081526020819052604090205481111561078d5760405162461bcd60e51b815260206004820152601960248201527f4e6f7420656e6f75676820746f6b656e7320746f2073656c6c000000000000006044820152606401610388565b6000610798826105fb565b9050600081116107ea5760405162461bcd60e51b815260206004820181905260248201527f4e6f7420656e6f75676820746f6b656e7320746f2072656365697665204554486044820152606401610388565b4781111561083a5760405162461bcd60e51b815260206004820152601d60248201527f436f6e74726163742068617320696e73756666696369656e74204554480000006044820152606401610388565b61084433836109f1565b80600560008282546108569190610dfc565b9091555050604051339082156108fc029083906000818181858888f19350505050158015610888573d6000803e3d6000fd5b50604080518381526020810183905233917f2dcf9433d75db0d8b1c172641f85e319ffe4ad22e108a95d1847ceb906e5195d910160405180910390a25050565b6001600160a01b0382166108f25760405163ec442f0560e01b815260006004820152602401610388565b6108fe60008383610a23565b5050565b61090f8383836001610b4d565b505050565b6001600160a01b03838116600090815260016020908152604080832093861683529290522054600019811461098c578181101561097d57604051637dc7a0d960e11b81526001600160a01b03841660048201526024810182905260448101839052606401610388565b61098c84848484036000610b4d565b50505050565b6001600160a01b0383166109bc57604051634b637e8f60e11b815260006004820152602401610388565b6001600160a01b0382166109e65760405163ec442f0560e01b815260006004820152602401610388565b61090f838383610a23565b6001600160a01b038216610a1b57604051634b637e8f60e11b815260006004820152602401610388565b6108fe826000835b6001600160a01b038316610a4e578060026000828254610a439190610c38565b90915550610ac09050565b6001600160a01b03831660009081526020819052604090205481811015610aa15760405163391434e360e21b81526001600160a01b03851660048201526024810182905260448101839052606401610388565b6001600160a01b03841660009081526020819052604090209082900390555b6001600160a01b038216610adc57600280548290039055610afb565b6001600160a01b03821660009081526020819052604090208054820190555b816001600160a01b0316836001600160a01b03167fddf252ad1be2c89b69c2b068fc378daa952ba7f163c4a11628f55a4df523b3ef83604051610b4091815260200190565b60405180910390a3505050565b6001600160a01b038416610b775760405163e602df0560e01b815260006004820152602401610388565b6001600160a01b038316610ba157604051634a1406b160e11b815260006004820152602401610388565b6001600160a01b038085166000908152600160209081526040808320938716835292905220829055801561098c57826001600160a01b0316846001600160a01b03167f8c5be1e5ebec7d5bd14f71427d1e84f3dd0314c0f7b2291e5b200ac8c7c3b92584604051610c1491815260200190565b60405180910390a350505050565b634e487b7160e01b600052601160045260246000fd5b808201808211156104ea576104ea610c22565b600060208083528351808285015260005b81811015610c7857858101830151858201604001528201610c5c565b506000604082860101526040601f19601f8301168501019250505092915050565b80356001600160a01b0381168114610cb057600080fd5b919050565b60008060408385031215610cc857600080fd5b610cd183610c99565b946020939093013593505050565b600080600060608486031215610cf457600080fd5b610cfd84610c99565b9250610d0b60208501610c99565b9150604084013590509250925092565b600060208284031215610d2d57600080fd5b610d3682610c99565b9392505050565b600060208284031215610d4f57600080fd5b5035919050565b60008060408385031215610d6957600080fd5b610d7283610c99565b9150610d8060208401610c99565b90509250929050565b600181811c90821680610d9d57607f821691505b602082108103610dbd57634e487b7160e01b600052602260045260246000fd5b50919050565b80820281158282048414176104ea576104ea610c22565b600082610df757634e487b7160e01b600052601260045260246000fd5b500490565b818103818111156104ea576104ea610c2256fea264697066735822122004c7abcc9b3d796c934e4665282a9060918c49372f2ace263438e2c6dbf8d00364736f6c63430008140033",
  "devdoc": {
    "errors": {
      "ERC20InsufficientAllowance(address,uint256,uint256)": [
        {
          "details": "Indicates a failure with the `spender`’s `allowance`. Used in transfers.",
          "params": {
            "allowance": "Amount of tokens a `spender` is allowed to operate with.",
            "needed": "Minimum amount required to perform a transfer.",
            "spender": "Address that may be allowed to operate on tokens without being their owner."
          }
        }
      ],
      "ERC20InsufficientBalance(address,uint256,uint256)": [
        {
          "details": "Indicates an error related to the current `balance` of a `sender`. Used in transfers.",
          "params": {
            "balance": "Current balance for the interacting account.",
            "needed": "Minimum amount required to perform a transfer.",
            "sender": "Address whose tokens are being transferred."
          }
        }
      ],
      "ERC20InvalidApprover(address)": [
        {
          "details": "Indicates a failure with the `approver` of a token to be approved. Used in approvals.",
          "params": {
            "approver": "Address initiating an approval operation."
          }
        }
      ],
      "ERC20InvalidReceiver(address)": [
        {
          "details": "Indicates a failure with the token `receiver`. Used in transfers.",
          "params": {
            "receiver": "Address to which tokens are being transferred."
          }
        }
      ],
      "ERC20InvalidSender(address)": [
        {
          "details": "Indicates a failure with the token `sender`. Used in transfers.",
          "params": {
            "sender": "Address whose tokens are being transferred."
          }
        }
      ],
      "ERC20InvalidSpender(address)": [
        {
          "details": "Indicates a failure with the `spender` to be approved. Used in approvals.",
          "params": {
            "spender": "Address that may be allowed to operate on tokens without being their owner."
          }
        }
      ]
    },
    "events": {
      "Approval(address,address,uint256)": {
        "details": "Emitted when the allowance of a `spender` for an `owner` is set by a call to {approve}. `value` is the new allowance."
      },
      "Transfer(address,address,uint256)": {
        "details": "Emitted when `value` tokens are moved from one account (`from`) to another (`to`). Note that `value` may be zero."
      }
    },
    "kind": "dev",
    "methods": {
      "allowance(address,address)": {
        "details": "See {IERC20-allowance}."
      },
      "approve(address,uint256)": {
        "details": "See {IERC20-approve}. NOTE: If `value` is the maximum `uint256`, the allowance is not updated on `transferFrom`. This is semantically equivalent to an infinite approval. Requirements: - `spender` cannot be the zero address."
      },
      "balanceOf(address)": {
        "details": "See {IERC20-balanceOf}."
      },
      "decimals()": {
        "details": "Returns the number of decimals used to get its user representation. For example, if `decimals` equals `2`, a balance of `505` tokens should be displayed to a user as `5.05` (`505 / 10 ** 2`). Tokens usually opt for a value of 18, imitating the relationship between Ether and Wei. This is the default value returned by this function, unless it's overridden. NOTE: This information is only used for _display_ purposes: it in no way affects any of the arithmetic of the contract, including {IERC20-balanceOf} and {IERC20-transfer}."
      },
      "name()": {
        "details": "Returns the name of the token."
      },
      "symbol()": {
        "details": "Returns the symbol of the token, usually a shorter version of the name."
      },
      "totalSupply()": {
        "details": "See {IERC20-totalSupply}."
      },
      "transfer(address,uint256)": {
        "details": "See {IERC20-transfer}. Requirements: - `to` cannot be the zero address. - the caller must have a balance of at least `value`."
      },
      "transferFrom(address,address,uint256)": {
        "details": "See {IERC20-transferFrom}. Emits an {Approval} event indicating the updated allowance. This is not required by the EIP. See the note at the beginning of {ERC20}. NOTE: Does not update the allowance if the current allowance is the maximum `uint256`. Requirements: - `from` and `to` cannot be the zero address. - `from` must have a balance of at least `value`. - the caller must have allowance for ``from``'s tokens of at least `value`."
      }
    },
    "version": 1
  },
  "userdoc": {
    "kind": "user",
    "methods": {},
    "version": 1
  },
  "storageLayout": {
    "storage": [
      {
        "astId": 159,
        "contract": "contracts/YourContract.sol:BondingCurvePool",
        "label": "_balances",
        "offset": 0,
        "slot": "0",
        "type": "t_mapping(t_address,t_uint256)"
      },
      {
        "astId": 165,
        "contract": "contracts/YourContract.sol:BondingCurvePool",
        "label": "_allowances",
        "offset": 0,
        "slot": "1",
        "type": "t_mapping(t_address,t_mapping(t_address,t_uint256))"
      },
      {
        "astId": 167,
        "contract": "contracts/YourContract.sol:BondingCurvePool",
        "label": "_totalSupply",
        "offset": 0,
        "slot": "2",
        "type": "t_uint256"
      },
      {
        "astId": 169,
        "contract": "contracts/YourContract.sol:BondingCurvePool",
        "label": "_name",
        "offset": 0,
        "slot": "3",
        "type": "t_string_storage"
      },
      {
        "astId": 171,
        "contract": "contracts/YourContract.sol:BondingCurvePool",
        "label": "_symbol",
        "offset": 0,
        "slot": "4",
        "type": "t_string_storage"
      },
      {
        "astId": 1850,
        "contract": "contracts/YourContract.sol:BondingCurvePool",
        "label": "reserveBalance",
        "offset": 0,
        "slot": "5",
        "type": "t_uint256"
      },
      {
        "astId": 1852,
        "contract": "contracts/YourContract.sol:BondingCurvePool",
        "label": "reserveRatio",
        "offset": 0,
        "slot": "6",
        "type": "t_uint256"
      }
    ],
    "types": {
      "t_address": {
        "encoding": "inplace",
        "label": "address",
        "numberOfBytes": "20"
      },
      "t_mapping(t_address,t_mapping(t_address,t_uint256))": {
        "encoding": "mapping",
        "key": "t_address",
        "label": "mapping(address => mapping(address => uint256))",
        "numberOfBytes": "32",
        "value": "t_mapping(t_address,t_uint256)"
      },
      "t_mapping(t_address,t_uint256)": {
        "encoding": "mapping",
        "key": "t_address",
        "label": "mapping(address => uint256)",
        "numberOfBytes": "32",
        "value": "t_uint256"
      },
      "t_string_storage": {
        "encoding": "bytes",
        "label": "string",
        "numberOfBytes": "32"
      },
      "t_uint256": {
        "encoding": "inplace",
        "label": "uint256",
        "numberOfBytes": "32"
      }
    }
  }
}