{
    "contracts/DiceBet.sol": {
        "DiceBet": {
            "abi": [
                {
                    "inputs": [],
                    "stateMutability": "nonpayable",
                    "type": "constructor"
                },
                {
                    "anonymous": false,
                    "inputs": [
                        {
                            "indexed": true,
                            "internalType": "uint256",
                            "name": "betId",
                            "type": "uint256"
                        },
                        {
                            "indexed": true,
                            "internalType": "address",
                            "name": "player",
                            "type": "address"
                        },
                        {
                            "indexed": false,
                            "internalType": "uint8",
                            "name": "choice",
                            "type": "uint8"
                        },
                        {
                            "indexed": false,
                            "internalType": "uint256",
                            "name": "amount",
                            "type": "uint256"
                        }
                    ],
                    "name": "BetPlaced",
                    "type": "event"
                },
                {
                    "anonymous": false,
                    "inputs": [
                        {
                            "indexed": true,
                            "internalType": "uint256",
                            "name": "betId",
                            "type": "uint256"
                        },
                        {
                            "indexed": true,
                            "internalType": "address",
                            "name": "player",
                            "type": "address"
                        },
                        {
                            "indexed": false,
                            "internalType": "uint8",
                            "name": "choice",
                            "type": "uint8"
                        },
                        {
                            "indexed": false,
                            "internalType": "uint8",
                            "name": "diceResult",
                            "type": "uint8"
                        },
                        {
                            "indexed": false,
                            "internalType": "bool",
                            "name": "isWinner",
                            "type": "bool"
                        }
                    ],
                    "name": "DiceRolled",
                    "type": "event"
                },
                {
                    "anonymous": false,
                    "inputs": [
                        {
                            "indexed": true,
                            "internalType": "address",
                            "name": "previousOwner",
                            "type": "address"
                        },
                        {
                            "indexed": true,
                            "internalType": "address",
                            "name": "newOwner",
                            "type": "address"
                        }
                    ],
                    "name": "OwnershipTransferred",
                    "type": "event"
                },
                {
                    "anonymous": false,
                    "inputs": [
                        {
                            "indexed": true,
                            "internalType": "uint256",
                            "name": "betId",
                            "type": "uint256"
                        },
                        {
                            "indexed": true,
                            "internalType": "address",
                            "name": "player",
                            "type": "address"
                        },
                        {
                            "indexed": false,
                            "internalType": "uint256",
                            "name": "amount",
                            "type": "uint256"
                        },
                        {
                            "indexed": false,
                            "internalType": "bool",
                            "name": "isWinner",
                            "type": "bool"
                        }
                    ],
                    "name": "PayoutSent",
                    "type": "event"
                },
                {
                    "anonymous": false,
                    "inputs": [
                        {
                            "indexed": false,
                            "internalType": "uint256",
                            "name": "amount",
                            "type": "uint256"
                        }
                    ],
                    "name": "PlatformFeeCollected",
                    "type": "event"
                },
                {
                    "inputs": [],
                    "name": "MAX_BET_AMOUNT",
                    "outputs": [
                        {
                            "internalType": "uint256",
                            "name": "",
                            "type": "uint256"
                        }
                    ],
                    "stateMutability": "view",
                    "type": "function"
                },
                {
                    "inputs": [],
                    "name": "MIN_BET_AMOUNT",
                    "outputs": [
                        {
                            "internalType": "uint256",
                            "name": "",
                            "type": "uint256"
                        }
                    ],
                    "stateMutability": "view",
                    "type": "function"
                },
                {
                    "inputs": [],
                    "name": "PLATFORM_FEE_PERCENT",
                    "outputs": [
                        {
                            "internalType": "uint256",
                            "name": "",
                            "type": "uint256"
                        }
                    ],
                    "stateMutability": "view",
                    "type": "function"
                },
                {
                    "inputs": [],
                    "name": "betCounter",
                    "outputs": [
                        {
                            "internalType": "uint256",
                            "name": "",
                            "type": "uint256"
                        }
                    ],
                    "stateMutability": "view",
                    "type": "function"
                },
                {
                    "inputs": [
                        {
                            "internalType": "uint256",
                            "name": "",
                            "type": "uint256"
                        }
                    ],
                    "name": "bets",
                    "outputs": [
                        {
                            "internalType": "address",
                            "name": "player",
                            "type": "address"
                        },
                        {
                            "internalType": "uint8",
                            "name": "choice",
                            "type": "uint8"
                        },
                        {
                            "internalType": "uint256",
                            "name": "amount",
                            "type": "uint256"
                        },
                        {
                            "internalType": "uint256",
                            "name": "timestamp",
                            "type": "uint256"
                        },
                        {
                            "internalType": "bool",
                            "name": "isResolved",
                            "type": "bool"
                        },
                        {
                            "internalType": "bool",
                            "name": "isWinner",
                            "type": "bool"
                        },
                        {
                            "internalType": "uint8",
                            "name": "diceResult",
                            "type": "uint8"
                        }
                    ],
                    "stateMutability": "view",
                    "type": "function"
                },
                {
                    "inputs": [
                        {
                            "internalType": "uint256",
                            "name": "betId",
                            "type": "uint256"
                        }
                    ],
                    "name": "emergencyResolveBet",
                    "outputs": [],
                    "stateMutability": "nonpayable",
                    "type": "function"
                },
                {
                    "inputs": [
                        {
                            "internalType": "uint256",
                            "name": "betId",
                            "type": "uint256"
                        }
                    ],
                    "name": "getBet",
                    "outputs": [
                        {
                            "components": [
                                {
                                    "internalType": "address",
                                    "name": "player",
                                    "type": "address"
                                },
                                {
                                    "internalType": "uint8",
                                    "name": "choice",
                                    "type": "uint8"
                                },
                                {
                                    "internalType": "uint256",
                                    "name": "amount",
                                    "type": "uint256"
                                },
                                {
                                    "internalType": "uint256",
                                    "name": "timestamp",
                                    "type": "uint256"
                                },
                                {
                                    "internalType": "bool",
                                    "name": "isResolved",
                                    "type": "bool"
                                },
                                {
                                    "internalType": "bool",
                                    "name": "isWinner",
                                    "type": "bool"
                                },
                                {
                                    "internalType": "uint8",
                                    "name": "diceResult",
                                    "type": "uint8"
                                }
                            ],
                            "internalType": "struct DiceBet.Bet",
                            "name": "",
                            "type": "tuple"
                        }
                    ],
                    "stateMutability": "view",
                    "type": "function"
                },
                {
                    "inputs": [],
                    "name": "getContractBalance",
                    "outputs": [
                        {
                            "internalType": "uint256",
                            "name": "",
                            "type": "uint256"
                        }
                    ],
                    "stateMutability": "view",
                    "type": "function"
                },
                {
                    "inputs": [],
                    "name": "getMaxBetAmount",
                    "outputs": [
                        {
                            "internalType": "uint256",
                            "name": "",
                            "type": "uint256"
                        }
                    ],
                    "stateMutability": "view",
                    "type": "function"
                },
                {
                    "inputs": [],
                    "name": "getMinBetAmount",
                    "outputs": [
                        {
                            "internalType": "uint256",
                            "name": "",
                            "type": "uint256"
                        }
                    ],
                    "stateMutability": "view",
                    "type": "function"
                },
                {
                    "inputs": [
                        {
                            "internalType": "address",
                            "name": "player",
                            "type": "address"
                        }
                    ],
                    "name": "getPendingBet",
                    "outputs": [
                        {
                            "internalType": "uint256",
                            "name": "",
                            "type": "uint256"
                        }
                    ],
                    "stateMutability": "view",
                    "type": "function"
                },
                {
                    "inputs": [],
                    "name": "owner",
                    "outputs": [
                        {
                            "internalType": "address",
                            "name": "",
                            "type": "address"
                        }
                    ],
                    "stateMutability": "view",
                    "type": "function"
                },
                {
                    "inputs": [
                        {
                            "internalType": "address",
                            "name": "",
                            "type": "address"
                        }
                    ],
                    "name": "pendingBets",
                    "outputs": [
                        {
                            "internalType": "uint256",
                            "name": "",
                            "type": "uint256"
                        }
                    ],
                    "stateMutability": "view",
                    "type": "function"
                },
                {
                    "inputs": [
                        {
                            "internalType": "uint8",
                            "name": "choice",
                            "type": "uint8"
                        }
                    ],
                    "name": "placeBet",
                    "outputs": [],
                    "stateMutability": "payable",
                    "type": "function"
                },
                {
                    "inputs": [],
                    "name": "renounceOwnership",
                    "outputs": [],
                    "stateMutability": "nonpayable",
                    "type": "function"
                },
                {
                    "inputs": [
                        {
                            "internalType": "address",
                            "name": "newOwner",
                            "type": "address"
                        }
                    ],
                    "name": "transferOwnership",
                    "outputs": [],
                    "stateMutability": "nonpayable",
                    "type": "function"
                },
                {
                    "inputs": [],
                    "name": "withdrawPlatformFunds",
                    "outputs": [],
                    "stateMutability": "nonpayable",
                    "type": "function"
                },
                {
                    "stateMutability": "payable",
                    "type": "receive"
                }
            ],
            "evm": {
                "bytecode": {
                    "linkReferences": {},
                    "object": "608060405234801561001057600080fd5b5061001a33610023565b60018055610073565b600080546001600160a01b038381166001600160a01b0319831681178455604051919092169283917f8be0079c531659141344cd1fd0a4f28419497f9722a3daafe3b4186f6b6457e09190a35050565b610ec5806100826000396000f3fe6080604052600436106101025760003560e01c80636f9fb98a1161009557806393526525116100645780639352652514610424578063a416f5ab14610444578063b13f52e01461045a578063b3043cf414610490578063f2fde38b146104a557600080fd5b80636f9fb98a146103ba578063715018a6146103cd57806382a5285d146103e25780638da5cb5b146103fc57600080fd5b806344b0b788116100d157806344b0b78814610342578063550ed1f01461036f578063560d52d41461038a5780636475e3d31461039f57600080fd5b8063061e494f1461010e57806322af00fa14610251578063309167f514610303578063430468441461032d57600080fd5b3661010957005b600080fd5b34801561011a57600080fd5b506101e0610129366004610da2565b6040805160e081018252600080825260208201819052918101829052606081018290526080810182905260a0810182905260c081019190915250600090815260026020818152604092839020835160e08101855281546001600160a01b038116825260ff600160a01b9091048116938201939093526001820154948101949094529182015460608401526003909101548082161515608084015261010081048216151560a08401526201000090041660c082015290565b6040516102489190600060e08201905060018060a01b03835116825260ff6020840151166020830152604083015160408301526060830151606083015260808301511515608083015260a0830151151560a083015260ff60c08401511660c083015292915050565b60405180910390f35b34801561025d57600080fd5b506102be61026c366004610da2565b600260208190526000918252604090912080546001820154928201546003909201546001600160a01b03821693600160a01b90920460ff90811693918181169161010082048116916201000090041687565b604080516001600160a01b03909816885260ff9687166020890152870194909452606086019290925215156080850152151560a08401521660c082015260e001610248565b34801561030f57600080fd5b5061031f670de0b6b3a764000081565b604051908152602001610248565b61034061033b366004610dbb565b6104c5565b005b34801561034e57600080fd5b5061031f61035d366004610de5565b60036020526000908152604090205481565b34801561037b57600080fd5b50670de0b6b3a764000061031f565b34801561039657600080fd5b5061031f600581565b3480156103ab57600080fd5b5061031f66038d7ea4c6800081565b3480156103c657600080fd5b504761031f565b3480156103d957600080fd5b50610340610772565b3480156103ee57600080fd5b5066038d7ea4c6800061031f565b34801561040857600080fd5b506000546040516001600160a01b039091168152602001610248565b34801561043057600080fd5b5061034061043f366004610da2565b610786565b34801561045057600080fd5b5061031f60045481565b34801561046657600080fd5b5061031f610475366004610de5565b6001600160a01b031660009081526003602052604090205490565b34801561049c57600080fd5b506103406107f5565b3480156104b157600080fd5b506103406104c0366004610de5565b610910565b6104cd610986565b66038d7ea4c6800034101561051e5760405162461bcd60e51b815260206004820152601260248201527142657420616d6f756e7420746f6f206c6f7760701b60448201526064015b60405180910390fd5b670de0b6b3a764000034111561056c5760405162461bcd60e51b8152602060048201526013602482015272084cae840c2dadeeadce840e8dede40d0d2ced606b1b6044820152606401610515565b60018160ff1610158015610584575060068160ff1611155b6105d05760405162461bcd60e51b815260206004820152601e60248201527f43686f696365206d757374206265206265747765656e203120616e64203600006044820152606401610515565b33600090815260036020526040902054156106265760405162461bcd60e51b8152602060048201526016602482015275141b185e595c881a185cc81c195b991a5b99c818995d60521b6044820152606401610515565b6004805490600061063683610e24565b90915550506004546040805160e0810182523380825260ff808616602080850191825234858701818152426060880190815260006080890181815260a08a0182815260c08b018381528d845260028089528d85209c518d549a518c16600160a01b026001600160a81b0319909b166001600160a01b039190911617999099178c55945160018c01559251968a019690965594516003988901805492519351909716620100000262ff0000199315156101000261ff00199215159290921661ffff19909316929092171791909116179093558382529390935291839020849055915183917f4f1eed5e863a822b0f9eb960dfdab2cc5a99beec4b191f2a7a9c7e28e5a155249161075491879160ff929092168252602082015260400190565b60405180910390a3610765816109df565b5061076f60018055565b50565b61077a610cf8565b6107846000610d52565b565b61078e610cf8565b6000818152600260205260409020600381015460ff16156107e85760405162461bcd60e51b815260206004820152601460248201527310995d08185b1c9958591e481c995cdbdb1d995960621b6044820152606401610515565b6107f1826109df565b5050565b6107fd610cf8565b47806108425760405162461bcd60e51b81526020600482015260146024820152734e6f2066756e647320746f20776974686472617760601b6044820152606401610515565b600080546040516001600160a01b039091169083908381818185875af1925050503d806000811461088f576040519150601f19603f3d011682016040523d82523d6000602084013e610894565b606091505b50509050806108d95760405162461bcd60e51b815260206004820152601160248201527015da5d1a191c985dd85b0819985a5b1959607a1b6044820152606401610515565b6040518281527f1e78db4c4ee9ca4946fb3ee60599d1e0258a8b22e183510241ff770ab6332baf9060200160405180910390a15050565b610918610cf8565b6001600160a01b03811661097d5760405162461bcd60e51b815260206004820152602660248201527f4f776e61626c653a206e6577206f776e657220697320746865207a65726f206160448201526564647265737360d01b6064820152608401610515565b61076f81610d52565b6002600154036109d85760405162461bcd60e51b815260206004820152601f60248201527f5265656e7472616e637947756172643a207265656e7472616e742063616c6c006044820152606401610515565b6002600155565b6000818152600260205260409020600381015460ff1615610a395760405162461bcd60e51b815260206004820152601460248201527310995d08185b1c9958591e481c995cdbdb1d995960621b6044820152606401610515565b80546040805142602080830191909152448284015241606090811b6bffffffffffffffffffffffff19908116828501526074840188905294901b90931660948201528151608881830301815260a890910190915280519101206000610a9f600683610e3d565b610aaa906001610e5f565b8354600380860180546201000060ff86811691820262ff000019600160a01b80890484168514610100810261ffff199097169690961760011791909116919091179094556001600160a01b03958616600090815260209586526040808220919091558a54815195810490921685529484019190915292820181905293945091169086907f0e3d4c918450e1891ec92a2a895e4f1562742c5a8ed6b6971f9d13588e0f15b89060600160405180910390a38015610ca757600084600101546002610b739190610e78565b905080471015610bc55760405162461bcd60e51b815260206004820152601d60248201527f496e73756666696369656e7420636f6e74726163742062616c616e63650000006044820152606401610515565b84546040516000916001600160a01b03169083908381818185875af1925050503d8060008114610c11576040519150601f19603f3d011682016040523d82523d6000602084013e610c16565b606091505b5050905080610c575760405162461bcd60e51b815260206004820152600d60248201526c14185e5bdd5d0819985a5b1959609a1b6044820152606401610515565b855460408051848152600160208201526001600160a01b039092169189917f3be17e2b44ad5849f62d1b9fa71e55bbd23793999c2c3f00cde51c4e1ac4c3c8910160405180910390a35050610cf1565b835460408051600080825260208201526001600160a01b039092169187917f3be17e2b44ad5849f62d1b9fa71e55bbd23793999c2c3f00cde51c4e1ac4c3c8910160405180910390a35b5050505050565b6000546001600160a01b031633146107845760405162461bcd60e51b815260206004820181905260248201527f4f776e61626c653a2063616c6c6572206973206e6f7420746865206f776e65726044820152606401610515565b600080546001600160a01b038381166001600160a01b0319831681178455604051919092169283917f8be0079c531659141344cd1fd0a4f28419497f9722a3daafe3b4186f6b6457e09190a35050565b600060208284031215610db457600080fd5b5035919050565b600060208284031215610dcd57600080fd5b813560ff81168114610dde57600080fd5b9392505050565b600060208284031215610df757600080fd5b81356001600160a01b0381168114610dde57600080fd5b634e487b7160e01b600052601160045260246000fd5b600060018201610e3657610e36610e0e565b5060010190565b600082610e5a57634e487b7160e01b600052601260045260246000fd5b500690565b80820180821115610e7257610e72610e0e565b92915050565b8082028115828204841417610e7257610e72610e0e56fea2646970667358221220bb7ee5e9de2de895e2ae4fcd8e8f974c7506348c0b78d8ba6ca7e9f3d04f5ce864736f6c63430008130033",
                    "opcodes": "PUSH1 0x80 PUSH1 0x40 MSTORE CALLVALUE DUP1 ISZERO PUSH2 0x10 JUMPI PUSH1 0x0 DUP1 REVERT JUMPDEST POP PUSH2 0x1A CALLER PUSH2 0x23 JUMP JUMPDEST PUSH1 0x1 DUP1 SSTORE PUSH2 0x73 JUMP JUMPDEST PUSH1 0x0 DUP1 SLOAD PUSH1 0x1 PUSH1 0x1 PUSH1 0xA0 SHL SUB DUP4 DUP2 AND PUSH1 0x1 PUSH1 0x1 PUSH1 0xA0 SHL SUB NOT DUP4 AND DUP2 OR DUP5 SSTORE PUSH1 0x40 MLOAD SWAP2 SWAP1 SWAP3 AND SWAP3 DUP4 SWAP2 PUSH32 0x8BE0079C531659141344CD1FD0A4F28419497F9722A3DAAFE3B4186F6B6457E0 SWAP2 SWAP1 LOG3 POP POP JUMP JUMPDEST PUSH2 0xEC5 DUP1 PUSH2 0x82 PUSH1 0x0 CODECOPY PUSH1 0x0 RETURN INVALID PUSH1 0x80 PUSH1 0x40 MSTORE PUSH1 0x4 CALLDATASIZE LT PUSH2 0x102 JUMPI PUSH1 0x0 CALLDATALOAD PUSH1 0xE0 SHR DUP1 PUSH4 0x6F9FB98A GT PUSH2 0x95 JUMPI DUP1 PUSH4 0x93526525 GT PUSH2 0x64 JUMPI DUP1 PUSH4 0x93526525 EQ PUSH2 0x424 JUMPI DUP1 PUSH4 0xA416F5AB EQ PUSH2 0x444 JUMPI DUP1 PUSH4 0xB13F52E0 EQ PUSH2 0x45A JUMPI DUP1 PUSH4 0xB3043CF4 EQ PUSH2 0x490 JUMPI DUP1 PUSH4 0xF2FDE38B EQ PUSH2 0x4A5 JUMPI PUSH1 0x0 DUP1 REVERT JUMPDEST DUP1 PUSH4 0x6F9FB98A EQ PUSH2 0x3BA JUMPI DUP1 PUSH4 0x715018A6 EQ PUSH2 0x3CD JUMPI DUP1 PUSH4 0x82A5285D EQ PUSH2 0x3E2 JUMPI DUP1 PUSH4 0x8DA5CB5B EQ PUSH2 0x3FC JUMPI PUSH1 0x0 DUP1 REVERT JUMPDEST DUP1 PUSH4 0x44B0B788 GT PUSH2 0xD1 JUMPI DUP1 PUSH4 0x44B0B788 EQ PUSH2 0x342 JUMPI DUP1 PUSH4 0x550ED1F0 EQ PUSH2 0x36F JUMPI DUP1 PUSH4 0x560D52D4 EQ PUSH2 0x38A JUMPI DUP1 PUSH4 0x6475E3D3 EQ PUSH2 0x39F JUMPI PUSH1 0x0 DUP1 REVERT JUMPDEST DUP1 PUSH4 0x61E494F EQ PUSH2 0x10E JUMPI DUP1 PUSH4 0x22AF00FA EQ PUSH2 0x251 JUMPI DUP1 PUSH4 0x309167F5 EQ PUSH2 0x303 JUMPI DUP1 PUSH4 0x43046844 EQ PUSH2 0x32D JUMPI PUSH1 0x0 DUP1 REVERT JUMPDEST CALLDATASIZE PUSH2 0x109 JUMPI STOP JUMPDEST PUSH1 0x0 DUP1 REVERT JUMPDEST CALLVALUE DUP1 ISZERO PUSH2 0x11A JUMPI PUSH1 0x0 DUP1 REVERT JUMPDEST POP PUSH2 0x1E0 PUSH2 0x129 CALLDATASIZE PUSH1 0x4 PUSH2 0xDA2 JUMP JUMPDEST PUSH1 0x40 DUP1 MLOAD PUSH1 0xE0 DUP2 ADD DUP3 MSTORE PUSH1 0x0 DUP1 DUP3 MSTORE PUSH1 0x20 DUP3 ADD DUP2 SWAP1 MSTORE SWAP2 DUP2 ADD DUP3 SWAP1 MSTORE PUSH1 0x60 DUP2 ADD DUP3 SWAP1 MSTORE PUSH1 0x80 DUP2 ADD DUP3 SWAP1 MSTORE PUSH1 0xA0 DUP2 ADD DUP3 SWAP1 MSTORE PUSH1 0xC0 DUP2 ADD SWAP2 SWAP1 SWAP2 MSTORE POP PUSH1 0x0 SWAP1 DUP2 MSTORE PUSH1 0x2 PUSH1 0x20 DUP2 DUP2 MSTORE PUSH1 0x40 SWAP3 DUP4 SWAP1 KECCAK256 DUP4 MLOAD PUSH1 0xE0 DUP2 ADD DUP6 MSTORE DUP2 SLOAD PUSH1 0x1 PUSH1 0x1 PUSH1 0xA0 SHL SUB DUP2 AND DUP3 MSTORE PUSH1 0xFF PUSH1 0x1 PUSH1 0xA0 SHL SWAP1 SWAP2 DIV DUP2 AND SWAP4 DUP3 ADD SWAP4 SWAP1 SWAP4 MSTORE PUSH1 0x1 DUP3 ADD SLOAD SWAP5 DUP2 ADD SWAP5 SWAP1 SWAP5 MSTORE SWAP2 DUP3 ADD SLOAD PUSH1 0x60 DUP5 ADD MSTORE PUSH1 0x3 SWAP1 SWAP2 ADD SLOAD DUP1 DUP3 AND ISZERO ISZERO PUSH1 0x80 DUP5 ADD MSTORE PUSH2 0x100 DUP2 DIV DUP3 AND ISZERO ISZERO PUSH1 0xA0 DUP5 ADD MSTORE PUSH3 0x10000 SWAP1 DIV AND PUSH1 0xC0 DUP3 ADD MSTORE SWAP1 JUMP JUMPDEST PUSH1 0x40 MLOAD PUSH2 0x248 SWAP2 SWAP1 PUSH1 0x0 PUSH1 0xE0 DUP3 ADD SWAP1 POP PUSH1 0x1 DUP1 PUSH1 0xA0 SHL SUB DUP4 MLOAD AND DUP3 MSTORE PUSH1 0xFF PUSH1 0x20 DUP5 ADD MLOAD AND PUSH1 0x20 DUP4 ADD MSTORE PUSH1 0x40 DUP4 ADD MLOAD PUSH1 0x40 DUP4 ADD MSTORE PUSH1 0x60 DUP4 ADD MLOAD PUSH1 0x60 DUP4 ADD MSTORE PUSH1 0x80 DUP4 ADD MLOAD ISZERO ISZERO PUSH1 0x80 DUP4 ADD MSTORE PUSH1 0xA0 DUP4 ADD MLOAD ISZERO ISZERO PUSH1 0xA0 DUP4 ADD MSTORE PUSH1 0xFF PUSH1 0xC0 DUP5 ADD MLOAD AND PUSH1 0xC0 DUP4 ADD MSTORE SWAP3 SWAP2 POP POP JUMP JUMPDEST PUSH1 0x40 MLOAD DUP1 SWAP2 SUB SWAP1 RETURN JUMPDEST CALLVALUE DUP1 ISZERO PUSH2 0x25D JUMPI PUSH1 0x0 DUP1 REVERT JUMPDEST POP PUSH2 0x2BE PUSH2 0x26C CALLDATASIZE PUSH1 0x4 PUSH2 0xDA2 JUMP JUMPDEST PUSH1 0x2 PUSH1 0x20 DUP2 SWAP1 MSTORE PUSH1 0x0 SWAP2 DUP3 MSTORE PUSH1 0x40 SWAP1 SWAP2 KECCAK256 DUP1 SLOAD PUSH1 0x1 DUP3 ADD SLOAD SWAP3 DUP3 ADD SLOAD PUSH1 0x3 SWAP1 SWAP3 ADD SLOAD PUSH1 0x1 PUSH1 0x1 PUSH1 0xA0 SHL SUB DUP3 AND SWAP4 PUSH1 0x1 PUSH1 0xA0 SHL SWAP1 SWAP3 DIV PUSH1 0xFF SWAP1 DUP2 AND SWAP4 SWAP2 DUP2 DUP2 AND SWAP2 PUSH2 0x100 DUP3 DIV DUP2 AND SWAP2 PUSH3 0x10000 SWAP1 DIV AND DUP8 JUMP JUMPDEST PUSH1 0x40 DUP1 MLOAD PUSH1 0x1 PUSH1 0x1 PUSH1 0xA0 SHL SUB SWAP1 SWAP9 AND DUP9 MSTORE PUSH1 0xFF SWAP7 DUP8 AND PUSH1 0x20 DUP10 ADD MSTORE DUP8 ADD SWAP5 SWAP1 SWAP5 MSTORE PUSH1 0x60 DUP7 ADD SWAP3 SWAP1 SWAP3 MSTORE ISZERO ISZERO PUSH1 0x80 DUP6 ADD MSTORE ISZERO ISZERO PUSH1 0xA0 DUP5 ADD MSTORE AND PUSH1 0xC0 DUP3 ADD MSTORE PUSH1 0xE0 ADD PUSH2 0x248 JUMP JUMPDEST CALLVALUE DUP1 ISZERO PUSH2 0x30F JUMPI PUSH1 0x0 DUP1 REVERT JUMPDEST POP PUSH2 0x31F PUSH8 0xDE0B6B3A7640000 DUP2 JUMP JUMPDEST PUSH1 0x40 MLOAD SWAP1 DUP2 MSTORE PUSH1 0x20 ADD PUSH2 0x248 JUMP JUMPDEST PUSH2 0x340 PUSH2 0x33B CALLDATASIZE PUSH1 0x4 PUSH2 0xDBB JUMP JUMPDEST PUSH2 0x4C5 JUMP JUMPDEST STOP JUMPDEST CALLVALUE DUP1 ISZERO PUSH2 0x34E JUMPI PUSH1 0x0 DUP1 REVERT JUMPDEST POP PUSH2 0x31F PUSH2 0x35D CALLDATASIZE PUSH1 0x4 PUSH2 0xDE5 JUMP JUMPDEST PUSH1 0x3 PUSH1 0x20 MSTORE PUSH1 0x0 SWAP1 DUP2 MSTORE PUSH1 0x40 SWAP1 KECCAK256 SLOAD DUP2 JUMP JUMPDEST CALLVALUE DUP1 ISZERO PUSH2 0x37B JUMPI PUSH1 0x0 DUP1 REVERT JUMPDEST POP PUSH8 0xDE0B6B3A7640000 PUSH2 0x31F JUMP JUMPDEST CALLVALUE DUP1 ISZERO PUSH2 0x396 JUMPI PUSH1 0x0 DUP1 REVERT JUMPDEST POP PUSH2 0x31F PUSH1 0x5 DUP2 JUMP JUMPDEST CALLVALUE DUP1 ISZERO PUSH2 0x3AB JUMPI PUSH1 0x0 DUP1 REVERT JUMPDEST POP PUSH2 0x31F PUSH7 0x38D7EA4C68000 DUP2 JUMP JUMPDEST CALLVALUE DUP1 ISZERO PUSH2 0x3C6 JUMPI PUSH1 0x0 DUP1 REVERT JUMPDEST POP SELFBALANCE PUSH2 0x31F JUMP JUMPDEST CALLVALUE DUP1 ISZERO PUSH2 0x3D9 JUMPI PUSH1 0x0 DUP1 REVERT JUMPDEST POP PUSH2 0x340 PUSH2 0x772 JUMP JUMPDEST CALLVALUE DUP1 ISZERO PUSH2 0x3EE JUMPI PUSH1 0x0 DUP1 REVERT JUMPDEST POP PUSH7 0x38D7EA4C68000 PUSH2 0x31F JUMP JUMPDEST CALLVALUE DUP1 ISZERO PUSH2 0x408 JUMPI PUSH1 0x0 DUP1 REVERT JUMPDEST POP PUSH1 0x0 SLOAD PUSH1 0x40 MLOAD PUSH1 0x1 PUSH1 0x1 PUSH1 0xA0 SHL SUB SWAP1 SWAP2 AND DUP2 MSTORE PUSH1 0x20 ADD PUSH2 0x248 JUMP JUMPDEST CALLVALUE DUP1 ISZERO PUSH2 0x430 JUMPI PUSH1 0x0 DUP1 REVERT JUMPDEST POP PUSH2 0x340 PUSH2 0x43F CALLDATASIZE PUSH1 0x4 PUSH2 0xDA2 JUMP JUMPDEST PUSH2 0x786 JUMP JUMPDEST CALLVALUE DUP1 ISZERO PUSH2 0x450 JUMPI PUSH1 0x0 DUP1 REVERT JUMPDEST POP PUSH2 0x31F PUSH1 0x4 SLOAD DUP2 JUMP JUMPDEST CALLVALUE DUP1 ISZERO PUSH2 0x466 JUMPI PUSH1 0x0 DUP1 REVERT JUMPDEST POP PUSH2 0x31F PUSH2 0x475 CALLDATASIZE PUSH1 0x4 PUSH2 0xDE5 JUMP JUMPDEST PUSH1 0x1 PUSH1 0x1 PUSH1 0xA0 SHL SUB AND PUSH1 0x0 SWAP1 DUP2 MSTORE PUSH1 0x3 PUSH1 0x20 MSTORE PUSH1 0x40 SWAP1 KECCAK256 SLOAD SWAP1 JUMP JUMPDEST CALLVALUE DUP1 ISZERO PUSH2 0x49C JUMPI PUSH1 0x0 DUP1 REVERT JUMPDEST POP PUSH2 0x340 PUSH2 0x7F5 JUMP JUMPDEST CALLVALUE DUP1 ISZERO PUSH2 0x4B1 JUMPI PUSH1 0x0 DUP1 REVERT JUMPDEST POP PUSH2 0x340 PUSH2 0x4C0 CALLDATASIZE PUSH1 0x4 PUSH2 0xDE5 JUMP JUMPDEST PUSH2 0x910 JUMP JUMPDEST PUSH2 0x4CD PUSH2 0x986 JUMP JUMPDEST PUSH7 0x38D7EA4C68000 CALLVALUE LT ISZERO PUSH2 0x51E JUMPI PUSH1 0x40 MLOAD PUSH3 0x461BCD PUSH1 0xE5 SHL DUP2 MSTORE PUSH1 0x20 PUSH1 0x4 DUP3 ADD MSTORE PUSH1 0x12 PUSH1 0x24 DUP3 ADD MSTORE PUSH18 0x42657420616D6F756E7420746F6F206C6F77 PUSH1 0x70 SHL PUSH1 0x44 DUP3 ADD MSTORE PUSH1 0x64 ADD JUMPDEST PUSH1 0x40 MLOAD DUP1 SWAP2 SUB SWAP1 REVERT JUMPDEST PUSH8 0xDE0B6B3A7640000 CALLVALUE GT ISZERO PUSH2 0x56C JUMPI PUSH1 0x40 MLOAD PUSH3 0x461BCD PUSH1 0xE5 SHL DUP2 MSTORE PUSH1 0x20 PUSH1 0x4 DUP3 ADD MSTORE PUSH1 0x13 PUSH1 0x24 DUP3 ADD MSTORE PUSH19 0x84CAE840C2DADEEADCE840E8DEDE40D0D2CED PUSH1 0x6B SHL PUSH1 0x44 DUP3 ADD MSTORE PUSH1 0x64 ADD PUSH2 0x515 JUMP JUMPDEST PUSH1 0x1 DUP2 PUSH1 0xFF AND LT ISZERO DUP1 ISZERO PUSH2 0x584 JUMPI POP PUSH1 0x6 DUP2 PUSH1 0xFF AND GT ISZERO JUMPDEST PUSH2 0x5D0 JUMPI PUSH1 0x40 MLOAD PUSH3 0x461BCD PUSH1 0xE5 SHL DUP2 MSTORE PUSH1 0x20 PUSH1 0x4 DUP3 ADD MSTORE PUSH1 0x1E PUSH1 0x24 DUP3 ADD MSTORE PUSH32 0x43686F696365206D757374206265206265747765656E203120616E6420360000 PUSH1 0x44 DUP3 ADD MSTORE PUSH1 0x64 ADD PUSH2 0x515 JUMP JUMPDEST CALLER PUSH1 0x0 SWAP1 DUP2 MSTORE PUSH1 0x3 PUSH1 0x20 MSTORE PUSH1 0x40 SWAP1 KECCAK256 SLOAD ISZERO PUSH2 0x626 JUMPI PUSH1 0x40 MLOAD PUSH3 0x461BCD PUSH1 0xE5 SHL DUP2 MSTORE PUSH1 0x20 PUSH1 0x4 DUP3 ADD MSTORE PUSH1 0x16 PUSH1 0x24 DUP3 ADD MSTORE PUSH22 0x141B185E595C881A185CC81C195B991A5B99C818995D PUSH1 0x52 SHL PUSH1 0x44 DUP3 ADD MSTORE PUSH1 0x64 ADD PUSH2 0x515 JUMP JUMPDEST PUSH1 0x4 DUP1 SLOAD SWAP1 PUSH1 0x0 PUSH2 0x636 DUP4 PUSH2 0xE24 JUMP JUMPDEST SWAP1 SWAP2 SSTORE POP POP PUSH1 0x4 SLOAD PUSH1 0x40 DUP1 MLOAD PUSH1 0xE0 DUP2 ADD DUP3 MSTORE CALLER DUP1 DUP3 MSTORE PUSH1 0xFF DUP1 DUP7 AND PUSH1 0x20 DUP1 DUP6 ADD SWAP2 DUP3 MSTORE CALLVALUE DUP6 DUP8 ADD DUP2 DUP2 MSTORE TIMESTAMP PUSH1 0x60 DUP9 ADD SWAP1 DUP2 MSTORE PUSH1 0x0 PUSH1 0x80 DUP10 ADD DUP2 DUP2 MSTORE PUSH1 0xA0 DUP11 ADD DUP3 DUP2 MSTORE PUSH1 0xC0 DUP12 ADD DUP4 DUP2 MSTORE DUP14 DUP5 MSTORE PUSH1 0x2 DUP1 DUP10 MSTORE DUP14 DUP6 KECCAK256 SWAP13 MLOAD DUP14 SLOAD SWAP11 MLOAD DUP13 AND PUSH1 0x1 PUSH1 0xA0 SHL MUL PUSH1 0x1 PUSH1 0x1 PUSH1 0xA8 SHL SUB NOT SWAP1 SWAP12 AND PUSH1 0x1 PUSH1 0x1 PUSH1 0xA0 SHL SUB SWAP2 SWAP1 SWAP2 AND OR SWAP10 SWAP1 SWAP10 OR DUP13 SSTORE SWAP5 MLOAD PUSH1 0x1 DUP13 ADD SSTORE SWAP3 MLOAD SWAP7 DUP11 ADD SWAP7 SWAP1 SWAP7 SSTORE SWAP5 MLOAD PUSH1 0x3 SWAP9 DUP10 ADD DUP1 SLOAD SWAP3 MLOAD SWAP4 MLOAD SWAP1 SWAP8 AND PUSH3 0x10000 MUL PUSH3 0xFF0000 NOT SWAP4 ISZERO ISZERO PUSH2 0x100 MUL PUSH2 0xFF00 NOT SWAP3 ISZERO ISZERO SWAP3 SWAP1 SWAP3 AND PUSH2 0xFFFF NOT SWAP1 SWAP4 AND SWAP3 SWAP1 SWAP3 OR OR SWAP2 SWAP1 SWAP2 AND OR SWAP1 SWAP4 SSTORE DUP4 DUP3 MSTORE SWAP4 SWAP1 SWAP4 MSTORE SWAP2 DUP4 SWAP1 KECCAK256 DUP5 SWAP1 SSTORE SWAP2 MLOAD DUP4 SWAP2 PUSH32 0x4F1EED5E863A822B0F9EB960DFDAB2CC5A99BEEC4B191F2A7A9C7E28E5A15524 SWAP2 PUSH2 0x754 SWAP2 DUP8 SWAP2 PUSH1 0xFF SWAP3 SWAP1 SWAP3 AND DUP3 MSTORE PUSH1 0x20 DUP3 ADD MSTORE PUSH1 0x40 ADD SWAP1 JUMP JUMPDEST PUSH1 0x40 MLOAD DUP1 SWAP2 SUB SWAP1 LOG3 PUSH2 0x765 DUP2 PUSH2 0x9DF JUMP JUMPDEST POP PUSH2 0x76F PUSH1 0x1 DUP1 SSTORE JUMP JUMPDEST POP JUMP JUMPDEST PUSH2 0x77A PUSH2 0xCF8 JUMP JUMPDEST PUSH2 0x784 PUSH1 0x0 PUSH2 0xD52 JUMP JUMPDEST JUMP JUMPDEST PUSH2 0x78E PUSH2 0xCF8 JUMP JUMPDEST PUSH1 0x0 DUP2 DUP2 MSTORE PUSH1 0x2 PUSH1 0x20 MSTORE PUSH1 0x40 SWAP1 KECCAK256 PUSH1 0x3 DUP2 ADD SLOAD PUSH1 0xFF AND ISZERO PUSH2 0x7E8 JUMPI PUSH1 0x40 MLOAD PUSH3 0x461BCD PUSH1 0xE5 SHL DUP2 MSTORE PUSH1 0x20 PUSH1 0x4 DUP3 ADD MSTORE PUSH1 0x14 PUSH1 0x24 DUP3 ADD MSTORE PUSH20 0x10995D08185B1C9958591E481C995CDBDB1D9959 PUSH1 0x62 SHL PUSH1 0x44 DUP3 ADD MSTORE PUSH1 0x64 ADD PUSH2 0x515 JUMP JUMPDEST PUSH2 0x7F1 DUP3 PUSH2 0x9DF JUMP JUMPDEST POP POP JUMP JUMPDEST PUSH2 0x7FD PUSH2 0xCF8 JUMP JUMPDEST SELFBALANCE DUP1 PUSH2 0x842 JUMPI PUSH1 0x40 MLOAD PUSH3 0x461BCD PUSH1 0xE5 SHL DUP2 MSTORE PUSH1 0x20 PUSH1 0x4 DUP3 ADD MSTORE PUSH1 0x14 PUSH1 0x24 DUP3 ADD MSTORE PUSH20 0x4E6F2066756E647320746F207769746864726177 PUSH1 0x60 SHL PUSH1 0x44 DUP3 ADD MSTORE PUSH1 0x64 ADD PUSH2 0x515 JUMP JUMPDEST PUSH1 0x0 DUP1 SLOAD PUSH1 0x40 MLOAD PUSH1 0x1 PUSH1 0x1 PUSH1 0xA0 SHL SUB SWAP1 SWAP2 AND SWAP1 DUP4 SWAP1 DUP4 DUP2 DUP2 DUP2 DUP6 DUP8 GAS CALL SWAP3 POP POP POP RETURNDATASIZE DUP1 PUSH1 0x0 DUP2 EQ PUSH2 0x88F JUMPI PUSH1 0x40 MLOAD SWAP2 POP PUSH1 0x1F NOT PUSH1 0x3F RETURNDATASIZE ADD AND DUP3 ADD PUSH1 0x40 MSTORE RETURNDATASIZE DUP3 MSTORE RETURNDATASIZE PUSH1 0x0 PUSH1 0x20 DUP5 ADD RETURNDATACOPY PUSH2 0x894 JUMP JUMPDEST PUSH1 0x60 SWAP2 POP JUMPDEST POP POP SWAP1 POP DUP1 PUSH2 0x8D9 JUMPI PUSH1 0x40 MLOAD PUSH3 0x461BCD PUSH1 0xE5 SHL DUP2 MSTORE PUSH1 0x20 PUSH1 0x4 DUP3 ADD MSTORE PUSH1 0x11 PUSH1 0x24 DUP3 ADD MSTORE PUSH17 0x15DA5D1A191C985DD85B0819985A5B1959 PUSH1 0x7A SHL PUSH1 0x44 DUP3 ADD MSTORE PUSH1 0x64 ADD PUSH2 0x515 JUMP JUMPDEST PUSH1 0x40 MLOAD DUP3 DUP2 MSTORE PUSH32 0x1E78DB4C4EE9CA4946FB3EE60599D1E0258A8B22E183510241FF770AB6332BAF SWAP1 PUSH1 0x20 ADD PUSH1 0x40 MLOAD DUP1 SWAP2 SUB SWAP1 LOG1 POP POP JUMP JUMPDEST PUSH2 0x918 PUSH2 0xCF8 JUMP JUMPDEST PUSH1 0x1 PUSH1 0x1 PUSH1 0xA0 SHL SUB DUP2 AND PUSH2 0x97D JUMPI PUSH1 0x40 MLOAD PUSH3 0x461BCD PUSH1 0xE5 SHL DUP2 MSTORE PUSH1 0x20 PUSH1 0x4 DUP3 ADD MSTORE PUSH1 0x26 PUSH1 0x24 DUP3 ADD MSTORE PUSH32 0x4F776E61626C653A206E6577206F776E657220697320746865207A65726F2061 PUSH1 0x44 DUP3 ADD MSTORE PUSH6 0x646472657373 PUSH1 0xD0 SHL PUSH1 0x64 DUP3 ADD MSTORE PUSH1 0x84 ADD PUSH2 0x515 JUMP JUMPDEST PUSH2 0x76F DUP2 PUSH2 0xD52 JUMP JUMPDEST PUSH1 0x2 PUSH1 0x1 SLOAD SUB PUSH2 0x9D8 JUMPI PUSH1 0x40 MLOAD PUSH3 0x461BCD PUSH1 0xE5 SHL DUP2 MSTORE PUSH1 0x20 PUSH1 0x4 DUP3 ADD MSTORE PUSH1 0x1F PUSH1 0x24 DUP3 ADD MSTORE PUSH32 0x5265656E7472616E637947756172643A207265656E7472616E742063616C6C00 PUSH1 0x44 DUP3 ADD MSTORE PUSH1 0x64 ADD PUSH2 0x515 JUMP JUMPDEST PUSH1 0x2 PUSH1 0x1 SSTORE JUMP JUMPDEST PUSH1 0x0 DUP2 DUP2 MSTORE PUSH1 0x2 PUSH1 0x20 MSTORE PUSH1 0x40 SWAP1 KECCAK256 PUSH1 0x3 DUP2 ADD SLOAD PUSH1 0xFF AND ISZERO PUSH2 0xA39 JUMPI PUSH1 0x40 MLOAD PUSH3 0x461BCD PUSH1 0xE5 SHL DUP2 MSTORE PUSH1 0x20 PUSH1 0x4 DUP3 ADD MSTORE PUSH1 0x14 PUSH1 0x24 DUP3 ADD MSTORE PUSH20 0x10995D08185B1C9958591E481C995CDBDB1D9959 PUSH1 0x62 SHL PUSH1 0x44 DUP3 ADD MSTORE PUSH1 0x64 ADD PUSH2 0x515 JUMP JUMPDEST DUP1 SLOAD PUSH1 0x40 DUP1 MLOAD TIMESTAMP PUSH1 0x20 DUP1 DUP4 ADD SWAP2 SWAP1 SWAP2 MSTORE PREVRANDAO DUP3 DUP5 ADD MSTORE COINBASE PUSH1 0x60 SWAP1 DUP2 SHL PUSH12 0xFFFFFFFFFFFFFFFFFFFFFFFF NOT SWAP1 DUP2 AND DUP3 DUP6 ADD MSTORE PUSH1 0x74 DUP5 ADD DUP9 SWAP1 MSTORE SWAP5 SWAP1 SHL SWAP1 SWAP4 AND PUSH1 0x94 DUP3 ADD MSTORE DUP2 MLOAD PUSH1 0x88 DUP2 DUP4 SUB ADD DUP2 MSTORE PUSH1 0xA8 SWAP1 SWAP2 ADD SWAP1 SWAP2 MSTORE DUP1 MLOAD SWAP2 ADD KECCAK256 PUSH1 0x0 PUSH2 0xA9F PUSH1 0x6 DUP4 PUSH2 0xE3D JUMP JUMPDEST PUSH2 0xAAA SWAP1 PUSH1 0x1 PUSH2 0xE5F JUMP JUMPDEST DUP4 SLOAD PUSH1 0x3 DUP1 DUP7 ADD DUP1 SLOAD PUSH3 0x10000 PUSH1 0xFF DUP7 DUP2 AND SWAP2 DUP3 MUL PUSH3 0xFF0000 NOT PUSH1 0x1 PUSH1 0xA0 SHL DUP1 DUP10 DIV DUP5 AND DUP6 EQ PUSH2 0x100 DUP2 MUL PUSH2 0xFFFF NOT SWAP1 SWAP8 AND SWAP7 SWAP1 SWAP7 OR PUSH1 0x1 OR SWAP2 SWAP1 SWAP2 AND SWAP2 SWAP1 SWAP2 OR SWAP1 SWAP5 SSTORE PUSH1 0x1 PUSH1 0x1 PUSH1 0xA0 SHL SUB SWAP6 DUP7 AND PUSH1 0x0 SWAP1 DUP2 MSTORE PUSH1 0x20 SWAP6 DUP7 MSTORE PUSH1 0x40 DUP1 DUP3 KECCAK256 SWAP2 SWAP1 SWAP2 SSTORE DUP11 SLOAD DUP2 MLOAD SWAP6 DUP2 DIV SWAP1 SWAP3 AND DUP6 MSTORE SWAP5 DUP5 ADD SWAP2 SWAP1 SWAP2 MSTORE SWAP3 DUP3 ADD DUP2 SWAP1 MSTORE SWAP4 SWAP5 POP SWAP2 AND SWAP1 DUP7 SWAP1 PUSH32 0xE3D4C918450E1891EC92A2A895E4F1562742C5A8ED6B6971F9D13588E0F15B8 SWAP1 PUSH1 0x60 ADD PUSH1 0x40 MLOAD DUP1 SWAP2 SUB SWAP1 LOG3 DUP1 ISZERO PUSH2 0xCA7 JUMPI PUSH1 0x0 DUP5 PUSH1 0x1 ADD SLOAD PUSH1 0x2 PUSH2 0xB73 SWAP2 SWAP1 PUSH2 0xE78 JUMP JUMPDEST SWAP1 POP DUP1 SELFBALANCE LT ISZERO PUSH2 0xBC5 JUMPI PUSH1 0x40 MLOAD PUSH3 0x461BCD PUSH1 0xE5 SHL DUP2 MSTORE PUSH1 0x20 PUSH1 0x4 DUP3 ADD MSTORE PUSH1 0x1D PUSH1 0x24 DUP3 ADD MSTORE PUSH32 0x496E73756666696369656E7420636F6E74726163742062616C616E6365000000 PUSH1 0x44 DUP3 ADD MSTORE PUSH1 0x64 ADD PUSH2 0x515 JUMP JUMPDEST DUP5 SLOAD PUSH1 0x40 MLOAD PUSH1 0x0 SWAP2 PUSH1 0x1 PUSH1 0x1 PUSH1 0xA0 SHL SUB AND SWAP1 DUP4 SWAP1 DUP4 DUP2 DUP2 DUP2 DUP6 DUP8 GAS CALL SWAP3 POP POP POP RETURNDATASIZE DUP1 PUSH1 0x0 DUP2 EQ PUSH2 0xC11 JUMPI PUSH1 0x40 MLOAD SWAP2 POP PUSH1 0x1F NOT PUSH1 0x3F RETURNDATASIZE ADD AND DUP3 ADD PUSH1 0x40 MSTORE RETURNDATASIZE DUP3 MSTORE RETURNDATASIZE PUSH1 0x0 PUSH1 0x20 DUP5 ADD RETURNDATACOPY PUSH2 0xC16 JUMP JUMPDEST PUSH1 0x60 SWAP2 POP JUMPDEST POP POP SWAP1 POP DUP1 PUSH2 0xC57 JUMPI PUSH1 0x40 MLOAD PUSH3 0x461BCD PUSH1 0xE5 SHL DUP2 MSTORE PUSH1 0x20 PUSH1 0x4 DUP3 ADD MSTORE PUSH1 0xD PUSH1 0x24 DUP3 ADD MSTORE PUSH13 0x14185E5BDD5D0819985A5B1959 PUSH1 0x9A SHL PUSH1 0x44 DUP3 ADD MSTORE PUSH1 0x64 ADD PUSH2 0x515 JUMP JUMPDEST DUP6 SLOAD PUSH1 0x40 DUP1 MLOAD DUP5 DUP2 MSTORE PUSH1 0x1 PUSH1 0x20 DUP3 ADD MSTORE PUSH1 0x1 PUSH1 0x1 PUSH1 0xA0 SHL SUB SWAP1 SWAP3 AND SWAP2 DUP10 SWAP2 PUSH32 0x3BE17E2B44AD5849F62D1B9FA71E55BBD23793999C2C3F00CDE51C4E1AC4C3C8 SWAP2 ADD PUSH1 0x40 MLOAD DUP1 SWAP2 SUB SWAP1 LOG3 POP POP PUSH2 0xCF1 JUMP JUMPDEST DUP4 SLOAD PUSH1 0x40 DUP1 MLOAD PUSH1 0x0 DUP1 DUP3 MSTORE PUSH1 0x20 DUP3 ADD MSTORE PUSH1 0x1 PUSH1 0x1 PUSH1 0xA0 SHL SUB SWAP1 SWAP3 AND SWAP2 DUP8 SWAP2 PUSH32 0x3BE17E2B44AD5849F62D1B9FA71E55BBD23793999C2C3F00CDE51C4E1AC4C3C8 SWAP2 ADD PUSH1 0x40 MLOAD DUP1 SWAP2 SUB SWAP1 LOG3 JUMPDEST POP POP POP POP POP JUMP JUMPDEST PUSH1 0x0 SLOAD PUSH1 0x1 PUSH1 0x1 PUSH1 0xA0 SHL SUB AND CALLER EQ PUSH2 0x784 JUMPI PUSH1 0x40 MLOAD PUSH3 0x461BCD PUSH1 0xE5 SHL DUP2 MSTORE PUSH1 0x20 PUSH1 0x4 DUP3 ADD DUP2 SWAP1 MSTORE PUSH1 0x24 DUP3 ADD MSTORE PUSH32 0x4F776E61626C653A2063616C6C6572206973206E6F7420746865206F776E6572 PUSH1 0x44 DUP3 ADD MSTORE PUSH1 0x64 ADD PUSH2 0x515 JUMP JUMPDEST PUSH1 0x0 DUP1 SLOAD PUSH1 0x1 PUSH1 0x1 PUSH1 0xA0 SHL SUB DUP4 DUP2 AND PUSH1 0x1 PUSH1 0x1 PUSH1 0xA0 SHL SUB NOT DUP4 AND DUP2 OR DUP5 SSTORE PUSH1 0x40 MLOAD SWAP2 SWAP1 SWAP3 AND SWAP3 DUP4 SWAP2 PUSH32 0x8BE0079C531659141344CD1FD0A4F28419497F9722A3DAAFE3B4186F6B6457E0 SWAP2 SWAP1 LOG3 POP POP JUMP JUMPDEST PUSH1 0x0 PUSH1 0x20 DUP3 DUP5 SUB SLT ISZERO PUSH2 0xDB4 JUMPI PUSH1 0x0 DUP1 REVERT JUMPDEST POP CALLDATALOAD SWAP2 SWAP1 POP JUMP JUMPDEST PUSH1 0x0 PUSH1 0x20 DUP3 DUP5 SUB SLT ISZERO PUSH2 0xDCD JUMPI PUSH1 0x0 DUP1 REVERT JUMPDEST DUP2 CALLDATALOAD PUSH1 0xFF DUP2 AND DUP2 EQ PUSH2 0xDDE JUMPI PUSH1 0x0 DUP1 REVERT JUMPDEST SWAP4 SWAP3 POP POP POP JUMP JUMPDEST PUSH1 0x0 PUSH1 0x20 DUP3 DUP5 SUB SLT ISZERO PUSH2 0xDF7 JUMPI PUSH1 0x0 DUP1 REVERT JUMPDEST DUP2 CALLDATALOAD PUSH1 0x1 PUSH1 0x1 PUSH1 0xA0 SHL SUB DUP2 AND DUP2 EQ PUSH2 0xDDE JUMPI PUSH1 0x0 DUP1 REVERT JUMPDEST PUSH4 0x4E487B71 PUSH1 0xE0 SHL PUSH1 0x0 MSTORE PUSH1 0x11 PUSH1 0x4 MSTORE PUSH1 0x24 PUSH1 0x0 REVERT JUMPDEST PUSH1 0x0 PUSH1 0x1 DUP3 ADD PUSH2 0xE36 JUMPI PUSH2 0xE36 PUSH2 0xE0E JUMP JUMPDEST POP PUSH1 0x1 ADD SWAP1 JUMP JUMPDEST PUSH1 0x0 DUP3 PUSH2 0xE5A JUMPI PUSH4 0x4E487B71 PUSH1 0xE0 SHL PUSH1 0x0 MSTORE PUSH1 0x12 PUSH1 0x4 MSTORE PUSH1 0x24 PUSH1 0x0 REVERT JUMPDEST POP MOD SWAP1 JUMP JUMPDEST DUP1 DUP3 ADD DUP1 DUP3 GT ISZERO PUSH2 0xE72 JUMPI PUSH2 0xE72 PUSH2 0xE0E JUMP JUMPDEST SWAP3 SWAP2 POP POP JUMP JUMPDEST DUP1 DUP3 MUL DUP2 ISZERO DUP3 DUP3 DIV DUP5 EQ OR PUSH2 0xE72 JUMPI PUSH2 0xE72 PUSH2 0xE0E JUMP INVALID LOG2 PUSH5 0x6970667358 0x22 SLT KECCAK256 0xBB PUSH31 0xE5E9DE2DE895E2AE4FCD8E8F974C7506348C0B78D8BA6CA7E9F3D04F5CE864 PUSH20 0x6F6C634300081300330000000000000000000000 "
                },
                "methodIdentifiers": {
                    "MAX_BET_AMOUNT()": "309167f5",
                    "MIN_BET_AMOUNT()": "6475e3d3",
                    "PLATFORM_FEE_PERCENT()": "560d52d4",
                    "betCounter()": "a416f5ab",
                    "bets(uint256)": "22af00fa",
                    "emergencyResolveBet(uint256)": "93526525",
                    "getBet(uint256)": "061e494f",
                    "getContractBalance()": "6f9fb98a",
                    "getMaxBetAmount()": "550ed1f0",
                    "getMinBetAmount()": "82a5285d",
                    "getPendingBet(address)": "b13f52e0",
                    "owner()": "8da5cb5b",
                    "pendingBets(address)": "44b0b788",
                    "placeBet(uint8)": "43046844",
                    "renounceOwnership()": "715018a6",
                    "transferOwnership(address)": "f2fde38b",
                    "withdrawPlatformFunds()": "b3043cf4"
                }
            }
        }
    }
}