{
  "_format": "hh-sol-artifact-1",
  "contractName": "MonadRelief",
  "sourceName": "contracts/MonadRelief.sol",
  "abi": [
    {
      "inputs": [
        {
          "internalType": "address",
          "name": "_governance",
          "type": "address"
        }
      ],
      "stateMutability": "nonpayable",
      "type": "constructor"
    },
    {
      "anonymous": false,
      "inputs": [
        {
          "indexed": true,
          "internalType": "bytes32",
          "name": "id",
          "type": "bytes32"
        },
        {
          "indexed": true,
          "internalType": "address",
          "name": "wallet",
          "type": "address"
        }
      ],
      "name": "BeneficiaryRegistered",
      "type": "event"
    },
    {
      "anonymous": false,
      "inputs": [
        {
          "indexed": true,
          "internalType": "bytes32",
          "name": "id",
          "type": "bytes32"
        },
        {
          "indexed": true,
          "internalType": "address",
          "name": "wallet",
          "type": "address"
        }
      ],
      "name": "BeneficiaryVerified",
      "type": "event"
    },
    {
      "anonymous": false,
      "inputs": [
        {
          "indexed": true,
          "internalType": "bytes32",
          "name": "beneficiaryId",
          "type": "bytes32"
        },
        {
          "indexed": true,
          "internalType": "address",
          "name": "wallet",
          "type": "address"
        },
        {
          "indexed": false,
          "internalType": "uint256",
          "name": "amount",
          "type": "uint256"
        }
      ],
      "name": "Disbursement",
      "type": "event"
    },
    {
      "anonymous": false,
      "inputs": [
        {
          "indexed": true,
          "internalType": "address",
          "name": "donor",
          "type": "address"
        },
        {
          "indexed": false,
          "internalType": "uint256",
          "name": "amount",
          "type": "uint256"
        },
        {
          "indexed": true,
          "internalType": "bytes32",
          "name": "beneficiaryId",
          "type": "bytes32"
        }
      ],
      "name": "Donation",
      "type": "event"
    },
    {
      "inputs": [
        {
          "internalType": "bytes32",
          "name": "",
          "type": "bytes32"
        }
      ],
      "name": "beneficiaries",
      "outputs": [
        {
          "internalType": "address",
          "name": "wallet",
          "type": "address"
        },
        {
          "internalType": "bool",
          "name": "verified",
          "type": "bool"
        },
        {
          "internalType": "uint256",
          "name": "totalReceived",
          "type": "uint256"
        }
      ],
      "stateMutability": "view",
      "type": "function"
    },
    {
      "inputs": [
        {
          "internalType": "bytes32",
          "name": "beneficiaryId",
          "type": "bytes32"
        }
      ],
      "name": "donate",
      "outputs": [],
      "stateMutability": "payable",
      "type": "function"
    },
    {
      "inputs": [
        {
          "internalType": "address",
          "name": "",
          "type": "address"
        }
      ],
      "name": "donorHasDonated",
      "outputs": [
        {
          "internalType": "bool",
          "name": "",
          "type": "bool"
        }
      ],
      "stateMutability": "view",
      "type": "function"
    },
    {
      "inputs": [],
      "name": "governance",
      "outputs": [
        {
          "internalType": "address",
          "name": "",
          "type": "address"
        }
      ],
      "stateMutability": "view",
      "type": "function"
    },
    {
      "inputs": [
        {
          "internalType": "bytes32",
          "name": "id",
          "type": "bytes32"
        },
        {
          "internalType": "address",
          "name": "wallet",
          "type": "address"
        }
      ],
      "name": "registerBeneficiary",
      "outputs": [],
      "stateMutability": "nonpayable",
      "type": "function"
    },
    {
      "inputs": [
        {
          "internalType": "bytes32",
          "name": "id",
          "type": "bytes32"
        },
        {
          "internalType": "bool",
          "name": "verified",
          "type": "bool"
        }
      ],
      "name": "setVerified",
      "outputs": [],
      "stateMutability": "nonpayable",
      "type": "function"
    },
    {
      "inputs": [],
      "name": "totalDisbursed",
      "outputs": [
        {
          "internalType": "uint256",
          "name": "",
          "type": "uint256"
        }
      ],
      "stateMutability": "view",
      "type": "function"
    },
    {
      "inputs": [],
      "name": "totalDonationCount",
      "outputs": [
        {
          "internalType": "uint256",
          "name": "",
          "type": "uint256"
        }
      ],
      "stateMutability": "view",
      "type": "function"
    },
    {
      "inputs": [],
      "name": "totalDonations",
      "outputs": [
        {
          "internalType": "uint256",
          "name": "",
          "type": "uint256"
        }
      ],
      "stateMutability": "view",
      "type": "function"
    },
    {
      "inputs": [],
      "name": "uniqueDonorCount",
      "outputs": [
        {
          "internalType": "uint256",
          "name": "",
          "type": "uint256"
        }
      ],
      "stateMutability": "view",
      "type": "function"
    }
  ],
  "bytecode": "0x6080346100b457601f61089a38819003918201601f19168301916001600160401b038311848410176100b9578084926020946040528339810103126100b457516001600160a01b038116908190036100b457801561007a57600080546001600160a01b0319169190911790556040516107ca90816100d08239f35b60405162461bcd60e51b8152602060048201526012602482015271696e76616c696420676f7665726e616e636560701b6044820152606490fd5b600080fd5b634e487b7160e01b600052604160045260246000fdfe608060408181526004918236101561001657600080fd5b600092833560e01c9182630b024f871461070a575081631122e86a146105fb57816339cd53ee146105a357816355a7c435146104675781635aa6e67514610434578163603090bc1461041657816387aa86c9146103c7578163bf95c78d146103a8578163c37067fa146100b4575063de2ed8931461009357600080fd5b346100b057816003193601126100b0576020906001549051908152f35b5080fd5b90506020806003193601126103a4578135913415610363578285526005825283852080549173ffffffffffffffffffffffffffffffffffffffff92838116156103215760a01c60ff16156102df57600190610110348354610771565b82556003548281018091116102cc576003553388526006855286882082815460ff811615610291575b5050508780808034888854165af13d1561028c5767ffffffffffffffff3d81811161027957895191601f82017fffffffffffffffffffffffffffffffffffffffffffffffffffffffffffffffe0908116603f0116830190811183821017610266578a52815289873d92013e5b156102245750907f8489523a0949d54d08ae65a8576d31d3b14c72c328a833f30dbb9d02505a77c093929181016101dd348254610771565b90556101eb34600254610771565b6002558486513481527f4653725aaef32330a11da5e47adc56343bba69a948d45aa8e3dbdd2c0b9bd6bb853392a354169351348152a380f35b6064908588519162461bcd60e51b8352820152600f60248201527f7472616e73666572206661696c656400000000000000000000000000000000006044820152fd5b60248c604187634e487b7160e01b835252fd5b60248b604186634e487b7160e01b835252fd5b6101a5565b7fffffffffffffffffffffffffffffffffffffffffffffffffffffffffffffff001617905580548281018091116102cc578155388281610139565b602489601184634e487b7160e01b835252fd5b6064908487519162461bcd60e51b8352820152600c60248201527f6e6f7420766572696669656400000000000000000000000000000000000000006044820152fd5b6064828689519162461bcd60e51b8352820152601360248201527f62656e6566696369617279206d697373696e67000000000000000000000000006044820152fd5b60649184519162461bcd60e51b8352820152600860248201527f6e6f2076616c75650000000000000000000000000000000000000000000000006044820152fd5b8380fd5b5050346100b057816003193601126100b0576020906002549051908152f35b905034610412576020600319360112610412573573ffffffffffffffffffffffffffffffffffffffff811680910361041257818360ff92602095526006855220541690519015158152f35b8280fd5b90503461041257826003193601126104125760209250549051908152f35b5050346100b057816003193601126100b05773ffffffffffffffffffffffffffffffffffffffff60209254169051908152f35b919050346104125780600319360112610412578135906024359273ffffffffffffffffffffffffffffffffffffffff9081851680950361059f576104af828754163314610726565b841561055c5783865260056020528286209283549283166105195750507fffffffffffffffffffffffff000000000000000000000000000000000000000016831790557f1c9f5621ee6f6af9be0e5ae206668daca7bdf54261404215d2da0b7920322fb08380a380f35b906020606492519162461bcd60e51b8352820152600660248201527f65786973747300000000000000000000000000000000000000000000000000006044820152fd5b606490602084519162461bcd60e51b8352820152600e60248201527f696e76616c69642077616c6c65740000000000000000000000000000000000006044820152fd5b8580fd5b90503461041257602060031936011261041257606092829135815260056020522090600182549201549060ff81519373ffffffffffffffffffffffffffffffffffffffff8116855260a01c1615156020840152820152f35b9050346104125781600319360112610412578035906024358015158091036107065773ffffffffffffffffffffffffffffffffffffffff90610641828754163314610726565b83865260056020528486209283549283169586156106c357505074ff00000000000000000000000000000000000000007fffffffffffffffffffffff00ffffffffffffffffffffffffffffffffffffffff9160a01b1691161790557f94e8681fba1879bf5310f5d1a71446dcdcb68feb7669a1c90fa28a28efc633e68380a380f35b906020606492519162461bcd60e51b8352820152600960248201527f6e6f7420666f756e6400000000000000000000000000000000000000000000006044820152fd5b8480fd5b8490346100b057816003193601126100b0576020906003548152f35b1561072d57565b606460405162461bcd60e51b815260206004820152600f60248201527f6f6e6c7920676f7665726e616e636500000000000000000000000000000000006044820152fd5b9190820180921161077e57565b634e487b7160e01b600052601160045260246000fdfea264697066735822122004900a2de1c279441d99e2321e6ab274a61ccc0df291707f9b541ae79385878864736f6c63430008180033",
  "linkReferences": {},
  "deployedLinkReferences": {}
}