{"contracts/MonadReliefV2.sol":{"MonadReliefV2":{"abi":[{"inputs":[{"internalType":"address","name":"_gov","type":"address"},{"internalType":"address","name":"_registry","type":"address"}],"stateMutability":"nonpayable","type":"constructor"},{"anonymous":false,"inputs":[{"indexed":true,"internalType":"bytes32","name":"beneficiaryId","type":"bytes32"},{"indexed":true,"internalType":"address","name":"wallet","type":"address"},{"indexed":false,"internalType":"uint256","name":"amount","type":"uint256"}],"name":"Disbursement","type":"event"},{"anonymous":false,"inputs":[{"indexed":true,"internalType":"address","name":"donor","type":"address"},{"indexed":false,"internalType":"uint256","name":"amount","type":"uint256"},{"indexed":true,"internalType":"bytes32","name":"beneficiaryId","type":"bytes32"}],"name":"Donation","type":"event"},{"inputs":[{"internalType":"bytes32","name":"beneficiaryId","type":"bytes32"}],"name":"donate","outputs":[],"stateMutability":"payable","type":"function"},{"inputs":[{"internalType":"address","name":"","type":"address"}],"name":"donorHasDonated","outputs":[{"internalType":"bool","name":"","type":"bool"}],"stateMutability":"view","type":"function"},{"inputs":[],"name":"governance","outputs":[{"internalType":"address","name":"","type":"address"}],"stateMutability":"view","type":"function"},{"inputs":[],"name":"registry","outputs":[{"internalType":"contract IBeneficiaryRegistry","name":"","type":"address"}],"stateMutability":"view","type":"function"},{"inputs":[],"name":"totalDisbursed","outputs":[{"internalType":"uint256","name":"","type":"uint256"}],"stateMutability":"view","type":"function"},{"inputs":[],"name":"totalDonationCount","outputs":[{"internalType":"uint256","name":"","type":"uint256"}],"stateMutability":"view","type":"function"},{"inputs":[],"name":"totalDonations","outputs":[{"internalType":"uint256","name":"","type":"uint256"}],"stateMutability":"view","type":"function"},{"inputs":[],"name":"uniqueDonorCount","outputs":[{"internalType":"uint256","name":"","type":"uint256"}],"stateMutability":"view","type":"function"}],"evm":{"bytecode":{"linkReferences":{},"object":"60803461008d57601f6106a338819003918201601f19168301916001600160401b0383118484101761009257808492604094855283398101031261008d57610052602061004b836100a8565b92016100a8565b600180546001600160a01b039384166001600160a01b031991821617909155600080549290931691161790556040516105e690816100bd8239f35b600080fd5b634e487b7160e01b600052604160045260246000fd5b51906001600160a01b038216820361008d5756fe608060408181526004918236101561001657600080fd5b600092833560e01c9182630b024f8714610539575081635aa6e67514610504578163603090bc146104e55781637b103999146104b257816387aa86c914610463578163bf95c78d14610444578163c37067fa1461009e575063de2ed8931461007d57600080fd5b3461009a578160031936011261009a576020906002549051908152f35b5080fd5b9190506020806003193601126104405782359134156103ff5773ffffffffffffffffffffffffffffffffffffffff9384865416948251957f48aefc32000000000000000000000000000000000000000000000000000000008752858388015260249685818981855afa9081156103f55789916103bb575b501561037a57908487928551988980927f095214580000000000000000000000000000000000000000000000000000000082528a888301525afa968715610370578897610334575b5086169586156102f3576101733460025461058d565b6002558254600181018091116102e15783553388526006855287848120805460ff81161561029e575b50508080809334905af13d15610299573d67ffffffffffffffff8111610287578451906101d287601f19601f8401160183610554565b815288863d92013e5b15610247575050907f8489523a0949d54d08ae65a8576d31d3b14c72c328a833f30dbb9d02505a77c0916102113460035461058d565b6003558381513481527f4653725aaef32330a11da5e47adc56343bba69a948d45aa8e3dbdd2c0b9bd6bb843392a351348152a380f35b606493600f9293519362461bcd60e51b85528401528201527f7472616e73666572206661696c656400000000000000000000000000000000006044820152fd5b8289604186634e487b7160e01b835252fd5b6101db565b60019192507fffffffffffffffffffffffffffffffffffffffffffffffffffffffffffffff0016179055600554600181018091116102e15760055587808061019c565b8289601186634e487b7160e01b835252fd5b5060649360099293519362461bcd60e51b85528401528201527f6e6f2077616c6c657400000000000000000000000000000000000000000000006044820152fd5b9096508481813d8311610369575b61034c8183610554565b810103126103655751868116810361036557953861015d565b8780fd5b503d610342565b84513d8a823e3d90fd5b606483600c898888519362461bcd60e51b85528401528201527f6e6f7420617070726f76656400000000000000000000000000000000000000006044820152fd5b90508581813d83116103ee575b6103d28183610554565b810103126103ea575180151581036103ea5738610115565b8880fd5b503d6103c8565b85513d8b823e3d90fd5b5162461bcd60e51b81529283015250600860248201527f6e6f2076616c75650000000000000000000000000000000000000000000000006044820152606490fd5b8380fd5b50503461009a578160031936011261009a576020906003549051908152f35b9050346104ae5760206003193601126104ae573573ffffffffffffffffffffffffffffffffffffffff81168091036104ae57818360ff92602095526006855220541690519015158152f35b8280fd5b50503461009a578160031936011261009a5773ffffffffffffffffffffffffffffffffffffffff60209254169051908152f35b50503461009a578160031936011261009a576020906005549051908152f35b50503461009a578160031936011261009a5760209073ffffffffffffffffffffffffffffffffffffffff600154169051908152f35b8491346104ae57826003193601126104ae5760209250548152f35b90601f601f19910116810190811067ffffffffffffffff82111761057757604052565b634e487b7160e01b600052604160045260246000fd5b9190820180921161059a57565b634e487b7160e01b600052601160045260246000fdfea2646970667358221220bc37eb4bf2179ec13a6a00dedc3a686740a36816e98124b7ef41fb662bca06e264736f6c63430008180033","opcodes":"PUSH1 0x80 CALLVALUE PUSH2 0x8D JUMPI PUSH1 0x1F PUSH2 0x6A3 CODESIZE DUP2 SWAP1 SUB SWAP2 DUP3 ADD PUSH1 0x1F NOT AND DUP4 ADD SWAP2 PUSH1 0x1 PUSH1 0x1 PUSH1 0x40 SHL SUB DUP4 GT DUP5 DUP5 LT OR PUSH2 0x92 JUMPI DUP1 DUP5 SWAP3 PUSH1 0x40 SWAP5 DUP6 MSTORE DUP4 CODECOPY DUP2 ADD SUB SLT PUSH2 0x8D JUMPI PUSH2 0x52 PUSH1 0x20 PUSH2 0x4B DUP4 PUSH2 0xA8 JUMP JUMPDEST SWAP3 ADD PUSH2 0xA8 JUMP JUMPDEST PUSH1 0x1 DUP1 SLOAD PUSH1 0x1 PUSH1 0x1 PUSH1 0xA0 SHL SUB SWAP4 DUP5 AND PUSH1 0x1 PUSH1 0x1 PUSH1 0xA0 SHL SUB NOT SWAP2 DUP3 AND OR SWAP1 SWAP2 SSTORE PUSH1 0x0 DUP1 SLOAD SWAP3 SWAP1 SWAP4 AND SWAP2 AND OR SWAP1 SSTORE PUSH1 0x40 MLOAD PUSH2 0x5E6 SWAP1 DUP2 PUSH2 0xBD DUP3 CODECOPY RETURN JUMPDEST PUSH1 0x0 DUP1 REVERT JUMPDEST PUSH4 0x4E487B71 PUSH1 0xE0 SHL PUSH1 0x0 MSTORE PUSH1 0x41 PUSH1 0x4 MSTORE PUSH1 0x24 PUSH1 0x0 REVERT JUMPDEST MLOAD SWAP1 PUSH1 0x1 PUSH1 0x1 PUSH1 0xA0 SHL SUB DUP3 AND DUP3 SUB PUSH2 0x8D JUMPI JUMP INVALID PUSH1 0x80 PUSH1 0x40 DUP2 DUP2 MSTORE PUSH1 0x4 SWAP2 DUP3 CALLDATASIZE LT ISZERO PUSH2 0x16 JUMPI PUSH1 0x0 DUP1 REVERT JUMPDEST PUSH1 0x0 SWAP3 DUP4 CALLDATALOAD PUSH1 0xE0 SHR SWAP2 DUP3 PUSH4 0xB024F87 EQ PUSH2 0x539 JUMPI POP DUP2 PUSH4 0x5AA6E675 EQ PUSH2 0x504 JUMPI DUP2 PUSH4 0x603090BC EQ PUSH2 0x4E5 JUMPI DUP2 PUSH4 0x7B103999 EQ PUSH2 0x4B2 JUMPI DUP2 PUSH4 0x87AA86C9 EQ PUSH2 0x463 JUMPI DUP2 PUSH4 0xBF95C78D EQ PUSH2 0x444 JUMPI DUP2 PUSH4 0xC37067FA EQ PUSH2 0x9E JUMPI POP PUSH4 0xDE2ED893 EQ PUSH2 0x7D JUMPI PUSH1 0x0 DUP1 REVERT JUMPDEST CALLVALUE PUSH2 0x9A JUMPI DUP2 PUSH1 0x3 NOT CALLDATASIZE ADD SLT PUSH2 0x9A JUMPI PUSH1 0x20 SWAP1 PUSH1 0x2 SLOAD SWAP1 MLOAD SWAP1 DUP2 MSTORE RETURN JUMPDEST POP DUP1 REVERT JUMPDEST SWAP2 SWAP1 POP PUSH1 0x20 DUP1 PUSH1 0x3 NOT CALLDATASIZE ADD SLT PUSH2 0x440 JUMPI DUP3 CALLDATALOAD SWAP2 CALLVALUE ISZERO PUSH2 0x3FF JUMPI PUSH20 0xFFFFFFFFFFFFFFFFFFFFFFFFFFFFFFFFFFFFFFFF SWAP4 DUP5 DUP7 SLOAD AND SWAP5 DUP3 MLOAD SWAP6 PUSH32 0x48AEFC3200000000000000000000000000000000000000000000000000000000 DUP8 MSTORE DUP6 DUP4 DUP9 ADD MSTORE PUSH1 0x24 SWAP7 DUP6 DUP2 DUP10 DUP2 DUP6 GAS STATICCALL SWAP1 DUP2 ISZERO PUSH2 0x3F5 JUMPI DUP10 SWAP2 PUSH2 0x3BB JUMPI JUMPDEST POP ISZERO PUSH2 0x37A JUMPI SWAP1 DUP5 DUP8 SWAP3 DUP6 MLOAD SWAP9 DUP10 DUP1 SWAP3 PUSH32 0x952145800000000000000000000000000000000000000000000000000000000 DUP3 MSTORE DUP11 DUP9 DUP4 ADD MSTORE GAS STATICCALL SWAP7 DUP8 ISZERO PUSH2 0x370 JUMPI DUP9 SWAP8 PUSH2 0x334 JUMPI JUMPDEST POP DUP7 AND SWAP6 DUP7 ISZERO PUSH2 0x2F3 JUMPI PUSH2 0x173 CALLVALUE PUSH1 0x2 SLOAD PUSH2 0x58D JUMP JUMPDEST PUSH1 0x2 SSTORE DUP3 SLOAD PUSH1 0x1 DUP2 ADD DUP1 SWAP2 GT PUSH2 0x2E1 JUMPI DUP4 SSTORE CALLER DUP9 MSTORE PUSH1 0x6 DUP6 MSTORE DUP8 DUP5 DUP2 KECCAK256 DUP1 SLOAD PUSH1 0xFF DUP2 AND ISZERO PUSH2 0x29E JUMPI JUMPDEST POP POP DUP1 DUP1 DUP1 SWAP4 CALLVALUE SWAP1 GAS CALL RETURNDATASIZE ISZERO PUSH2 0x299 JUMPI RETURNDATASIZE PUSH8 0xFFFFFFFFFFFFFFFF DUP2 GT PUSH2 0x287 JUMPI DUP5 MLOAD SWAP1 PUSH2 0x1D2 DUP8 PUSH1 0x1F NOT PUSH1 0x1F DUP5 ADD AND ADD DUP4 PUSH2 0x554 JUMP JUMPDEST DUP2 MSTORE DUP9 DUP7 RETURNDATASIZE SWAP3 ADD RETURNDATACOPY JUMPDEST ISZERO PUSH2 0x247 JUMPI POP POP SWAP1 PUSH32 0x8489523A0949D54D08AE65A8576D31D3B14C72C328A833F30DBB9D02505A77C0 SWAP2 PUSH2 0x211 CALLVALUE PUSH1 0x3 SLOAD PUSH2 0x58D JUMP JUMPDEST PUSH1 0x3 SSTORE DUP4 DUP2 MLOAD CALLVALUE DUP2 MSTORE PUSH32 0x4653725AAEF32330A11DA5E47ADC56343BBA69A948D45AA8E3DBDD2C0B9BD6BB DUP5 CALLER SWAP3 LOG3 MLOAD CALLVALUE DUP2 MSTORE LOG3 DUP1 RETURN JUMPDEST PUSH1 0x64 SWAP4 PUSH1 0xF SWAP3 SWAP4 MLOAD SWAP4 PUSH3 0x461BCD PUSH1 0xE5 SHL DUP6 MSTORE DUP5 ADD MSTORE DUP3 ADD MSTORE PUSH32 0x7472616E73666572206661696C65640000000000000000000000000000000000 PUSH1 0x44 DUP3 ADD MSTORE REVERT JUMPDEST DUP3 DUP10 PUSH1 0x41 DUP7 PUSH4 0x4E487B71 PUSH1 0xE0 SHL DUP4 MSTORE MSTORE REVERT JUMPDEST PUSH2 0x1DB JUMP JUMPDEST PUSH1 0x1 SWAP2 SWAP3 POP PUSH32 0xFFFFFFFFFFFFFFFFFFFFFFFFFFFFFFFFFFFFFFFFFFFFFFFFFFFFFFFFFFFFFF00 AND OR SWAP1 SSTORE PUSH1 0x5 SLOAD PUSH1 0x1 DUP2 ADD DUP1 SWAP2 GT PUSH2 0x2E1 JUMPI PUSH1 0x5 SSTORE DUP8 DUP1 DUP1 PUSH2 0x19C JUMP JUMPDEST DUP3 DUP10 PUSH1 0x11 DUP7 PUSH4 0x4E487B71 PUSH1 0xE0 SHL DUP4 MSTORE MSTORE REVERT JUMPDEST POP PUSH1 0x64 SWAP4 PUSH1 0x9 SWAP3 SWAP4 MLOAD SWAP4 PUSH3 0x461BCD PUSH1 0xE5 SHL DUP6 MSTORE DUP5 ADD MSTORE DUP3 ADD MSTORE PUSH32 0x6E6F2077616C6C65740000000000000000000000000000000000000000000000 PUSH1 0x44 DUP3 ADD MSTORE REVERT JUMPDEST SWAP1 SWAP7 POP DUP5 DUP2 DUP2 RETURNDATASIZE DUP4 GT PUSH2 0x369 JUMPI JUMPDEST PUSH2 0x34C DUP2 DUP4 PUSH2 0x554 JUMP JUMPDEST DUP2 ADD SUB SLT PUSH2 0x365 JUMPI MLOAD DUP7 DUP2 AND DUP2 SUB PUSH2 0x365 JUMPI SWAP6 CODESIZE PUSH2 0x15D JUMP JUMPDEST DUP8 DUP1 REVERT JUMPDEST POP RETURNDATASIZE PUSH2 0x342 JUMP JUMPDEST DUP5 MLOAD RETURNDATASIZE DUP11 DUP3 RETURNDATACOPY RETURNDATASIZE SWAP1 REVERT JUMPDEST PUSH1 0x64 DUP4 PUSH1 0xC DUP10 DUP9 DUP9 MLOAD SWAP4 PUSH3 0x461BCD PUSH1 0xE5 SHL DUP6 MSTORE DUP5 ADD MSTORE DUP3 ADD MSTORE PUSH32 0x6E6F7420617070726F7665640000000000000000000000000000000000000000 PUSH1 0x44 DUP3 ADD MSTORE REVERT JUMPDEST SWAP1 POP DUP6 DUP2 DUP2 RETURNDATASIZE DUP4 GT PUSH2 0x3EE JUMPI JUMPDEST PUSH2 0x3D2 DUP2 DUP4 PUSH2 0x554 JUMP JUMPDEST DUP2 ADD SUB SLT PUSH2 0x3EA JUMPI MLOAD DUP1 ISZERO ISZERO DUP2 SUB PUSH2 0x3EA JUMPI CODESIZE PUSH2 0x115 JUMP JUMPDEST DUP9 DUP1 REVERT JUMPDEST POP RETURNDATASIZE PUSH2 0x3C8 JUMP JUMPDEST DUP6 MLOAD RETURNDATASIZE DUP12 DUP3 RETURNDATACOPY RETURNDATASIZE SWAP1 REVERT JUMPDEST MLOAD PUSH3 0x461BCD PUSH1 0xE5 SHL DUP2 MSTORE SWAP3 DUP4 ADD MSTORE POP PUSH1 0x8 PUSH1 0x24 DUP3 ADD MSTORE PUSH32 0x6E6F2076616C7565000000000000000000000000000000000000000000000000 PUSH1 0x44 DUP3 ADD MSTORE PUSH1 0x64 SWAP1 REVERT JUMPDEST DUP4 DUP1 REVERT JUMPDEST POP POP CALLVALUE PUSH2 0x9A JUMPI DUP2 PUSH1 0x3 NOT CALLDATASIZE ADD SLT PUSH2 0x9A JUMPI PUSH1 0x20 SWAP1 PUSH1 0x3 SLOAD SWAP1 MLOAD SWAP1 DUP2 MSTORE RETURN JUMPDEST SWAP1 POP CALLVALUE PUSH2 0x4AE JUMPI PUSH1 0x20 PUSH1 0x3 NOT CALLDATASIZE ADD SLT PUSH2 0x4AE JUMPI CALLDATALOAD PUSH20 0xFFFFFFFFFFFFFFFFFFFFFFFFFFFFFFFFFFFFFFFF DUP2 AND DUP1 SWAP2 SUB PUSH2 0x4AE JUMPI DUP2 DUP4 PUSH1 0xFF SWAP3 PUSH1 0x20 SWAP6 MSTORE PUSH1 0x6 DUP6 MSTORE KECCAK256 SLOAD AND SWAP1 MLOAD SWAP1 ISZERO ISZERO DUP2 MSTORE RETURN JUMPDEST DUP3 DUP1 REVERT JUMPDEST POP POP CALLVALUE PUSH2 0x9A JUMPI DUP2 PUSH1 0x3 NOT CALLDATASIZE ADD SLT PUSH2 0x9A JUMPI PUSH20 0xFFFFFFFFFFFFFFFFFFFFFFFFFFFFFFFFFFFFFFFF PUSH1 0x20 SWAP3 SLOAD AND SWAP1 MLOAD SWAP1 DUP2 MSTORE RETURN JUMPDEST POP POP CALLVALUE PUSH2 0x9A JUMPI DUP2 PUSH1 0x3 NOT CALLDATASIZE ADD SLT PUSH2 0x9A JUMPI PUSH1 0x20 SWAP1 PUSH1 0x5 SLOAD SWAP1 MLOAD SWAP1 DUP2 MSTORE RETURN JUMPDEST POP POP CALLVALUE PUSH2 0x9A JUMPI DUP2 PUSH1 0x3 NOT CALLDATASIZE ADD SLT PUSH2 0x9A JUMPI PUSH1 0x20 SWAP1 PUSH20 0xFFFFFFFFFFFFFFFFFFFFFFFFFFFFFFFFFFFFFFFF PUSH1 0x1 SLOAD AND SWAP1 MLOAD SWAP1 DUP2 MSTORE RETURN JUMPDEST DUP5 SWAP2 CALLVALUE PUSH2 0x4AE JUMPI DUP3 PUSH1 0x3 NOT CALLDATASIZE ADD SLT PUSH2 0x4AE JUMPI PUSH1 0x20 SWAP3 POP SLOAD DUP2 MSTORE RETURN JUMPDEST SWAP1 PUSH1 0x1F PUSH1 0x1F NOT SWAP2 ADD AND DUP2 ADD SWAP1 DUP2 LT PUSH8 0xFFFFFFFFFFFFFFFF DUP3 GT OR PUSH2 0x577 JUMPI PUSH1 0x40 MSTORE JUMP JUMPDEST PUSH4 0x4E487B71 PUSH1 0xE0 SHL PUSH1 0x0 MSTORE PUSH1 0x41 PUSH1 0x4 MSTORE PUSH1 0x24 PUSH1 0x0 REVERT JUMPDEST SWAP2 SWAP1 DUP3 ADD DUP1 SWAP3 GT PUSH2 0x59A JUMPI JUMP JUMPDEST PUSH4 0x4E487B71 PUSH1 0xE0 SHL PUSH1 0x0 MSTORE PUSH1 0x11 PUSH1 0x4 MSTORE PUSH1 0x24 PUSH1 0x0 REVERT INVALID LOG2 PUSH5 0x6970667358 0x22 SLT KECCAK256 0xBC CALLDATACOPY 0xEB 0x4B CALLCODE OR SWAP15 0xC1 GASPRICE PUSH11 0xDEDC3A686740A36816E9 DUP2 0x24 0xB7 0xEF COINBASE 0xFB PUSH7 0x2BCA06E264736F PUSH13 0x63430008180033000000000000 "},"methodIdentifiers":{"donate(bytes32)":"c37067fa","donorHasDonated(address)":"87aa86c9","governance()":"5aa6e675","registry()":"7b103999","totalDisbursed()":"bf95c78d","totalDonationCount()":"0b024f87","totalDonations()":"de2ed893","uniqueDonorCount()":"603090bc"}}}}}