{"contracts/MonadReliefERC20.sol":{"MonadReliefERC20":{"abi":[{"inputs":[{"internalType":"address","name":"_gov","type":"address"},{"internalType":"address","name":"_registry","type":"address"},{"internalType":"address","name":"_token","type":"address"}],"stateMutability":"nonpayable","type":"constructor"},{"anonymous":false,"inputs":[{"indexed":true,"internalType":"bytes32","name":"beneficiaryId","type":"bytes32"},{"indexed":true,"internalType":"address","name":"wallet","type":"address"},{"indexed":false,"internalType":"uint256","name":"amount","type":"uint256"}],"name":"Disbursement","type":"event"},{"anonymous":false,"inputs":[{"indexed":true,"internalType":"address","name":"donor","type":"address"},{"indexed":false,"internalType":"uint256","name":"amount","type":"uint256"},{"indexed":true,"internalType":"bytes32","name":"beneficiaryId","type":"bytes32"}],"name":"Donation","type":"event"},{"inputs":[{"internalType":"bytes32","name":"beneficiaryId","type":"bytes32"},{"internalType":"uint256","name":"amount","type":"uint256"}],"name":"donate","outputs":[],"stateMutability":"nonpayable","type":"function"},{"inputs":[{"internalType":"address","name":"","type":"address"}],"name":"donorHasDonated","outputs":[{"internalType":"bool","name":"","type":"bool"}],"stateMutability":"view","type":"function"},{"inputs":[],"name":"governance","outputs":[{"internalType":"address","name":"","type":"address"}],"stateMutability":"view","type":"function"},{"inputs":[],"name":"registry","outputs":[{"internalType":"contract IBeneficiaryRegistryErc20","name":"","type":"address"}],"stateMutability":"view","type":"function"},{"inputs":[],"name":"stablecoin","outputs":[{"internalType":"contract IERC20","name":"","type":"address"}],"stateMutability":"view","type":"function"},{"inputs":[],"name":"totalDisbursed","outputs":[{"internalType":"uint256","name":"","type":"uint256"}],"stateMutability":"view","type":"function"},{"inputs":[],"name":"totalDonationCount","outputs":[{"internalType":"uint256","name":"","type":"uint256"}],"stateMutability":"view","type":"function"},{"inputs":[],"name":"totalDonations","outputs":[{"internalType":"uint256","name":"","type":"uint256"}],"stateMutability":"view","type":"function"},{"inputs":[],"name":"uniqueDonorCount","outputs":[{"internalType":"uint256","name":"","type":"uint256"}],"stateMutability":"view","type":"function"}],"evm":{"bytecode":{"linkReferences":{},"object":"6080346100a057601f61074e38819003918201601f19168301916001600160401b038311848410176100a5578084926060946040528339810103126100a057610047816100bb565b906100606040610059602084016100bb565b92016100bb565b60018060a01b0380928160018060a01b03199516856001541617600155168360005416176000551690600254161760025560405161067e90816100d08239f35b600080fd5b634e487b7160e01b600052604160045260246000fd5b51906001600160a01b03821682036100a05756fe608060408181526004918236101561001657600080fd5b600092833560e01c9182630b024f8714610595575081635aa6e67514610560578163603090bc1461054157816376557a191461017d5781637b1039991461014a57816387aa86c9146100ff578163bf95c78d146100dd57508063de2ed893146100bf5763e9cbd8221461008857600080fd5b346100bb57816003193601126100bb5760209073ffffffffffffffffffffffffffffffffffffffff600254169051908152f35b5080fd5b50346100bb57816003193601126100bb576020906003549051908152f35b9050346100fb57826003193601126100fb5760209250549051908152f35b8280fd5b9050346100fb5760206003193601126100fb573573ffffffffffffffffffffffffffffffffffffffff81168091036100fb57818360ff92602095526007855220541690519015158152f35b5050346100bb57816003193601126100bb5773ffffffffffffffffffffffffffffffffffffffff60209254169051908152f35b919050346100fb57806003193601126100fb5781359060249081359081156105005773ffffffffffffffffffffffffffffffffffffffff9485875416938251947f48aefc32000000000000000000000000000000000000000000000000000000008652868387015260209586818481855afa9081156104f6578a916104d9575b5015610498578582918551928380927f095214580000000000000000000000000000000000000000000000000000000082528b888301525afa9081156103b4579088918a9161045a575b50169687156104195761025c85600354610625565b60035560055460018101809111610407578991879160055533835260078252858320805460ff8116156103be575b50506002541660648651809481937f23b872dd00000000000000000000000000000000000000000000000000000000835233898401528d888401528a60448401525af19081156103b4578991610387575b501561034757509081610312847f8489523a0949d54d08ae65a8576d31d3b14c72c328a833f30dbb9d02505a77c096959454610625565b90558481518381527f4653725aaef32330a11da5e47adc56343bba69a948d45aa8e3dbdd2c0b9bd6bb853392a351908152a380f35b600f9085606494519362461bcd60e51b85528401528201527f7472616e73666572206661696c656400000000000000000000000000000000006044820152fd5b6103a79150863d88116103ad575b61039f81836105b1565b810190610608565b386102db565b503d610395565b84513d8b823e3d90fd5b60019294507fffffffffffffffffffffffffffffffffffffffffffffffffffffffffffffff0091935016179055600654600181018091116104075789918791600655388061028a565b828a601186634e487b7160e01b835252fd5b5060099085606494519362461bcd60e51b85528401528201527f6e6f2077616c6c657400000000000000000000000000000000000000000000006044820152fd5b809250878092503d8311610491575b61047381836105b1565b8101031261048d5751878116810361048d57879038610247565b8880fd5b503d610469565b50600c9085606494519362461bcd60e51b85528401528201527f6e6f7420617070726f76656400000000000000000000000000000000000000006044820152fd5b6104f09150873d89116103ad5761039f81836105b1565b386101fd565b85513d8c823e3d90fd5b5162461bcd60e51b81526020818601526008818401527f6e6f2076616c75650000000000000000000000000000000000000000000000006044820152606490fd5b5050346100bb57816003193601126100bb576020906006549051908152f35b5050346100bb57816003193601126100bb5760209073ffffffffffffffffffffffffffffffffffffffff600154169051908152f35b8490346100bb57816003193601126100bb576020906005548152f35b90601f7fffffffffffffffffffffffffffffffffffffffffffffffffffffffffffffffe0910116810190811067ffffffffffffffff8211176105f257604052565b634e487b7160e01b600052604160045260246000fd5b90816020910312610620575180151581036106205790565b600080fd5b9190820180921161063257565b634e487b7160e01b600052601160045260246000fdfea26469706673582212205e7393f90fbbc45934e160fc692f6373ed9c482187ed0397bff92e5eaa24b48364736f6c63430008180033","opcodes":"PUSH1 0x80 CALLVALUE PUSH2 0xA0 JUMPI PUSH1 0x1F PUSH2 0x74E CODESIZE DUP2 SWAP1 SUB SWAP2 DUP3 ADD PUSH1 0x1F NOT AND DUP4 ADD SWAP2 PUSH1 0x1 PUSH1 0x1 PUSH1 0x40 SHL SUB DUP4 GT DUP5 DUP5 LT OR PUSH2 0xA5 JUMPI DUP1 DUP5 SWAP3 PUSH1 0x60 SWAP5 PUSH1 0x40 MSTORE DUP4 CODECOPY DUP2 ADD SUB SLT PUSH2 0xA0 JUMPI PUSH2 0x47 DUP2 PUSH2 0xBB JUMP JUMPDEST SWAP1 PUSH2 0x60 PUSH1 0x40 PUSH2 0x59 PUSH1 0x20 DUP5 ADD PUSH2 0xBB JUMP JUMPDEST SWAP3 ADD PUSH2 0xBB JUMP JUMPDEST PUSH1 0x1 DUP1 PUSH1 0xA0 SHL SUB DUP1 SWAP3 DUP2 PUSH1 0x1 DUP1 PUSH1 0xA0 SHL SUB NOT SWAP6 AND DUP6 PUSH1 0x1 SLOAD AND OR PUSH1 0x1 SSTORE AND DUP4 PUSH1 0x0 SLOAD AND OR PUSH1 0x0 SSTORE AND SWAP1 PUSH1 0x2 SLOAD AND OR PUSH1 0x2 SSTORE PUSH1 0x40 MLOAD PUSH2 0x67E SWAP1 DUP2 PUSH2 0xD0 DUP3 CODECOPY RETURN JUMPDEST PUSH1 0x0 DUP1 REVERT JUMPDEST PUSH4 0x4E487B71 PUSH1 0xE0 SHL PUSH1 0x0 MSTORE PUSH1 0x41 PUSH1 0x4 MSTORE PUSH1 0x24 PUSH1 0x0 REVERT JUMPDEST MLOAD SWAP1 PUSH1 0x1 PUSH1 0x1 PUSH1 0xA0 SHL SUB DUP3 AND DUP3 SUB PUSH2 0xA0 JUMPI JUMP INVALID PUSH1 0x80 PUSH1 0x40 DUP2 DUP2 MSTORE PUSH1 0x4 SWAP2 DUP3 CALLDATASIZE LT ISZERO PUSH2 0x16 JUMPI PUSH1 0x0 DUP1 REVERT JUMPDEST PUSH1 0x0 SWAP3 DUP4 CALLDATALOAD PUSH1 0xE0 SHR SWAP2 DUP3 PUSH4 0xB024F87 EQ PUSH2 0x595 JUMPI POP DUP2 PUSH4 0x5AA6E675 EQ PUSH2 0x560 JUMPI DUP2 PUSH4 0x603090BC EQ PUSH2 0x541 JUMPI DUP2 PUSH4 0x76557A19 EQ PUSH2 0x17D JUMPI DUP2 PUSH4 0x7B103999 EQ PUSH2 0x14A JUMPI DUP2 PUSH4 0x87AA86C9 EQ PUSH2 0xFF JUMPI DUP2 PUSH4 0xBF95C78D EQ PUSH2 0xDD JUMPI POP DUP1 PUSH4 0xDE2ED893 EQ PUSH2 0xBF JUMPI PUSH4 0xE9CBD822 EQ PUSH2 0x88 JUMPI PUSH1 0x0 DUP1 REVERT JUMPDEST CALLVALUE PUSH2 0xBB JUMPI DUP2 PUSH1 0x3 NOT CALLDATASIZE ADD SLT PUSH2 0xBB JUMPI PUSH1 0x20 SWAP1 PUSH20 0xFFFFFFFFFFFFFFFFFFFFFFFFFFFFFFFFFFFFFFFF PUSH1 0x2 SLOAD AND SWAP1 MLOAD SWAP1 DUP2 MSTORE RETURN JUMPDEST POP DUP1 REVERT JUMPDEST POP CALLVALUE PUSH2 0xBB JUMPI DUP2 PUSH1 0x3 NOT CALLDATASIZE ADD SLT PUSH2 0xBB JUMPI PUSH1 0x20 SWAP1 PUSH1 0x3 SLOAD SWAP1 MLOAD SWAP1 DUP2 MSTORE RETURN JUMPDEST SWAP1 POP CALLVALUE PUSH2 0xFB JUMPI DUP3 PUSH1 0x3 NOT CALLDATASIZE ADD SLT PUSH2 0xFB JUMPI PUSH1 0x20 SWAP3 POP SLOAD SWAP1 MLOAD SWAP1 DUP2 MSTORE RETURN JUMPDEST DUP3 DUP1 REVERT JUMPDEST SWAP1 POP CALLVALUE PUSH2 0xFB JUMPI PUSH1 0x20 PUSH1 0x3 NOT CALLDATASIZE ADD SLT PUSH2 0xFB JUMPI CALLDATALOAD PUSH20 0xFFFFFFFFFFFFFFFFFFFFFFFFFFFFFFFFFFFFFFFF DUP2 AND DUP1 SWAP2 SUB PUSH2 0xFB JUMPI DUP2 DUP4 PUSH1 0xFF SWAP3 PUSH1 0x20 SWAP6 MSTORE PUSH1 0x7 DUP6 MSTORE KECCAK256 SLOAD AND SWAP1 MLOAD SWAP1 ISZERO ISZERO DUP2 MSTORE RETURN JUMPDEST POP POP CALLVALUE PUSH2 0xBB JUMPI DUP2 PUSH1 0x3 NOT CALLDATASIZE ADD SLT PUSH2 0xBB JUMPI PUSH20 0xFFFFFFFFFFFFFFFFFFFFFFFFFFFFFFFFFFFFFFFF PUSH1 0x20 SWAP3 SLOAD AND SWAP1 MLOAD SWAP1 DUP2 MSTORE RETURN JUMPDEST SWAP2 SWAP1 POP CALLVALUE PUSH2 0xFB JUMPI DUP1 PUSH1 0x3 NOT CALLDATASIZE ADD SLT PUSH2 0xFB JUMPI DUP2 CALLDATALOAD SWAP1 PUSH1 0x24 SWAP1 DUP2 CALLDATALOAD SWAP1 DUP2 ISZERO PUSH2 0x500 JUMPI PUSH20 0xFFFFFFFFFFFFFFFFFFFFFFFFFFFFFFFFFFFFFFFF SWAP5 DUP6 DUP8 SLOAD AND SWAP4 DUP3 MLOAD SWAP5 PUSH32 0x48AEFC3200000000000000000000000000000000000000000000000000000000 DUP7 MSTORE DUP7 DUP4 DUP8 ADD MSTORE PUSH1 0x20 SWAP6 DUP7 DUP2 DUP5 DUP2 DUP6 GAS STATICCALL SWAP1 DUP2 ISZERO PUSH2 0x4F6 JUMPI DUP11 SWAP2 PUSH2 0x4D9 JUMPI JUMPDEST POP ISZERO PUSH2 0x498 JUMPI DUP6 DUP3 SWAP2 DUP6 MLOAD SWAP3 DUP4 DUP1 SWAP3 PUSH32 0x952145800000000000000000000000000000000000000000000000000000000 DUP3 MSTORE DUP12 DUP9 DUP4 ADD MSTORE GAS STATICCALL SWAP1 DUP2 ISZERO PUSH2 0x3B4 JUMPI SWAP1 DUP9 SWAP2 DUP11 SWAP2 PUSH2 0x45A JUMPI JUMPDEST POP AND SWAP7 DUP8 ISZERO PUSH2 0x419 JUMPI PUSH2 0x25C DUP6 PUSH1 0x3 SLOAD PUSH2 0x625 JUMP JUMPDEST PUSH1 0x3 SSTORE PUSH1 0x5 SLOAD PUSH1 0x1 DUP2 ADD DUP1 SWAP2 GT PUSH2 0x407 JUMPI DUP10 SWAP2 DUP8 SWAP2 PUSH1 0x5 SSTORE CALLER DUP4 MSTORE PUSH1 0x7 DUP3 MSTORE DUP6 DUP4 KECCAK256 DUP1 SLOAD PUSH1 0xFF DUP2 AND ISZERO PUSH2 0x3BE JUMPI JUMPDEST POP POP PUSH1 0x2 SLOAD AND PUSH1 0x64 DUP7 MLOAD DUP1 SWAP5 DUP2 SWAP4 PUSH32 0x23B872DD00000000000000000000000000000000000000000000000000000000 DUP4 MSTORE CALLER DUP10 DUP5 ADD MSTORE DUP14 DUP9 DUP5 ADD MSTORE DUP11 PUSH1 0x44 DUP5 ADD MSTORE GAS CALL SWAP1 DUP2 ISZERO PUSH2 0x3B4 JUMPI DUP10 SWAP2 PUSH2 0x387 JUMPI JUMPDEST POP ISZERO PUSH2 0x347 JUMPI POP SWAP1 DUP2 PUSH2 0x312 DUP5 PUSH32 0x8489523A0949D54D08AE65A8576D31D3B14C72C328A833F30DBB9D02505A77C0 SWAP7 SWAP6 SWAP5 SLOAD PUSH2 0x625 JUMP JUMPDEST SWAP1 SSTORE DUP5 DUP2 MLOAD DUP4 DUP2 MSTORE PUSH32 0x4653725AAEF32330A11DA5E47ADC56343BBA69A948D45AA8E3DBDD2C0B9BD6BB DUP6 CALLER SWAP3 LOG3 MLOAD SWAP1 DUP2 MSTORE LOG3 DUP1 RETURN JUMPDEST PUSH1 0xF SWAP1 DUP6 PUSH1 0x64 SWAP5 MLOAD SWAP4 PUSH3 0x461BCD PUSH1 0xE5 SHL DUP6 MSTORE DUP5 ADD MSTORE DUP3 ADD MSTORE PUSH32 0x7472616E73666572206661696C65640000000000000000000000000000000000 PUSH1 0x44 DUP3 ADD MSTORE REVERT JUMPDEST PUSH2 0x3A7 SWAP2 POP DUP7 RETURNDATASIZE DUP9 GT PUSH2 0x3AD JUMPI JUMPDEST PUSH2 0x39F DUP2 DUP4 PUSH2 0x5B1 JUMP JUMPDEST DUP2 ADD SWAP1 PUSH2 0x608 JUMP JUMPDEST CODESIZE PUSH2 0x2DB JUMP JUMPDEST POP RETURNDATASIZE PUSH2 0x395 JUMP JUMPDEST DUP5 MLOAD RETURNDATASIZE DUP12 DUP3 RETURNDATACOPY RETURNDATASIZE SWAP1 REVERT JUMPDEST PUSH1 0x1 SWAP3 SWAP5 POP PUSH32 0xFFFFFFFFFFFFFFFFFFFFFFFFFFFFFFFFFFFFFFFFFFFFFFFFFFFFFFFFFFFFFF00 SWAP2 SWAP4 POP AND OR SWAP1 SSTORE PUSH1 0x6 SLOAD PUSH1 0x1 DUP2 ADD DUP1 SWAP2 GT PUSH2 0x407 JUMPI DUP10 SWAP2 DUP8 SWAP2 PUSH1 0x6 SSTORE CODESIZE DUP1 PUSH2 0x28A JUMP JUMPDEST DUP3 DUP11 PUSH1 0x11 DUP7 PUSH4 0x4E487B71 PUSH1 0xE0 SHL DUP4 MSTORE MSTORE REVERT JUMPDEST POP PUSH1 0x9 SWAP1 DUP6 PUSH1 0x64 SWAP5 MLOAD SWAP4 PUSH3 0x461BCD PUSH1 0xE5 SHL DUP6 MSTORE DUP5 ADD MSTORE DUP3 ADD MSTORE PUSH32 0x6E6F2077616C6C65740000000000000000000000000000000000000000000000 PUSH1 0x44 DUP3 ADD MSTORE REVERT JUMPDEST DUP1 SWAP3 POP DUP8 DUP1 SWAP3 POP RETURNDATASIZE DUP4 GT PUSH2 0x491 JUMPI JUMPDEST PUSH2 0x473 DUP2 DUP4 PUSH2 0x5B1 JUMP JUMPDEST DUP2 ADD SUB SLT PUSH2 0x48D JUMPI MLOAD DUP8 DUP2 AND DUP2 SUB PUSH2 0x48D JUMPI DUP8 SWAP1 CODESIZE PUSH2 0x247 JUMP JUMPDEST DUP9 DUP1 REVERT JUMPDEST POP RETURNDATASIZE PUSH2 0x469 JUMP JUMPDEST POP PUSH1 0xC SWAP1 DUP6 PUSH1 0x64 SWAP5 MLOAD SWAP4 PUSH3 0x461BCD PUSH1 0xE5 SHL DUP6 MSTORE DUP5 ADD MSTORE DUP3 ADD MSTORE PUSH32 0x6E6F7420617070726F7665640000000000000000000000000000000000000000 PUSH1 0x44 DUP3 ADD MSTORE REVERT JUMPDEST PUSH2 0x4F0 SWAP2 POP DUP8 RETURNDATASIZE DUP10 GT PUSH2 0x3AD JUMPI PUSH2 0x39F DUP2 DUP4 PUSH2 0x5B1 JUMP JUMPDEST CODESIZE PUSH2 0x1FD JUMP JUMPDEST DUP6 MLOAD RETURNDATASIZE DUP13 DUP3 RETURNDATACOPY RETURNDATASIZE SWAP1 REVERT JUMPDEST MLOAD PUSH3 0x461BCD PUSH1 0xE5 SHL DUP2 MSTORE PUSH1 0x20 DUP2 DUP7 ADD MSTORE PUSH1 0x8 DUP2 DUP5 ADD MSTORE PUSH32 0x6E6F2076616C7565000000000000000000000000000000000000000000000000 PUSH1 0x44 DUP3 ADD MSTORE PUSH1 0x64 SWAP1 REVERT JUMPDEST POP POP CALLVALUE PUSH2 0xBB JUMPI DUP2 PUSH1 0x3 NOT CALLDATASIZE ADD SLT PUSH2 0xBB JUMPI PUSH1 0x20 SWAP1 PUSH1 0x6 SLOAD SWAP1 MLOAD SWAP1 DUP2 MSTORE RETURN JUMPDEST POP POP CALLVALUE PUSH2 0xBB JUMPI DUP2 PUSH1 0x3 NOT CALLDATASIZE ADD SLT PUSH2 0xBB JUMPI PUSH1 0x20 SWAP1 PUSH20 0xFFFFFFFFFFFFFFFFFFFFFFFFFFFFFFFFFFFFFFFF PUSH1 0x1 SLOAD AND SWAP1 MLOAD SWAP1 DUP2 MSTORE RETURN JUMPDEST DUP5 SWAP1 CALLVALUE PUSH2 0xBB JUMPI DUP2 PUSH1 0x3 NOT CALLDATASIZE ADD SLT PUSH2 0xBB JUMPI PUSH1 0x20 SWAP1 PUSH1 0x5 SLOAD DUP2 MSTORE RETURN JUMPDEST SWAP1 PUSH1 0x1F PUSH32 0xFFFFFFFFFFFFFFFFFFFFFFFFFFFFFFFFFFFFFFFFFFFFFFFFFFFFFFFFFFFFFFE0 SWAP2 ADD AND DUP2 ADD SWAP1 DUP2 LT PUSH8 0xFFFFFFFFFFFFFFFF DUP3 GT OR PUSH2 0x5F2 JUMPI PUSH1 0x40 MSTORE JUMP JUMPDEST PUSH4 0x4E487B71 PUSH1 0xE0 SHL PUSH1 0x0 MSTORE PUSH1 0x41 PUSH1 0x4 MSTORE PUSH1 0x24 PUSH1 0x0 REVERT JUMPDEST SWAP1 DUP2 PUSH1 0x20 SWAP2 SUB SLT PUSH2 0x620 JUMPI MLOAD DUP1 ISZERO ISZERO DUP2 SUB PUSH2 0x620 JUMPI SWAP1 JUMP JUMPDEST PUSH1 0x0 DUP1 REVERT JUMPDEST SWAP2 SWAP1 DUP3 ADD DUP1 SWAP3 GT PUSH2 0x632 JUMPI JUMP JUMPDEST PUSH4 0x4E487B71 PUSH1 0xE0 SHL PUSH1 0x0 MSTORE PUSH1 0x11 PUSH1 0x4 MSTORE PUSH1 0x24 PUSH1 0x0 REVERT INVALID LOG2 PUSH5 0x6970667358 0x22 SLT KECCAK256 MCOPY PUSH20 0x93F90FBBC45934E160FC692F6373ED9C482187ED SUB SWAP8 0xBF 0xF9 0x2E MCOPY 0xAA 0x24 0xB4 DUP4 PUSH5 0x736F6C6343 STOP ADDMOD XOR STOP CALLER "},"methodIdentifiers":{"donate(bytes32,uint256)":"76557a19","donorHasDonated(address)":"87aa86c9","governance()":"5aa6e675","registry()":"7b103999","stablecoin()":"e9cbd822","totalDisbursed()":"bf95c78d","totalDonationCount()":"0b024f87","totalDonations()":"de2ed893","uniqueDonorCount()":"603090bc"}}}}}