{"contracts/BeneficiaryRegistry.sol":{"BeneficiaryRegistry":{"abi":[{"inputs":[{"internalType":"address","name":"_gov","type":"address"},{"internalType":"address","name":"_govReg","type":"address"},{"internalType":"address","name":"_jury","type":"address"}],"stateMutability":"nonpayable","type":"constructor"},{"anonymous":false,"inputs":[{"indexed":true,"internalType":"bytes32","name":"beneficiaryId","type":"bytes32"},{"indexed":true,"internalType":"address","name":"wallet","type":"address"},{"indexed":false,"internalType":"bytes32","name":"disasterId","type":"bytes32"},{"indexed":false,"internalType":"bytes32","name":"docHash","type":"bytes32"}],"name":"ClaimSubmitted","type":"event"},{"anonymous":false,"inputs":[{"indexed":true,"internalType":"bytes32","name":"beneficiaryId","type":"bytes32"},{"indexed":true,"internalType":"address","name":"official","type":"address"}],"name":"GovApproved","type":"event"},{"anonymous":false,"inputs":[{"indexed":true,"internalType":"bytes32","name":"beneficiaryId","type":"bytes32"},{"indexed":false,"internalType":"bool","name":"approved","type":"bool"}],"name":"JuryFinalized","type":"event"},{"inputs":[{"internalType":"bytes32","name":"","type":"bytes32"}],"name":"claims","outputs":[{"internalType":"address","name":"wallet","type":"address"},{"internalType":"bytes32","name":"disasterId","type":"bytes32"},{"internalType":"bytes32","name":"docHash","type":"bytes32"},{"internalType":"bool","name":"govApproved","type":"bool"},{"internalType":"bool","name":"juryApproved","type":"bool"},{"internalType":"bool","name":"active","type":"bool"}],"stateMutability":"view","type":"function"},{"inputs":[],"name":"govRegistry","outputs":[{"internalType":"contract IGovernmentRegistry","name":"","type":"address"}],"stateMutability":"view","type":"function"},{"inputs":[],"name":"governance","outputs":[{"internalType":"address","name":"","type":"address"}],"stateMutability":"view","type":"function"},{"inputs":[{"internalType":"bytes32","name":"beneficiaryId","type":"bytes32"}],"name":"governmentApprove","outputs":[],"stateMutability":"nonpayable","type":"function"},{"inputs":[{"internalType":"bytes32","name":"beneficiaryId","type":"bytes32"}],"name":"isApproved","outputs":[{"internalType":"bool","name":"","type":"bool"}],"stateMutability":"view","type":"function"},{"inputs":[],"name":"jury","outputs":[{"internalType":"contract IJuryStaking","name":"","type":"address"}],"stateMutability":"view","type":"function"},{"inputs":[{"internalType":"bytes32","name":"beneficiaryId","type":"bytes32"},{"internalType":"bytes32","name":"claimId","type":"bytes32"}],"name":"refreshJury","outputs":[],"stateMutability":"nonpayable","type":"function"},{"inputs":[{"internalType":"bytes32","name":"beneficiaryId","type":"bytes32"},{"internalType":"address","name":"wallet","type":"address"},{"internalType":"bytes32","name":"disasterId","type":"bytes32"},{"internalType":"bytes32","name":"userUniqueHash","type":"bytes32"},{"internalType":"bytes32","name":"docHash","type":"bytes32"}],"name":"submitClaim","outputs":[],"stateMutability":"nonpayable","type":"function"},{"inputs":[{"internalType":"bytes32","name":"","type":"bytes32"}],"name":"uniqueness","outputs":[{"internalType":"bool","name":"","type":"bool"}],"stateMutability":"view","type":"function"},{"inputs":[{"internalType":"bytes32","name":"beneficiaryId","type":"bytes32"}],"name":"walletOf","outputs":[{"internalType":"address","name":"","type":"address"}],"stateMutability":"view","type":"function"}],"evm":{"bytecode":{"linkReferences":{},"object":"6080346100a057601f6109b038819003918201601f19168301916001600160401b038311848410176100a5578084926060946040528339810103126100a057610047816100bb565b906100606040610059602084016100bb565b92016100bb565b60018060a01b0380928160018060a01b0319951685600054161760005516836001541617600155169060025416176002556040516108e090816100d08239f35b600080fd5b634e487b7160e01b600052604160045260246000fd5b51906001600160a01b03821682036100a05756fe608060408181526004918236101561001657600080fd5b600092833560e01c91826309521458146107bb5750816309fd3f6e1461078657816323878ec2146105ee5781633d6abe9a146105c257816348aefc32146105685781635aa6e6751461053557816379539a17146103ed5781638f79cd8e1461014d578163eff0f592146100ca575063ffec38751461009357600080fd5b346100c657816003193601126100c65760209073ffffffffffffffffffffffffffffffffffffffff600154169051908152f35b5080fd5b905034610149576020600319360112610149578160c09360ff923581526003602052209173ffffffffffffffffffffffffffffffffffffffff8354169260018101549160036002830154920154928151958652602086015284015281811615156060840152818160081c161515608084015260101c16151560a0820152f35b8280fd5b8383346100c65760a06003193601126100c65782356024359173ffffffffffffffffffffffffffffffffffffffff8084168094036103e957604435906084359085156103a6578487526020906003825280858920541661036457845182810190858252606435878201528681526060810167ffffffffffffffff9282821084831117610351578189528251902091828c528c865260ff898d2054166103115750508952898352858920805460ff1916600117905585519060c08201908111828210176102fe57899a5096600381999a927f5bfd887022404376721d1d03efca2b43ed025158ede19c852af0098d859f35469989528b81528581018881528982019088825260608301968688528b608085019780895260a0860197600189528152868b52209351167fffffffffffffffffffffffff00000000000000000000000000000000000000008454161783555160018301555160028201550192511515917fffffffffffffffffffffffffffffffffffffffffffffffffffffffffff00000060ff62ff000061ff0087549451151560081b169451151560101b169416911617171790558351928352820152a380f35b60248a60418d634e487b7160e01b835252fd5b907f6475706c6963617465207573657200000000000000000000000000000000000060a46064938862461bcd60e51b855285820152600e60848201520152fd5b60248c60418f634e487b7160e01b835252fd5b6064898387519162461bcd60e51b8352820152600660248201527f65786973747300000000000000000000000000000000000000000000000000006044820152fd5b606488602086519162461bcd60e51b8352820152600a60248201527f6261642077616c6c6574000000000000000000000000000000000000000000006044820152fd5b8480fd5b91905034610149576020806003193601126105315782359260248273ffffffffffffffffffffffffffffffffffffffff600154168551928380927f9c2806c700000000000000000000000000000000000000000000000000000000825233878301525afa9081156105275786916104f6575b50156104b55750906003809284865252832001600160ff19825461048860ff8260101c166107f6565b1617905533907f1de222e2bdca5bdd202ea9de786f34abcf61da962420268a2cc45aaf07948dc68380a380f35b90606492519162461bcd60e51b8352820152600c60248201527f6e6f74206f6666696369616c00000000000000000000000000000000000000006044820152fd5b90508281813d8311610520575b61050d8183610841565b8101031261051c57513861045f565b8580fd5b503d610503565b84513d88823e3d90fd5b8380fd5b5050346100c657816003193601126100c65773ffffffffffffffffffffffffffffffffffffffff60209254169051908152f35b90503461014957602060031936011261014957816020936003923581528285522001549060ff8260101c1691826105b7575b826105a9575b50519015158152f35b60081c60ff169150386105a0565b60ff8116925061059a565b90503461014957602060031936011261014957816020938260ff93358252855220541690519015158152f35b90503461014957816003193601126101495780359182845260036020526003818520019182549061062460ff8360101c166107f6565b60a073ffffffffffffffffffffffffffffffffffffffff600254169160248551809481937f346bec3a0000000000000000000000000000000000000000000000000000000083528335908301525afa801561077c5786918791610701575b509360209392827f5f9441bfb5a1064a5a44361328db7eb8e0922e8550e247776e5a31ba3ddaf90c9660ff94916106f9575b506106cb575b505460081c1690519015158152a280f35b7fffffffffffffffffffffffffffffffffffffffffffffffffffffffffffff00ff16610100178155386106ba565b9050386106b4565b91505060a0929192813d60a011610774575b8161072060a09383610841565b8101031261051c577f5f9441bfb5a1064a5a44361328db7eb8e0922e8550e247776e5a31ba3ddaf90c93602093826107686080610761606060ff9701610898565b9201610898565b92965092509293610682565b3d9150610713565b83513d88823e3d90fd5b5050346100c657816003193601126100c65760209073ffffffffffffffffffffffffffffffffffffffff600254169051908152f35b92915034610531576020600319360112610531573583526003602090815292205473ffffffffffffffffffffffffffffffffffffffff168152f35b156107fd57565b606460405162461bcd60e51b815260206004820152600860248201527f6e6f20636c61696d0000000000000000000000000000000000000000000000006044820152fd5b90601f7fffffffffffffffffffffffffffffffffffffffffffffffffffffffffffffffe0910116810190811067ffffffffffffffff82111761088257604052565b634e487b7160e01b600052604160045260246000fd5b519081151582036108a557565b600080fdfea2646970667358221220f85520ab60f7ff473eaea6953f630658e92f7a9e90bb7de7ec926ea82e30a2ad64736f6c63430008180033","opcodes":"PUSH1 0x80 CALLVALUE PUSH2 0xA0 JUMPI PUSH1 0x1F PUSH2 0x9B0 CODESIZE DUP2 SWAP1 SUB SWAP2 DUP3 ADD PUSH1 0x1F NOT AND DUP4 ADD SWAP2 PUSH1 0x1 PUSH1 0x1 PUSH1 0x40 SHL SUB DUP4 GT DUP5 DUP5 LT OR PUSH2 0xA5 JUMPI DUP1 DUP5 SWAP3 PUSH1 0x60 SWAP5 PUSH1 0x40 MSTORE DUP4 CODECOPY DUP2 ADD SUB SLT PUSH2 0xA0 JUMPI PUSH2 0x47 DUP2 PUSH2 0xBB JUMP JUMPDEST SWAP1 PUSH2 0x60 PUSH1 0x40 PUSH2 0x59 PUSH1 0x20 DUP5 ADD PUSH2 0xBB JUMP JUMPDEST SWAP3 ADD PUSH2 0xBB JUMP JUMPDEST PUSH1 0x1 DUP1 PUSH1 0xA0 SHL SUB DUP1 SWAP3 DUP2 PUSH1 0x1 DUP1 PUSH1 0xA0 SHL SUB NOT SWAP6 AND DUP6 PUSH1 0x0 SLOAD AND OR PUSH1 0x0 SSTORE AND DUP4 PUSH1 0x1 SLOAD AND OR PUSH1 0x1 SSTORE AND SWAP1 PUSH1 0x2 SLOAD AND OR PUSH1 0x2 SSTORE PUSH1 0x40 MLOAD PUSH2 0x8E0 SWAP1 DUP2 PUSH2 0xD0 DUP3 CODECOPY RETURN JUMPDEST PUSH1 0x0 DUP1 REVERT JUMPDEST PUSH4 0x4E487B71 PUSH1 0xE0 SHL PUSH1 0x0 MSTORE PUSH1 0x41 PUSH1 0x4 MSTORE PUSH1 0x24 PUSH1 0x0 REVERT JUMPDEST MLOAD SWAP1 PUSH1 0x1 PUSH1 0x1 PUSH1 0xA0 SHL SUB DUP3 AND DUP3 SUB PUSH2 0xA0 JUMPI JUMP INVALID PUSH1 0x80 PUSH1 0x40 DUP2 DUP2 MSTORE PUSH1 0x4 SWAP2 DUP3 CALLDATASIZE LT ISZERO PUSH2 0x16 JUMPI PUSH1 0x0 DUP1 REVERT JUMPDEST PUSH1 0x0 SWAP3 DUP4 CALLDATALOAD PUSH1 0xE0 SHR SWAP2 DUP3 PUSH4 0x9521458 EQ PUSH2 0x7BB JUMPI POP DUP2 PUSH4 0x9FD3F6E EQ PUSH2 0x786 JUMPI DUP2 PUSH4 0x23878EC2 EQ PUSH2 0x5EE JUMPI DUP2 PUSH4 0x3D6ABE9A EQ PUSH2 0x5C2 JUMPI DUP2 PUSH4 0x48AEFC32 EQ PUSH2 0x568 JUMPI DUP2 PUSH4 0x5AA6E675 EQ PUSH2 0x535 JUMPI DUP2 PUSH4 0x79539A17 EQ PUSH2 0x3ED JUMPI DUP2 PUSH4 0x8F79CD8E EQ PUSH2 0x14D JUMPI DUP2 PUSH4 0xEFF0F592 EQ PUSH2 0xCA JUMPI POP PUSH4 0xFFEC3875 EQ PUSH2 0x93 JUMPI PUSH1 0x0 DUP1 REVERT JUMPDEST CALLVALUE PUSH2 0xC6 JUMPI DUP2 PUSH1 0x3 NOT CALLDATASIZE ADD SLT PUSH2 0xC6 JUMPI PUSH1 0x20 SWAP1 PUSH20 0xFFFFFFFFFFFFFFFFFFFFFFFFFFFFFFFFFFFFFFFF PUSH1 0x1 SLOAD AND SWAP1 MLOAD SWAP1 DUP2 MSTORE RETURN JUMPDEST POP DUP1 REVERT JUMPDEST SWAP1 POP CALLVALUE PUSH2 0x149 JUMPI PUSH1 0x20 PUSH1 0x3 NOT CALLDATASIZE ADD SLT PUSH2 0x149 JUMPI DUP2 PUSH1 0xC0 SWAP4 PUSH1 0xFF SWAP3 CALLDATALOAD DUP2 MSTORE PUSH1 0x3 PUSH1 0x20 MSTORE KECCAK256 SWAP2 PUSH20 0xFFFFFFFFFFFFFFFFFFFFFFFFFFFFFFFFFFFFFFFF DUP4 SLOAD AND SWAP3 PUSH1 0x1 DUP2 ADD SLOAD SWAP2 PUSH1 0x3 PUSH1 0x2 DUP4 ADD SLOAD SWAP3 ADD SLOAD SWAP3 DUP2 MLOAD SWAP6 DUP7 MSTORE PUSH1 0x20 DUP7 ADD MSTORE DUP5 ADD MSTORE DUP2 DUP2 AND ISZERO ISZERO PUSH1 0x60 DUP5 ADD MSTORE DUP2 DUP2 PUSH1 0x8 SHR AND ISZERO ISZERO PUSH1 0x80 DUP5 ADD MSTORE PUSH1 0x10 SHR AND ISZERO ISZERO PUSH1 0xA0 DUP3 ADD MSTORE RETURN JUMPDEST DUP3 DUP1 REVERT JUMPDEST DUP4 DUP4 CALLVALUE PUSH2 0xC6 JUMPI PUSH1 0xA0 PUSH1 0x3 NOT CALLDATASIZE ADD SLT PUSH2 0xC6 JUMPI DUP3 CALLDATALOAD PUSH1 0x24 CALLDATALOAD SWAP2 PUSH20 0xFFFFFFFFFFFFFFFFFFFFFFFFFFFFFFFFFFFFFFFF DUP1 DUP5 AND DUP1 SWAP5 SUB PUSH2 0x3E9 JUMPI PUSH1 0x44 CALLDATALOAD SWAP1 PUSH1 0x84 CALLDATALOAD SWAP1 DUP6 ISZERO PUSH2 0x3A6 JUMPI DUP5 DUP8 MSTORE PUSH1 0x20 SWAP1 PUSH1 0x3 DUP3 MSTORE DUP1 DUP6 DUP10 KECCAK256 SLOAD AND PUSH2 0x364 JUMPI DUP5 MLOAD DUP3 DUP2 ADD SWAP1 DUP6 DUP3 MSTORE PUSH1 0x64 CALLDATALOAD DUP8 DUP3 ADD MSTORE DUP7 DUP2 MSTORE PUSH1 0x60 DUP2 ADD PUSH8 0xFFFFFFFFFFFFFFFF SWAP3 DUP3 DUP3 LT DUP5 DUP4 GT OR PUSH2 0x351 JUMPI DUP2 DUP10 MSTORE DUP3 MLOAD SWAP1 KECCAK256 SWAP2 DUP3 DUP13 MSTORE DUP13 DUP7 MSTORE PUSH1 0xFF DUP10 DUP14 KECCAK256 SLOAD AND PUSH2 0x311 JUMPI POP POP DUP10 MSTORE DUP10 DUP4 MSTORE DUP6 DUP10 KECCAK256 DUP1 SLOAD PUSH1 0xFF NOT AND PUSH1 0x1 OR SWAP1 SSTORE DUP6 MLOAD SWAP1 PUSH1 0xC0 DUP3 ADD SWAP1 DUP2 GT DUP3 DUP3 LT OR PUSH2 0x2FE JUMPI DUP10 SWAP11 POP SWAP7 PUSH1 0x3 DUP2 SWAP10 SWAP11 SWAP3 PUSH32 0x5BFD887022404376721D1D03EFCA2B43ED025158EDE19C852AF0098D859F3546 SWAP10 DUP10 MSTORE DUP12 DUP2 MSTORE DUP6 DUP2 ADD DUP9 DUP2 MSTORE DUP10 DUP3 ADD SWAP1 DUP9 DUP3 MSTORE PUSH1 0x60 DUP4 ADD SWAP7 DUP7 DUP9 MSTORE DUP12 PUSH1 0x80 DUP6 ADD SWAP8 DUP1 DUP10 MSTORE PUSH1 0xA0 DUP7 ADD SWAP8 PUSH1 0x1 DUP10 MSTORE DUP2 MSTORE DUP7 DUP12 MSTORE KECCAK256 SWAP4 MLOAD AND PUSH32 0xFFFFFFFFFFFFFFFFFFFFFFFF0000000000000000000000000000000000000000 DUP5 SLOAD AND OR DUP4 SSTORE MLOAD PUSH1 0x1 DUP4 ADD SSTORE MLOAD PUSH1 0x2 DUP3 ADD SSTORE ADD SWAP3 MLOAD ISZERO ISZERO SWAP2 PUSH32 0xFFFFFFFFFFFFFFFFFFFFFFFFFFFFFFFFFFFFFFFFFFFFFFFFFFFFFFFFFF000000 PUSH1 0xFF PUSH3 0xFF0000 PUSH2 0xFF00 DUP8 SLOAD SWAP5 MLOAD ISZERO ISZERO PUSH1 0x8 SHL AND SWAP5 MLOAD ISZERO ISZERO PUSH1 0x10 SHL AND SWAP5 AND SWAP2 AND OR OR OR SWAP1 SSTORE DUP4 MLOAD SWAP3 DUP4 MSTORE DUP3 ADD MSTORE LOG3 DUP1 RETURN JUMPDEST PUSH1 0x24 DUP11 PUSH1 0x41 DUP14 PUSH4 0x4E487B71 PUSH1 0xE0 SHL DUP4 MSTORE MSTORE REVERT JUMPDEST SWAP1 PUSH32 0x6475706C69636174652075736572000000000000000000000000000000000000 PUSH1 0xA4 PUSH1 0x64 SWAP4 DUP9 PUSH3 0x461BCD PUSH1 0xE5 SHL DUP6 MSTORE DUP6 DUP3 ADD MSTORE PUSH1 0xE PUSH1 0x84 DUP3 ADD MSTORE ADD MSTORE REVERT JUMPDEST PUSH1 0x24 DUP13 PUSH1 0x41 DUP16 PUSH4 0x4E487B71 PUSH1 0xE0 SHL DUP4 MSTORE MSTORE REVERT JUMPDEST PUSH1 0x64 DUP10 DUP4 DUP8 MLOAD SWAP2 PUSH3 0x461BCD PUSH1 0xE5 SHL DUP4 MSTORE DUP3 ADD MSTORE PUSH1 0x6 PUSH1 0x24 DUP3 ADD MSTORE PUSH32 0x6578697374730000000000000000000000000000000000000000000000000000 PUSH1 0x44 DUP3 ADD MSTORE REVERT JUMPDEST PUSH1 0x64 DUP9 PUSH1 0x20 DUP7 MLOAD SWAP2 PUSH3 0x461BCD PUSH1 0xE5 SHL DUP4 MSTORE DUP3 ADD MSTORE PUSH1 0xA PUSH1 0x24 DUP3 ADD MSTORE PUSH32 0x6261642077616C6C657400000000000000000000000000000000000000000000 PUSH1 0x44 DUP3 ADD MSTORE REVERT JUMPDEST DUP5 DUP1 REVERT JUMPDEST SWAP2 SWAP1 POP CALLVALUE PUSH2 0x149 JUMPI PUSH1 0x20 DUP1 PUSH1 0x3 NOT CALLDATASIZE ADD SLT PUSH2 0x531 JUMPI DUP3 CALLDATALOAD SWAP3 PUSH1 0x24 DUP3 PUSH20 0xFFFFFFFFFFFFFFFFFFFFFFFFFFFFFFFFFFFFFFFF PUSH1 0x1 SLOAD AND DUP6 MLOAD SWAP3 DUP4 DUP1 SWAP3 PUSH32 0x9C2806C700000000000000000000000000000000000000000000000000000000 DUP3 MSTORE CALLER DUP8 DUP4 ADD MSTORE GAS STATICCALL SWAP1 DUP2 ISZERO PUSH2 0x527 JUMPI DUP7 SWAP2 PUSH2 0x4F6 JUMPI JUMPDEST POP ISZERO PUSH2 0x4B5 JUMPI POP SWAP1 PUSH1 0x3 DUP1 SWAP3 DUP5 DUP7 MSTORE MSTORE DUP4 KECCAK256 ADD PUSH1 0x1 PUSH1 0xFF NOT DUP3 SLOAD PUSH2 0x488 PUSH1 0xFF DUP3 PUSH1 0x10 SHR AND PUSH2 0x7F6 JUMP JUMPDEST AND OR SWAP1 SSTORE CALLER SWAP1 PUSH32 0x1DE222E2BDCA5BDD202EA9DE786F34ABCF61DA962420268A2CC45AAF07948DC6 DUP4 DUP1 LOG3 DUP1 RETURN JUMPDEST SWAP1 PUSH1 0x64 SWAP3 MLOAD SWAP2 PUSH3 0x461BCD PUSH1 0xE5 SHL DUP4 MSTORE DUP3 ADD MSTORE PUSH1 0xC PUSH1 0x24 DUP3 ADD MSTORE PUSH32 0x6E6F74206F6666696369616C0000000000000000000000000000000000000000 PUSH1 0x44 DUP3 ADD MSTORE REVERT JUMPDEST SWAP1 POP DUP3 DUP2 DUP2 RETURNDATASIZE DUP4 GT PUSH2 0x520 JUMPI JUMPDEST PUSH2 0x50D DUP2 DUP4 PUSH2 0x841 JUMP JUMPDEST DUP2 ADD SUB SLT PUSH2 0x51C JUMPI MLOAD CODESIZE PUSH2 0x45F JUMP JUMPDEST DUP6 DUP1 REVERT JUMPDEST POP RETURNDATASIZE PUSH2 0x503 JUMP JUMPDEST DUP5 MLOAD RETURNDATASIZE DUP9 DUP3 RETURNDATACOPY RETURNDATASIZE SWAP1 REVERT JUMPDEST DUP4 DUP1 REVERT JUMPDEST POP POP CALLVALUE PUSH2 0xC6 JUMPI DUP2 PUSH1 0x3 NOT CALLDATASIZE ADD SLT PUSH2 0xC6 JUMPI PUSH20 0xFFFFFFFFFFFFFFFFFFFFFFFFFFFFFFFFFFFFFFFF PUSH1 0x20 SWAP3 SLOAD AND SWAP1 MLOAD SWAP1 DUP2 MSTORE RETURN JUMPDEST SWAP1 POP CALLVALUE PUSH2 0x149 JUMPI PUSH1 0x20 PUSH1 0x3 NOT CALLDATASIZE ADD SLT PUSH2 0x149 JUMPI DUP2 PUSH1 0x20 SWAP4 PUSH1 0x3 SWAP3 CALLDATALOAD DUP2 MSTORE DUP3 DUP6 MSTORE KECCAK256 ADD SLOAD SWAP1 PUSH1 0xFF DUP3 PUSH1 0x10 SHR AND SWAP2 DUP3 PUSH2 0x5B7 JUMPI JUMPDEST DUP3 PUSH2 0x5A9 JUMPI JUMPDEST POP MLOAD SWAP1 ISZERO ISZERO DUP2 MSTORE RETURN JUMPDEST PUSH1 0x8 SHR PUSH1 0xFF AND SWAP2 POP CODESIZE PUSH2 0x5A0 JUMP JUMPDEST PUSH1 0xFF DUP2 AND SWAP3 POP PUSH2 0x59A JUMP JUMPDEST SWAP1 POP CALLVALUE PUSH2 0x149 JUMPI PUSH1 0x20 PUSH1 0x3 NOT CALLDATASIZE ADD SLT PUSH2 0x149 JUMPI DUP2 PUSH1 0x20 SWAP4 DUP3 PUSH1 0xFF SWAP4 CALLDATALOAD DUP3 MSTORE DUP6 MSTORE KECCAK256 SLOAD AND SWAP1 MLOAD SWAP1 ISZERO ISZERO DUP2 MSTORE RETURN JUMPDEST SWAP1 POP CALLVALUE PUSH2 0x149 JUMPI DUP2 PUSH1 0x3 NOT CALLDATASIZE ADD SLT PUSH2 0x149 JUMPI DUP1 CALLDATALOAD SWAP2 DUP3 DUP5 MSTORE PUSH1 0x3 PUSH1 0x20 MSTORE PUSH1 0x3 DUP2 DUP6 KECCAK256 ADD SWAP2 DUP3 SLOAD SWAP1 PUSH2 0x624 PUSH1 0xFF DUP4 PUSH1 0x10 SHR AND PUSH2 0x7F6 JUMP JUMPDEST PUSH1 0xA0 PUSH20 0xFFFFFFFFFFFFFFFFFFFFFFFFFFFFFFFFFFFFFFFF PUSH1 0x2 SLOAD AND SWAP2 PUSH1 0x24 DUP6 MLOAD DUP1 SWAP5 DUP2 SWAP4 PUSH32 0x346BEC3A00000000000000000000000000000000000000000000000000000000 DUP4 MSTORE DUP4 CALLDATALOAD SWAP1 DUP4 ADD MSTORE GAS STATICCALL DUP1 ISZERO PUSH2 0x77C JUMPI DUP7 SWAP2 DUP8 SWAP2 PUSH2 0x701 JUMPI JUMPDEST POP SWAP4 PUSH1 0x20 SWAP4 SWAP3 DUP3 PUSH32 0x5F9441BFB5A1064A5A44361328DB7EB8E0922E8550E247776E5A31BA3DDAF90C SWAP7 PUSH1 0xFF SWAP5 SWAP2 PUSH2 0x6F9 JUMPI JUMPDEST POP PUSH2 0x6CB JUMPI JUMPDEST POP SLOAD PUSH1 0x8 SHR AND SWAP1 MLOAD SWAP1 ISZERO ISZERO DUP2 MSTORE LOG2 DUP1 RETURN JUMPDEST PUSH32 0xFFFFFFFFFFFFFFFFFFFFFFFFFFFFFFFFFFFFFFFFFFFFFFFFFFFFFFFFFFFF00FF AND PUSH2 0x100 OR DUP2 SSTORE CODESIZE PUSH2 0x6BA JUMP JUMPDEST SWAP1 POP CODESIZE PUSH2 0x6B4 JUMP JUMPDEST SWAP2 POP POP PUSH1 0xA0 SWAP3 SWAP2 SWAP3 DUP2 RETURNDATASIZE PUSH1 0xA0 GT PUSH2 0x774 JUMPI JUMPDEST DUP2 PUSH2 0x720 PUSH1 0xA0 SWAP4 DUP4 PUSH2 0x841 JUMP JUMPDEST DUP2 ADD SUB SLT PUSH2 0x51C JUMPI PUSH32 0x5F9441BFB5A1064A5A44361328DB7EB8E0922E8550E247776E5A31BA3DDAF90C SWAP4 PUSH1 0x20 SWAP4 DUP3 PUSH2 0x768 PUSH1 0x80 PUSH2 0x761 PUSH1 0x60 PUSH1 0xFF SWAP8 ADD PUSH2 0x898 JUMP JUMPDEST SWAP3 ADD PUSH2 0x898 JUMP JUMPDEST SWAP3 SWAP7 POP SWAP3 POP SWAP3 SWAP4 PUSH2 0x682 JUMP JUMPDEST RETURNDATASIZE SWAP2 POP PUSH2 0x713 JUMP JUMPDEST DUP4 MLOAD RETURNDATASIZE DUP9 DUP3 RETURNDATACOPY RETURNDATASIZE SWAP1 REVERT JUMPDEST POP POP CALLVALUE PUSH2 0xC6 JUMPI DUP2 PUSH1 0x3 NOT CALLDATASIZE ADD SLT PUSH2 0xC6 JUMPI PUSH1 0x20 SWAP1 PUSH20 0xFFFFFFFFFFFFFFFFFFFFFFFFFFFFFFFFFFFFFFFF PUSH1 0x2 SLOAD AND SWAP1 MLOAD SWAP1 DUP2 MSTORE RETURN JUMPDEST SWAP3 SWAP2 POP CALLVALUE PUSH2 0x531 JUMPI PUSH1 0x20 PUSH1 0x3 NOT CALLDATASIZE ADD SLT PUSH2 0x531 JUMPI CALLDATALOAD DUP4 MSTORE PUSH1 0x3 PUSH1 0x20 SWAP1 DUP2 MSTORE SWAP3 KECCAK256 SLOAD PUSH20 0xFFFFFFFFFFFFFFFFFFFFFFFFFFFFFFFFFFFFFFFF AND DUP2 MSTORE RETURN JUMPDEST ISZERO PUSH2 0x7FD JUMPI JUMP JUMPDEST PUSH1 0x64 PUSH1 0x40 MLOAD PUSH3 0x461BCD PUSH1 0xE5 SHL DUP2 MSTORE PUSH1 0x20 PUSH1 0x4 DUP3 ADD MSTORE PUSH1 0x8 PUSH1 0x24 DUP3 ADD MSTORE PUSH32 0x6E6F20636C61696D000000000000000000000000000000000000000000000000 PUSH1 0x44 DUP3 ADD MSTORE REVERT JUMPDEST SWAP1 PUSH1 0x1F PUSH32 0xFFFFFFFFFFFFFFFFFFFFFFFFFFFFFFFFFFFFFFFFFFFFFFFFFFFFFFFFFFFFFFE0 SWAP2 ADD AND DUP2 ADD SWAP1 DUP2 LT PUSH8 0xFFFFFFFFFFFFFFFF DUP3 GT OR PUSH2 0x882 JUMPI PUSH1 0x40 MSTORE JUMP JUMPDEST PUSH4 0x4E487B71 PUSH1 0xE0 SHL PUSH1 0x0 MSTORE PUSH1 0x41 PUSH1 0x4 MSTORE PUSH1 0x24 PUSH1 0x0 REVERT JUMPDEST MLOAD SWAP1 DUP2 ISZERO ISZERO DUP3 SUB PUSH2 0x8A5 JUMPI JUMP JUMPDEST PUSH1 0x0 DUP1 REVERT INVALID LOG2 PUSH5 0x6970667358 0x22 SLT KECCAK256 0xF8 SSTORE KECCAK256 0xAB PUSH1 0xF7 SELFDESTRUCT SELFBALANCE RETURNDATACOPY 0xAE 0xA6 SWAP6 EXTCODEHASH PUSH4 0x658E92F PUSH27 0x9E90BB7DE7EC926EA82E30A2AD64736F6C63430008180033000000 "},"methodIdentifiers":{"claims(bytes32)":"eff0f592","govRegistry()":"ffec3875","governance()":"5aa6e675","governmentApprove(bytes32)":"79539a17","isApproved(bytes32)":"48aefc32","jury()":"09fd3f6e","refreshJury(bytes32,bytes32)":"23878ec2","submitClaim(bytes32,address,bytes32,bytes32,bytes32)":"8f79cd8e","uniqueness(bytes32)":"3d6abe9a","walletOf(bytes32)":"09521458"}}}}}