{"contracts/JuryStaking.sol":{"JuryStaking":{"abi":[{"inputs":[{"internalType":"address","name":"_gov","type":"address"}],"stateMutability":"nonpayable","type":"constructor"},{"anonymous":false,"inputs":[{"indexed":true,"internalType":"address","name":"juror","type":"address"},{"indexed":false,"internalType":"uint256","name":"amount","type":"uint256"}],"name":"Slashed","type":"event"},{"anonymous":false,"inputs":[{"indexed":true,"internalType":"address","name":"juror","type":"address"},{"indexed":false,"internalType":"uint256","name":"amount","type":"uint256"}],"name":"Staked","type":"event"},{"anonymous":false,"inputs":[{"indexed":true,"internalType":"address","name":"juror","type":"address"},{"indexed":false,"internalType":"uint256","name":"amount","type":"uint256"}],"name":"Unstaked","type":"event"},{"anonymous":false,"inputs":[{"indexed":true,"internalType":"address","name":"juror","type":"address"},{"indexed":true,"internalType":"bytes32","name":"claimId","type":"bytes32"},{"indexed":false,"internalType":"bool","name":"approve","type":"bool"}],"name":"Vote","type":"event"},{"inputs":[{"internalType":"bytes32","name":"claimId","type":"bytes32"}],"name":"finalize","outputs":[],"stateMutability":"nonpayable","type":"function"},{"inputs":[],"name":"governance","outputs":[{"internalType":"address","name":"","type":"address"}],"stateMutability":"view","type":"function"},{"inputs":[{"internalType":"address","name":"","type":"address"}],"name":"jurors","outputs":[{"internalType":"uint256","name":"stake","type":"uint256"},{"internalType":"bool","name":"active","type":"bool"}],"stateMutability":"view","type":"function"},{"inputs":[{"internalType":"uint256","name":"amount","type":"uint256"}],"name":"requestUnstake","outputs":[],"stateMutability":"nonpayable","type":"function"},{"inputs":[{"internalType":"bytes32","name":"claimId","type":"bytes32"},{"internalType":"uint256","name":"quorum","type":"uint256"}],"name":"setQuorum","outputs":[],"stateMutability":"nonpayable","type":"function"},{"inputs":[{"internalType":"address","name":"juror","type":"address"},{"internalType":"uint256","name":"amount","type":"uint256"}],"name":"slash","outputs":[],"stateMutability":"nonpayable","type":"function"},{"inputs":[],"name":"stake","outputs":[],"stateMutability":"payable","type":"function"},{"inputs":[{"internalType":"bytes32","name":"","type":"bytes32"}],"name":"tallies","outputs":[{"internalType":"uint256","name":"yes","type":"uint256"},{"internalType":"uint256","name":"no","type":"uint256"},{"internalType":"uint256","name":"quorum","type":"uint256"},{"internalType":"bool","name":"decided","type":"bool"},{"internalType":"bool","name":"approved","type":"bool"}],"stateMutability":"view","type":"function"},{"inputs":[],"name":"totalStaked","outputs":[{"internalType":"uint256","name":"","type":"uint256"}],"stateMutability":"view","type":"function"},{"inputs":[{"internalType":"bytes32","name":"claimId","type":"bytes32"},{"internalType":"bool","name":"approve","type":"bool"}],"name":"vote","outputs":[],"stateMutability":"nonpayable","type":"function"}],"evm":{"bytecode":{"linkReferences":{},"object":"60803461007457601f6109dd38819003918201601f19168301916001600160401b038311848410176100795780849260209460405283398101031261007457516001600160a01b0381169081900361007457600280546001600160a01b03191691909117905560405161094d90816100908239f35b600080fd5b634e487b7160e01b600052604160045260246000fdfe6040608081526004908136101561001557600080fd5b600091823560e01c90816302fb4d851461073c57816323095721146105c05781632d13e7731461052d578163346bec3a146104d15781633a4b66f1146104105781635aa6e675146103db578163817b1cd2146103bc57816392584d80146102d65781639f2ce678146100e5575063dca5f6b01461009157600080fd5b346100e15760206003193601126100e157809173ffffffffffffffffffffffffffffffffffffffff6100c16107de565b168152806020522060ff6001825492015416825191825215156020820152f35b5080fd5b8383346100e157806003193601126100e157823590602435801515918282036102d25733855260209185835260ff600183882001541615610290578486526003835261013a60ff6003848920015416156108cc565b81518381018681523360601b8483015260348252606082019082821067ffffffffffffffff83111761027d57818552825190209182895289865260ff858a20541661023d5750508652868352818620805460ff19166001179055156101f65783855260038252808520805490600182018092116101e3577ffcb0e8de36025fceccb6b01d29d347bd00ededfee8d324fc4d7a2f8763f3219f9495969750555b519283523392a380f35b60248760118a634e487b7160e01b835252fd5b83855260038252600181862001805490600182018092116101e3577ffcb0e8de36025fceccb6b01d29d347bd00ededfee8d324fc4d7a2f8763f3219f9495969750556101d9565b907f766f74656400000000000000000000000000000000000000000000000000000060a46064938862461bcd60e51b855285820152600560848201520152fd5b60248960418c634e487b7160e01b835252fd5b6064878484519162461bcd60e51b8352820152600960248201527f6e6f74206a75726f7200000000000000000000000000000000000000000000006044820152fd5b8480fd5b9050346103b85760206003193601126103b857803583526003602052818320600381019283549261030a60ff8516156108cc565b825491600184015493600261031f86866108bf565b9101548091101590816103ae575b501561036b5750507fffffffffffffffffffffffffffffffffffffffffffffffffffffffffffff0000909216911160081b61ff001617600117905580f35b906020606492519162461bcd60e51b8352820152600960248201527f6e6f2071756f72756d00000000000000000000000000000000000000000000006044820152fd5b905015153861032d565b8280fd5b5050346100e157816003193601126100e1576020906001549051908152f35b5050346100e157816003193601126100e15760209073ffffffffffffffffffffffffffffffffffffffff600254169051908152f35b9050826003193601126103b857341561048f5750338252816020528082206104393482546108bf565b905533825281602052600181832001600160ff1982541617905561045f346001546108bf565b600155513481527f9e71bc8eea02a63969f509818f2dafb9254532904319f9dbda79b67bd34a5f3d60203392a280f35b6020606492519162461bcd60e51b8352820152600860248201527f6e6f2076616c75650000000000000000000000000000000000000000000000006044820152fd5b9050346103b85760206003193601126103b8578160a09360ff92358152600360205220918254926001810154916003600283015492015492815195865260208601528401528181161515606084015260081c1615156080820152f35b919050346103b857806003193601126103b8576024359161056773ffffffffffffffffffffffffffffffffffffffff600254163314610806565b821561057e57358352600360205282206002015580f35b6020606492519162461bcd60e51b8352820152600860248201527f71756f72756d3d300000000000000000000000000000000000000000000000006044820152fd5b919050346103b85760206003193601126103b85781359133845283602052818420906106008483548181101580610733575b6105fb90610851565b61089c565b825561060e8460015461089c565b6001558480808087335af13d1561072e5767ffffffffffffffff3d81811161071b57855191601f82017fffffffffffffffffffffffffffffffffffffffffffffffffffffffffffffffe0908116603f011683019081118382101761070857865281528660203d92013e5b156106c557508054156106b4575b50519081527f0f5bb82176feb1b5e747e28471aa92156a04d9f3ab9f45f28e2d704232b93f7560203392a280f35b60010160ff19815416905538610686565b606490602084519162461bcd60e51b8352820152600f60248201527f7472616e73666572206661696c656400000000000000000000000000000000006044820152fd5b602489604187634e487b7160e01b835252fd5b602488604186634e487b7160e01b835252fd5b610678565b508115156105f2565b5050346100e157806003193601126100e1577f4ed05e9673c26d2ed44f7ef6a7f2942df0ee3b5e1e17db4b99f9dcd261a339cd60206107796107de565b6024359073ffffffffffffffffffffffffffffffffffffffff906107a282600254163314610806565b16938486528583528086206107c58382548181101580610733576105fb90610851565b90556107d38260015461089c565b60015551908152a280f35b6004359073ffffffffffffffffffffffffffffffffffffffff8216820361080157565b600080fd5b1561080d57565b606460405162461bcd60e51b815260206004820152600860248201527f6f6e6c7920676f760000000000000000000000000000000000000000000000006044820152fd5b1561085857565b606460405162461bcd60e51b815260206004820152600a60248201527f62616420616d6f756e74000000000000000000000000000000000000000000006044820152fd5b919082039182116108a957565b634e487b7160e01b600052601160045260246000fd5b919082018092116108a957565b156108d357565b606460405162461bcd60e51b815260206004820152600760248201527f64656369646564000000000000000000000000000000000000000000000000006044820152fdfea26469706673582212206b59546b3232f8aaa5e2f92fcbdd6bcef3013a45a3fe987d2e2f9fb858f0d76a64736f6c63430008180033","opcodes":"PUSH1 0x80 CALLVALUE PUSH2 0x74 JUMPI PUSH1 0x1F PUSH2 0x9DD CODESIZE DUP2 SWAP1 SUB SWAP2 DUP3 ADD PUSH1 0x1F NOT AND DUP4 ADD SWAP2 PUSH1 0x1 PUSH1 0x1 PUSH1 0x40 SHL SUB DUP4 GT DUP5 DUP5 LT OR PUSH2 0x79 JUMPI DUP1 DUP5 SWAP3 PUSH1 0x20 SWAP5 PUSH1 0x40 MSTORE DUP4 CODECOPY DUP2 ADD SUB SLT PUSH2 0x74 JUMPI MLOAD PUSH1 0x1 PUSH1 0x1 PUSH1 0xA0 SHL SUB DUP2 AND SWAP1 DUP2 SWAP1 SUB PUSH2 0x74 JUMPI PUSH1 0x2 DUP1 SLOAD PUSH1 0x1 PUSH1 0x1 PUSH1 0xA0 SHL SUB NOT AND SWAP2 SWAP1 SWAP2 OR SWAP1 SSTORE PUSH1 0x40 MLOAD PUSH2 0x94D SWAP1 DUP2 PUSH2 0x90 DUP3 CODECOPY RETURN JUMPDEST PUSH1 0x0 DUP1 REVERT JUMPDEST PUSH4 0x4E487B71 PUSH1 0xE0 SHL PUSH1 0x0 MSTORE PUSH1 0x41 PUSH1 0x4 MSTORE PUSH1 0x24 PUSH1 0x0 REVERT INVALID PUSH1 0x40 PUSH1 0x80 DUP2 MSTORE PUSH1 0x4 SWAP1 DUP2 CALLDATASIZE LT ISZERO PUSH2 0x15 JUMPI PUSH1 0x0 DUP1 REVERT JUMPDEST PUSH1 0x0 SWAP2 DUP3 CALLDATALOAD PUSH1 0xE0 SHR SWAP1 DUP2 PUSH4 0x2FB4D85 EQ PUSH2 0x73C JUMPI DUP2 PUSH4 0x23095721 EQ PUSH2 0x5C0 JUMPI DUP2 PUSH4 0x2D13E773 EQ PUSH2 0x52D JUMPI DUP2 PUSH4 0x346BEC3A EQ PUSH2 0x4D1 JUMPI DUP2 PUSH4 0x3A4B66F1 EQ PUSH2 0x410 JUMPI DUP2 PUSH4 0x5AA6E675 EQ PUSH2 0x3DB JUMPI DUP2 PUSH4 0x817B1CD2 EQ PUSH2 0x3BC JUMPI DUP2 PUSH4 0x92584D80 EQ PUSH2 0x2D6 JUMPI DUP2 PUSH4 0x9F2CE678 EQ PUSH2 0xE5 JUMPI POP PUSH4 0xDCA5F6B0 EQ PUSH2 0x91 JUMPI PUSH1 0x0 DUP1 REVERT JUMPDEST CALLVALUE PUSH2 0xE1 JUMPI PUSH1 0x20 PUSH1 0x3 NOT CALLDATASIZE ADD SLT PUSH2 0xE1 JUMPI DUP1 SWAP2 PUSH20 0xFFFFFFFFFFFFFFFFFFFFFFFFFFFFFFFFFFFFFFFF PUSH2 0xC1 PUSH2 0x7DE JUMP JUMPDEST AND DUP2 MSTORE DUP1 PUSH1 0x20 MSTORE KECCAK256 PUSH1 0xFF PUSH1 0x1 DUP3 SLOAD SWAP3 ADD SLOAD AND DUP3 MLOAD SWAP2 DUP3 MSTORE ISZERO ISZERO PUSH1 0x20 DUP3 ADD MSTORE RETURN JUMPDEST POP DUP1 REVERT JUMPDEST DUP4 DUP4 CALLVALUE PUSH2 0xE1 JUMPI DUP1 PUSH1 0x3 NOT CALLDATASIZE ADD SLT PUSH2 0xE1 JUMPI DUP3 CALLDATALOAD SWAP1 PUSH1 0x24 CALLDATALOAD DUP1 ISZERO ISZERO SWAP2 DUP3 DUP3 SUB PUSH2 0x2D2 JUMPI CALLER DUP6 MSTORE PUSH1 0x20 SWAP2 DUP6 DUP4 MSTORE PUSH1 0xFF PUSH1 0x1 DUP4 DUP9 KECCAK256 ADD SLOAD AND ISZERO PUSH2 0x290 JUMPI DUP5 DUP7 MSTORE PUSH1 0x3 DUP4 MSTORE PUSH2 0x13A PUSH1 0xFF PUSH1 0x3 DUP5 DUP10 KECCAK256 ADD SLOAD AND ISZERO PUSH2 0x8CC JUMP JUMPDEST DUP2 MLOAD DUP4 DUP2 ADD DUP7 DUP2 MSTORE CALLER PUSH1 0x60 SHL DUP5 DUP4 ADD MSTORE PUSH1 0x34 DUP3 MSTORE PUSH1 0x60 DUP3 ADD SWAP1 DUP3 DUP3 LT PUSH8 0xFFFFFFFFFFFFFFFF DUP4 GT OR PUSH2 0x27D JUMPI DUP2 DUP6 MSTORE DUP3 MLOAD SWAP1 KECCAK256 SWAP2 DUP3 DUP10 MSTORE DUP10 DUP7 MSTORE PUSH1 0xFF DUP6 DUP11 KECCAK256 SLOAD AND PUSH2 0x23D JUMPI POP POP DUP7 MSTORE DUP7 DUP4 MSTORE DUP2 DUP7 KECCAK256 DUP1 SLOAD PUSH1 0xFF NOT AND PUSH1 0x1 OR SWAP1 SSTORE ISZERO PUSH2 0x1F6 JUMPI DUP4 DUP6 MSTORE PUSH1 0x3 DUP3 MSTORE DUP1 DUP6 KECCAK256 DUP1 SLOAD SWAP1 PUSH1 0x1 DUP3 ADD DUP1 SWAP3 GT PUSH2 0x1E3 JUMPI PUSH32 0xFCB0E8DE36025FCECCB6B01D29D347BD00EDEDFEE8D324FC4D7A2F8763F3219F SWAP5 SWAP6 SWAP7 SWAP8 POP SSTORE JUMPDEST MLOAD SWAP3 DUP4 MSTORE CALLER SWAP3 LOG3 DUP1 RETURN JUMPDEST PUSH1 0x24 DUP8 PUSH1 0x11 DUP11 PUSH4 0x4E487B71 PUSH1 0xE0 SHL DUP4 MSTORE MSTORE REVERT JUMPDEST DUP4 DUP6 MSTORE PUSH1 0x3 DUP3 MSTORE PUSH1 0x1 DUP2 DUP7 KECCAK256 ADD DUP1 SLOAD SWAP1 PUSH1 0x1 DUP3 ADD DUP1 SWAP3 GT PUSH2 0x1E3 JUMPI PUSH32 0xFCB0E8DE36025FCECCB6B01D29D347BD00EDEDFEE8D324FC4D7A2F8763F3219F SWAP5 SWAP6 SWAP7 SWAP8 POP SSTORE PUSH2 0x1D9 JUMP JUMPDEST SWAP1 PUSH32 0x766F746564000000000000000000000000000000000000000000000000000000 PUSH1 0xA4 PUSH1 0x64 SWAP4 DUP9 PUSH3 0x461BCD PUSH1 0xE5 SHL DUP6 MSTORE DUP6 DUP3 ADD MSTORE PUSH1 0x5 PUSH1 0x84 DUP3 ADD MSTORE ADD MSTORE REVERT JUMPDEST PUSH1 0x24 DUP10 PUSH1 0x41 DUP13 PUSH4 0x4E487B71 PUSH1 0xE0 SHL DUP4 MSTORE MSTORE REVERT JUMPDEST PUSH1 0x64 DUP8 DUP5 DUP5 MLOAD SWAP2 PUSH3 0x461BCD PUSH1 0xE5 SHL DUP4 MSTORE DUP3 ADD MSTORE PUSH1 0x9 PUSH1 0x24 DUP3 ADD MSTORE PUSH32 0x6E6F74206A75726F720000000000000000000000000000000000000000000000 PUSH1 0x44 DUP3 ADD MSTORE REVERT JUMPDEST DUP5 DUP1 REVERT JUMPDEST SWAP1 POP CALLVALUE PUSH2 0x3B8 JUMPI PUSH1 0x20 PUSH1 0x3 NOT CALLDATASIZE ADD SLT PUSH2 0x3B8 JUMPI DUP1 CALLDATALOAD DUP4 MSTORE PUSH1 0x3 PUSH1 0x20 MSTORE DUP2 DUP4 KECCAK256 PUSH1 0x3 DUP2 ADD SWAP3 DUP4 SLOAD SWAP3 PUSH2 0x30A PUSH1 0xFF DUP6 AND ISZERO PUSH2 0x8CC JUMP JUMPDEST DUP3 SLOAD SWAP2 PUSH1 0x1 DUP5 ADD SLOAD SWAP4 PUSH1 0x2 PUSH2 0x31F DUP7 DUP7 PUSH2 0x8BF JUMP JUMPDEST SWAP2 ADD SLOAD DUP1 SWAP2 LT ISZERO SWAP1 DUP2 PUSH2 0x3AE JUMPI JUMPDEST POP ISZERO PUSH2 0x36B JUMPI POP POP PUSH32 0xFFFFFFFFFFFFFFFFFFFFFFFFFFFFFFFFFFFFFFFFFFFFFFFFFFFFFFFFFFFF0000 SWAP1 SWAP3 AND SWAP2 GT PUSH1 0x8 SHL PUSH2 0xFF00 AND OR PUSH1 0x1 OR SWAP1 SSTORE DUP1 RETURN JUMPDEST SWAP1 PUSH1 0x20 PUSH1 0x64 SWAP3 MLOAD SWAP2 PUSH3 0x461BCD PUSH1 0xE5 SHL DUP4 MSTORE DUP3 ADD MSTORE PUSH1 0x9 PUSH1 0x24 DUP3 ADD MSTORE PUSH32 0x6E6F2071756F72756D0000000000000000000000000000000000000000000000 PUSH1 0x44 DUP3 ADD MSTORE REVERT JUMPDEST SWAP1 POP ISZERO ISZERO CODESIZE PUSH2 0x32D JUMP JUMPDEST DUP3 DUP1 REVERT JUMPDEST POP POP CALLVALUE PUSH2 0xE1 JUMPI DUP2 PUSH1 0x3 NOT CALLDATASIZE ADD SLT PUSH2 0xE1 JUMPI PUSH1 0x20 SWAP1 PUSH1 0x1 SLOAD SWAP1 MLOAD SWAP1 DUP2 MSTORE RETURN JUMPDEST POP POP CALLVALUE PUSH2 0xE1 JUMPI DUP2 PUSH1 0x3 NOT CALLDATASIZE ADD SLT PUSH2 0xE1 JUMPI PUSH1 0x20 SWAP1 PUSH20 0xFFFFFFFFFFFFFFFFFFFFFFFFFFFFFFFFFFFFFFFF PUSH1 0x2 SLOAD AND SWAP1 MLOAD SWAP1 DUP2 MSTORE RETURN JUMPDEST SWAP1 POP DUP3 PUSH1 0x3 NOT CALLDATASIZE ADD SLT PUSH2 0x3B8 JUMPI CALLVALUE ISZERO PUSH2 0x48F JUMPI POP CALLER DUP3 MSTORE DUP2 PUSH1 0x20 MSTORE DUP1 DUP3 KECCAK256 PUSH2 0x439 CALLVALUE DUP3 SLOAD PUSH2 0x8BF JUMP JUMPDEST SWAP1 SSTORE CALLER DUP3 MSTORE DUP2 PUSH1 0x20 MSTORE PUSH1 0x1 DUP2 DUP4 KECCAK256 ADD PUSH1 0x1 PUSH1 0xFF NOT DUP3 SLOAD AND OR SWAP1 SSTORE PUSH2 0x45F CALLVALUE PUSH1 0x1 SLOAD PUSH2 0x8BF JUMP JUMPDEST PUSH1 0x1 SSTORE MLOAD CALLVALUE DUP2 MSTORE PUSH32 0x9E71BC8EEA02A63969F509818F2DAFB9254532904319F9DBDA79B67BD34A5F3D PUSH1 0x20 CALLER SWAP3 LOG2 DUP1 RETURN JUMPDEST PUSH1 0x20 PUSH1 0x64 SWAP3 MLOAD SWAP2 PUSH3 0x461BCD PUSH1 0xE5 SHL DUP4 MSTORE DUP3 ADD MSTORE PUSH1 0x8 PUSH1 0x24 DUP3 ADD MSTORE PUSH32 0x6E6F2076616C7565000000000000000000000000000000000000000000000000 PUSH1 0x44 DUP3 ADD MSTORE REVERT JUMPDEST SWAP1 POP CALLVALUE PUSH2 0x3B8 JUMPI PUSH1 0x20 PUSH1 0x3 NOT CALLDATASIZE ADD SLT PUSH2 0x3B8 JUMPI DUP2 PUSH1 0xA0 SWAP4 PUSH1 0xFF SWAP3 CALLDATALOAD DUP2 MSTORE PUSH1 0x3 PUSH1 0x20 MSTORE KECCAK256 SWAP2 DUP3 SLOAD SWAP3 PUSH1 0x1 DUP2 ADD SLOAD SWAP2 PUSH1 0x3 PUSH1 0x2 DUP4 ADD SLOAD SWAP3 ADD SLOAD SWAP3 DUP2 MLOAD SWAP6 DUP7 MSTORE PUSH1 0x20 DUP7 ADD MSTORE DUP5 ADD MSTORE DUP2 DUP2 AND ISZERO ISZERO PUSH1 0x60 DUP5 ADD MSTORE PUSH1 0x8 SHR AND ISZERO ISZERO PUSH1 0x80 DUP3 ADD MSTORE RETURN JUMPDEST SWAP2 SWAP1 POP CALLVALUE PUSH2 0x3B8 JUMPI DUP1 PUSH1 0x3 NOT CALLDATASIZE ADD SLT PUSH2 0x3B8 JUMPI PUSH1 0x24 CALLDATALOAD SWAP2 PUSH2 0x567 PUSH20 0xFFFFFFFFFFFFFFFFFFFFFFFFFFFFFFFFFFFFFFFF PUSH1 0x2 SLOAD AND CALLER EQ PUSH2 0x806 JUMP JUMPDEST DUP3 ISZERO PUSH2 0x57E JUMPI CALLDATALOAD DUP4 MSTORE PUSH1 0x3 PUSH1 0x20 MSTORE DUP3 KECCAK256 PUSH1 0x2 ADD SSTORE DUP1 RETURN JUMPDEST PUSH1 0x20 PUSH1 0x64 SWAP3 MLOAD SWAP2 PUSH3 0x461BCD PUSH1 0xE5 SHL DUP4 MSTORE DUP3 ADD MSTORE PUSH1 0x8 PUSH1 0x24 DUP3 ADD MSTORE PUSH32 0x71756F72756D3D30000000000000000000000000000000000000000000000000 PUSH1 0x44 DUP3 ADD MSTORE REVERT JUMPDEST SWAP2 SWAP1 POP CALLVALUE PUSH2 0x3B8 JUMPI PUSH1 0x20 PUSH1 0x3 NOT CALLDATASIZE ADD SLT PUSH2 0x3B8 JUMPI DUP2 CALLDATALOAD SWAP2 CALLER DUP5 MSTORE DUP4 PUSH1 0x20 MSTORE DUP2 DUP5 KECCAK256 SWAP1 PUSH2 0x600 DUP5 DUP4 SLOAD DUP2 DUP2 LT ISZERO DUP1 PUSH2 0x733 JUMPI JUMPDEST PUSH2 0x5FB SWAP1 PUSH2 0x851 JUMP JUMPDEST PUSH2 0x89C JUMP JUMPDEST DUP3 SSTORE PUSH2 0x60E DUP5 PUSH1 0x1 SLOAD PUSH2 0x89C JUMP JUMPDEST PUSH1 0x1 SSTORE DUP5 DUP1 DUP1 DUP1 DUP8 CALLER GAS CALL RETURNDATASIZE ISZERO PUSH2 0x72E JUMPI PUSH8 0xFFFFFFFFFFFFFFFF RETURNDATASIZE DUP2 DUP2 GT PUSH2 0x71B JUMPI DUP6 MLOAD SWAP2 PUSH1 0x1F DUP3 ADD PUSH32 0xFFFFFFFFFFFFFFFFFFFFFFFFFFFFFFFFFFFFFFFFFFFFFFFFFFFFFFFFFFFFFFE0 SWAP1 DUP2 AND PUSH1 0x3F ADD AND DUP4 ADD SWAP1 DUP2 GT DUP4 DUP3 LT OR PUSH2 0x708 JUMPI DUP7 MSTORE DUP2 MSTORE DUP7 PUSH1 0x20 RETURNDATASIZE SWAP3 ADD RETURNDATACOPY JUMPDEST ISZERO PUSH2 0x6C5 JUMPI POP DUP1 SLOAD ISZERO PUSH2 0x6B4 JUMPI JUMPDEST POP MLOAD SWAP1 DUP2 MSTORE PUSH32 0xF5BB82176FEB1B5E747E28471AA92156A04D9F3AB9F45F28E2D704232B93F75 PUSH1 0x20 CALLER SWAP3 LOG2 DUP1 RETURN JUMPDEST PUSH1 0x1 ADD PUSH1 0xFF NOT DUP2 SLOAD AND SWAP1 SSTORE CODESIZE PUSH2 0x686 JUMP JUMPDEST PUSH1 0x64 SWAP1 PUSH1 0x20 DUP5 MLOAD SWAP2 PUSH3 0x461BCD PUSH1 0xE5 SHL DUP4 MSTORE DUP3 ADD MSTORE PUSH1 0xF PUSH1 0x24 DUP3 ADD MSTORE PUSH32 0x7472616E73666572206661696C65640000000000000000000000000000000000 PUSH1 0x44 DUP3 ADD MSTORE REVERT JUMPDEST PUSH1 0x24 DUP10 PUSH1 0x41 DUP8 PUSH4 0x4E487B71 PUSH1 0xE0 SHL DUP4 MSTORE MSTORE REVERT JUMPDEST PUSH1 0x24 DUP9 PUSH1 0x41 DUP7 PUSH4 0x4E487B71 PUSH1 0xE0 SHL DUP4 MSTORE MSTORE REVERT JUMPDEST PUSH2 0x678 JUMP JUMPDEST POP DUP2 ISZERO ISZERO PUSH2 0x5F2 JUMP JUMPDEST POP POP CALLVALUE PUSH2 0xE1 JUMPI DUP1 PUSH1 0x3 NOT CALLDATASIZE ADD SLT PUSH2 0xE1 JUMPI PUSH32 0x4ED05E9673C26D2ED44F7EF6A7F2942DF0EE3B5E1E17DB4B99F9DCD261A339CD PUSH1 0x20 PUSH2 0x779 PUSH2 0x7DE JUMP JUMPDEST PUSH1 0x24 CALLDATALOAD SWAP1 PUSH20 0xFFFFFFFFFFFFFFFFFFFFFFFFFFFFFFFFFFFFFFFF SWAP1 PUSH2 0x7A2 DUP3 PUSH1 0x2 SLOAD AND CALLER EQ PUSH2 0x806 JUMP JUMPDEST AND SWAP4 DUP5 DUP7 MSTORE DUP6 DUP4 MSTORE DUP1 DUP7 KECCAK256 PUSH2 0x7C5 DUP4 DUP3 SLOAD DUP2 DUP2 LT ISZERO DUP1 PUSH2 0x733 JUMPI PUSH2 0x5FB SWAP1 PUSH2 0x851 JUMP JUMPDEST SWAP1 SSTORE PUSH2 0x7D3 DUP3 PUSH1 0x1 SLOAD PUSH2 0x89C JUMP JUMPDEST PUSH1 0x1 SSTORE MLOAD SWAP1 DUP2 MSTORE LOG2 DUP1 RETURN JUMPDEST PUSH1 0x4 CALLDATALOAD SWAP1 PUSH20 0xFFFFFFFFFFFFFFFFFFFFFFFFFFFFFFFFFFFFFFFF DUP3 AND DUP3 SUB PUSH2 0x801 JUMPI JUMP JUMPDEST PUSH1 0x0 DUP1 REVERT JUMPDEST ISZERO PUSH2 0x80D JUMPI JUMP JUMPDEST PUSH1 0x64 PUSH1 0x40 MLOAD PUSH3 0x461BCD PUSH1 0xE5 SHL DUP2 MSTORE PUSH1 0x20 PUSH1 0x4 DUP3 ADD MSTORE PUSH1 0x8 PUSH1 0x24 DUP3 ADD MSTORE PUSH32 0x6F6E6C7920676F76000000000000000000000000000000000000000000000000 PUSH1 0x44 DUP3 ADD MSTORE REVERT JUMPDEST ISZERO PUSH2 0x858 JUMPI JUMP JUMPDEST PUSH1 0x64 PUSH1 0x40 MLOAD PUSH3 0x461BCD PUSH1 0xE5 SHL DUP2 MSTORE PUSH1 0x20 PUSH1 0x4 DUP3 ADD MSTORE PUSH1 0xA PUSH1 0x24 DUP3 ADD MSTORE PUSH32 0x62616420616D6F756E7400000000000000000000000000000000000000000000 PUSH1 0x44 DUP3 ADD MSTORE REVERT JUMPDEST SWAP2 SWAP1 DUP3 SUB SWAP2 DUP3 GT PUSH2 0x8A9 JUMPI JUMP JUMPDEST PUSH4 0x4E487B71 PUSH1 0xE0 SHL PUSH1 0x0 MSTORE PUSH1 0x11 PUSH1 0x4 MSTORE PUSH1 0x24 PUSH1 0x0 REVERT JUMPDEST SWAP2 SWAP1 DUP3 ADD DUP1 SWAP3 GT PUSH2 0x8A9 JUMPI JUMP JUMPDEST ISZERO PUSH2 0x8D3 JUMPI JUMP JUMPDEST PUSH1 0x64 PUSH1 0x40 MLOAD PUSH3 0x461BCD PUSH1 0xE5 SHL DUP2 MSTORE PUSH1 0x20 PUSH1 0x4 DUP3 ADD MSTORE PUSH1 0x7 PUSH1 0x24 DUP3 ADD MSTORE PUSH32 0x6465636964656400000000000000000000000000000000000000000000000000 PUSH1 0x44 DUP3 ADD MSTORE REVERT INVALID LOG2 PUSH5 0x6970667358 0x22 SLT KECCAK256 PUSH12 0x59546B3232F8AAA5E2F92FCB 0xDD PUSH12 0xCEF3013A45A3FE987D2E2F9F 0xB8 PC CREATE 0xD7 PUSH11 0x64736F6C63430008180033 "},"methodIdentifiers":{"finalize(bytes32)":"92584d80","governance()":"5aa6e675","jurors(address)":"dca5f6b0","requestUnstake(uint256)":"23095721","setQuorum(bytes32,uint256)":"2d13e773","slash(address,uint256)":"02fb4d85","stake()":"3a4b66f1","tallies(bytes32)":"346bec3a","totalStaked()":"817b1cd2","vote(bytes32,bool)":"9f2ce678"}}}}}