{"contracts/MonadRelief.sol":{"MonadRelief":{"abi":[{"inputs":[{"internalType":"address","name":"_governance","type":"address"}],"stateMutability":"nonpayable","type":"constructor"},{"anonymous":false,"inputs":[{"indexed":true,"internalType":"bytes32","name":"id","type":"bytes32"},{"indexed":true,"internalType":"address","name":"wallet","type":"address"}],"name":"BeneficiaryRegistered","type":"event"},{"anonymous":false,"inputs":[{"indexed":true,"internalType":"bytes32","name":"id","type":"bytes32"},{"indexed":true,"internalType":"address","name":"wallet","type":"address"}],"name":"BeneficiaryVerified","type":"event"},{"anonymous":false,"inputs":[{"indexed":true,"internalType":"bytes32","name":"beneficiaryId","type":"bytes32"},{"indexed":true,"internalType":"address","name":"wallet","type":"address"},{"indexed":false,"internalType":"uint256","name":"amount","type":"uint256"}],"name":"Disbursement","type":"event"},{"anonymous":false,"inputs":[{"indexed":true,"internalType":"address","name":"donor","type":"address"},{"indexed":false,"internalType":"uint256","name":"amount","type":"uint256"},{"indexed":true,"internalType":"bytes32","name":"beneficiaryId","type":"bytes32"}],"name":"Donation","type":"event"},{"inputs":[{"internalType":"bytes32","name":"","type":"bytes32"}],"name":"beneficiaries","outputs":[{"internalType":"address","name":"wallet","type":"address"},{"internalType":"bool","name":"verified","type":"bool"},{"internalType":"uint256","name":"totalReceived","type":"uint256"}],"stateMutability":"view","type":"function"},{"inputs":[{"internalType":"bytes32","name":"beneficiaryId","type":"bytes32"}],"name":"donate","outputs":[],"stateMutability":"payable","type":"function"},{"inputs":[{"internalType":"address","name":"","type":"address"}],"name":"donorHasDonated","outputs":[{"internalType":"bool","name":"","type":"bool"}],"stateMutability":"view","type":"function"},{"inputs":[],"name":"governance","outputs":[{"internalType":"address","name":"","type":"address"}],"stateMutability":"view","type":"function"},{"inputs":[{"internalType":"bytes32","name":"id","type":"bytes32"},{"internalType":"address","name":"wallet","type":"address"}],"name":"registerBeneficiary","outputs":[],"stateMutability":"nonpayable","type":"function"},{"inputs":[{"internalType":"bytes32","name":"id","type":"bytes32"},{"internalType":"bool","name":"verified","type":"bool"}],"name":"setVerified","outputs":[],"stateMutability":"nonpayable","type":"function"},{"inputs":[],"name":"totalDisbursed","outputs":[{"internalType":"uint256","name":"","type":"uint256"}],"stateMutability":"view","type":"function"},{"inputs":[],"name":"totalDonationCount","outputs":[{"internalType":"uint256","name":"","type":"uint256"}],"stateMutability":"view","type":"function"},{"inputs":[],"name":"totalDonations","outputs":[{"internalType":"uint256","name":"","type":"uint256"}],"stateMutability":"view","type":"function"},{"inputs":[],"name":"uniqueDonorCount","outputs":[{"internalType":"uint256","name":"","type":"uint256"}],"stateMutability":"view","type":"function"}],"evm":{"bytecode":{"linkReferences":{},"object":"6080346100b457601f61089a38819003918201601f19168301916001600160401b038311848410176100b9578084926020946040528339810103126100b457516001600160a01b038116908190036100b457801561007a57600080546001600160a01b0319169190911790556040516107ca90816100d08239f35b60405162461bcd60e51b8152602060048201526012602482015271696e76616c696420676f7665726e616e636560701b6044820152606490fd5b600080fd5b634e487b7160e01b600052604160045260246000fdfe608060408181526004918236101561001657600080fd5b600092833560e01c9182630b024f871461070a575081631122e86a146105fb57816339cd53ee146105a357816355a7c435146104675781635aa6e67514610434578163603090bc1461041657816387aa86c9146103c7578163bf95c78d146103a8578163c37067fa146100b4575063de2ed8931461009357600080fd5b346100b057816003193601126100b0576020906001549051908152f35b5080fd5b90506020806003193601126103a4578135913415610363578285526005825283852080549173ffffffffffffffffffffffffffffffffffffffff92838116156103215760a01c60ff16156102df57600190610110348354610771565b82556003548281018091116102cc576003553388526006855286882082815460ff811615610291575b5050508780808034888854165af13d1561028c5767ffffffffffffffff3d81811161027957895191601f82017fffffffffffffffffffffffffffffffffffffffffffffffffffffffffffffffe0908116603f0116830190811183821017610266578a52815289873d92013e5b156102245750907f8489523a0949d54d08ae65a8576d31d3b14c72c328a833f30dbb9d02505a77c093929181016101dd348254610771565b90556101eb34600254610771565b6002558486513481527f4653725aaef32330a11da5e47adc56343bba69a948d45aa8e3dbdd2c0b9bd6bb853392a354169351348152a380f35b6064908588519162461bcd60e51b8352820152600f60248201527f7472616e73666572206661696c656400000000000000000000000000000000006044820152fd5b60248c604187634e487b7160e01b835252fd5b60248b604186634e487b7160e01b835252fd5b6101a5565b7fffffffffffffffffffffffffffffffffffffffffffffffffffffffffffffff001617905580548281018091116102cc578155388281610139565b602489601184634e487b7160e01b835252fd5b6064908487519162461bcd60e51b8352820152600c60248201527f6e6f7420766572696669656400000000000000000000000000000000000000006044820152fd5b6064828689519162461bcd60e51b8352820152601360248201527f62656e6566696369617279206d697373696e67000000000000000000000000006044820152fd5b60649184519162461bcd60e51b8352820152600860248201527f6e6f2076616c75650000000000000000000000000000000000000000000000006044820152fd5b8380fd5b5050346100b057816003193601126100b0576020906002549051908152f35b905034610412576020600319360112610412573573ffffffffffffffffffffffffffffffffffffffff811680910361041257818360ff92602095526006855220541690519015158152f35b8280fd5b90503461041257826003193601126104125760209250549051908152f35b5050346100b057816003193601126100b05773ffffffffffffffffffffffffffffffffffffffff60209254169051908152f35b919050346104125780600319360112610412578135906024359273ffffffffffffffffffffffffffffffffffffffff9081851680950361059f576104af828754163314610726565b841561055c5783865260056020528286209283549283166105195750507fffffffffffffffffffffffff000000000000000000000000000000000000000016831790557f1c9f5621ee6f6af9be0e5ae206668daca7bdf54261404215d2da0b7920322fb08380a380f35b906020606492519162461bcd60e51b8352820152600660248201527f65786973747300000000000000000000000000000000000000000000000000006044820152fd5b606490602084519162461bcd60e51b8352820152600e60248201527f696e76616c69642077616c6c65740000000000000000000000000000000000006044820152fd5b8580fd5b90503461041257602060031936011261041257606092829135815260056020522090600182549201549060ff81519373ffffffffffffffffffffffffffffffffffffffff8116855260a01c1615156020840152820152f35b9050346104125781600319360112610412578035906024358015158091036107065773ffffffffffffffffffffffffffffffffffffffff90610641828754163314610726565b83865260056020528486209283549283169586156106c357505074ff00000000000000000000000000000000000000007fffffffffffffffffffffff00ffffffffffffffffffffffffffffffffffffffff9160a01b1691161790557f94e8681fba1879bf5310f5d1a71446dcdcb68feb7669a1c90fa28a28efc633e68380a380f35b906020606492519162461bcd60e51b8352820152600960248201527f6e6f7420666f756e6400000000000000000000000000000000000000000000006044820152fd5b8480fd5b8490346100b057816003193601126100b0576020906003548152f35b1561072d57565b606460405162461bcd60e51b815260206004820152600f60248201527f6f6e6c7920676f7665726e616e636500000000000000000000000000000000006044820152fd5b9190820180921161077e57565b634e487b7160e01b600052601160045260246000fdfea264697066735822122004900a2de1c279441d99e2321e6ab274a61ccc0df291707f9b541ae79385878864736f6c63430008180033","opcodes":"PUSH1 0x80 CALLVALUE PUSH2 0xB4 JUMPI PUSH1 0x1F PUSH2 0x89A CODESIZE DUP2 SWAP1 SUB SWAP2 DUP3 ADD PUSH1 0x1F NOT AND DUP4 ADD SWAP2 PUSH1 0x1 PUSH1 0x1 PUSH1 0x40 SHL SUB DUP4 GT DUP5 DUP5 LT OR PUSH2 0xB9 JUMPI DUP1 DUP5 SWAP3 PUSH1 0x20 SWAP5 PUSH1 0x40 MSTORE DUP4 CODECOPY DUP2 ADD SUB SLT PUSH2 0xB4 JUMPI MLOAD PUSH1 0x1 PUSH1 0x1 PUSH1 0xA0 SHL SUB DUP2 AND SWAP1 DUP2 SWAP1 SUB PUSH2 0xB4 JUMPI DUP1 ISZERO PUSH2 0x7A JUMPI PUSH1 0x0 DUP1 SLOAD PUSH1 0x1 PUSH1 0x1 PUSH1 0xA0 SHL SUB NOT AND SWAP2 SWAP1 SWAP2 OR SWAP1 SSTORE PUSH1 0x40 MLOAD PUSH2 0x7CA SWAP1 DUP2 PUSH2 0xD0 DUP3 CODECOPY RETURN JUMPDEST PUSH1 0x40 MLOAD PUSH3 0x461BCD PUSH1 0xE5 SHL DUP2 MSTORE PUSH1 0x20 PUSH1 0x4 DUP3 ADD MSTORE PUSH1 0x12 PUSH1 0x24 DUP3 ADD MSTORE PUSH18 0x696E76616C696420676F7665726E616E6365 PUSH1 0x70 SHL PUSH1 0x44 DUP3 ADD MSTORE PUSH1 0x64 SWAP1 REVERT JUMPDEST PUSH1 0x0 DUP1 REVERT JUMPDEST PUSH4 0x4E487B71 PUSH1 0xE0 SHL PUSH1 0x0 MSTORE PUSH1 0x41 PUSH1 0x4 MSTORE PUSH1 0x24 PUSH1 0x0 REVERT INVALID PUSH1 0x80 PUSH1 0x40 DUP2 DUP2 MSTORE PUSH1 0x4 SWAP2 DUP3 CALLDATASIZE LT ISZERO PUSH2 0x16 JUMPI PUSH1 0x0 DUP1 REVERT JUMPDEST PUSH1 0x0 SWAP3 DUP4 CALLDATALOAD PUSH1 0xE0 SHR SWAP2 DUP3 PUSH4 0xB024F87 EQ PUSH2 0x70A JUMPI POP DUP2 PUSH4 0x1122E86A EQ PUSH2 0x5FB JUMPI DUP2 PUSH4 0x39CD53EE EQ PUSH2 0x5A3 JUMPI DUP2 PUSH4 0x55A7C435 EQ PUSH2 0x467 JUMPI DUP2 PUSH4 0x5AA6E675 EQ PUSH2 0x434 JUMPI DUP2 PUSH4 0x603090BC EQ PUSH2 0x416 JUMPI DUP2 PUSH4 0x87AA86C9 EQ PUSH2 0x3C7 JUMPI DUP2 PUSH4 0xBF95C78D EQ PUSH2 0x3A8 JUMPI DUP2 PUSH4 0xC37067FA EQ PUSH2 0xB4 JUMPI POP PUSH4 0xDE2ED893 EQ PUSH2 0x93 JUMPI PUSH1 0x0 DUP1 REVERT JUMPDEST CALLVALUE PUSH2 0xB0 JUMPI DUP2 PUSH1 0x3 NOT CALLDATASIZE ADD SLT PUSH2 0xB0 JUMPI PUSH1 0x20 SWAP1 PUSH1 0x1 SLOAD SWAP1 MLOAD SWAP1 DUP2 MSTORE RETURN JUMPDEST POP DUP1 REVERT JUMPDEST SWAP1 POP PUSH1 0x20 DUP1 PUSH1 0x3 NOT CALLDATASIZE ADD SLT PUSH2 0x3A4 JUMPI DUP2 CALLDATALOAD SWAP2 CALLVALUE ISZERO PUSH2 0x363 JUMPI DUP3 DUP6 MSTORE PUSH1 0x5 DUP3 MSTORE DUP4 DUP6 KECCAK256 DUP1 SLOAD SWAP2 PUSH20 0xFFFFFFFFFFFFFFFFFFFFFFFFFFFFFFFFFFFFFFFF SWAP3 DUP4 DUP2 AND ISZERO PUSH2 0x321 JUMPI PUSH1 0xA0 SHR PUSH1 0xFF AND ISZERO PUSH2 0x2DF JUMPI PUSH1 0x1 SWAP1 PUSH2 0x110 CALLVALUE DUP4 SLOAD PUSH2 0x771 JUMP JUMPDEST DUP3 SSTORE PUSH1 0x3 SLOAD DUP3 DUP2 ADD DUP1 SWAP2 GT PUSH2 0x2CC JUMPI PUSH1 0x3 SSTORE CALLER DUP9 MSTORE PUSH1 0x6 DUP6 MSTORE DUP7 DUP9 KECCAK256 DUP3 DUP2 SLOAD PUSH1 0xFF DUP2 AND ISZERO PUSH2 0x291 JUMPI JUMPDEST POP POP POP DUP8 DUP1 DUP1 DUP1 CALLVALUE DUP9 DUP9 SLOAD AND GAS CALL RETURNDATASIZE ISZERO PUSH2 0x28C JUMPI PUSH8 0xFFFFFFFFFFFFFFFF RETURNDATASIZE DUP2 DUP2 GT PUSH2 0x279 JUMPI DUP10 MLOAD SWAP2 PUSH1 0x1F DUP3 ADD PUSH32 0xFFFFFFFFFFFFFFFFFFFFFFFFFFFFFFFFFFFFFFFFFFFFFFFFFFFFFFFFFFFFFFE0 SWAP1 DUP2 AND PUSH1 0x3F ADD AND DUP4 ADD SWAP1 DUP2 GT DUP4 DUP3 LT OR PUSH2 0x266 JUMPI DUP11 MSTORE DUP2 MSTORE DUP10 DUP8 RETURNDATASIZE SWAP3 ADD RETURNDATACOPY JUMPDEST ISZERO PUSH2 0x224 JUMPI POP SWAP1 PUSH32 0x8489523A0949D54D08AE65A8576D31D3B14C72C328A833F30DBB9D02505A77C0 SWAP4 SWAP3 SWAP2 DUP2 ADD PUSH2 0x1DD CALLVALUE DUP3 SLOAD PUSH2 0x771 JUMP JUMPDEST SWAP1 SSTORE PUSH2 0x1EB CALLVALUE PUSH1 0x2 SLOAD PUSH2 0x771 JUMP JUMPDEST PUSH1 0x2 SSTORE DUP5 DUP7 MLOAD CALLVALUE DUP2 MSTORE PUSH32 0x4653725AAEF32330A11DA5E47ADC56343BBA69A948D45AA8E3DBDD2C0B9BD6BB DUP6 CALLER SWAP3 LOG3 SLOAD AND SWAP4 MLOAD CALLVALUE DUP2 MSTORE LOG3 DUP1 RETURN JUMPDEST PUSH1 0x64 SWAP1 DUP6 DUP9 MLOAD SWAP2 PUSH3 0x461BCD PUSH1 0xE5 SHL DUP4 MSTORE DUP3 ADD MSTORE PUSH1 0xF PUSH1 0x24 DUP3 ADD MSTORE PUSH32 0x7472616E73666572206661696C65640000000000000000000000000000000000 PUSH1 0x44 DUP3 ADD MSTORE REVERT JUMPDEST PUSH1 0x24 DUP13 PUSH1 0x41 DUP8 PUSH4 0x4E487B71 PUSH1 0xE0 SHL DUP4 MSTORE MSTORE REVERT JUMPDEST PUSH1 0x24 DUP12 PUSH1 0x41 DUP7 PUSH4 0x4E487B71 PUSH1 0xE0 SHL DUP4 MSTORE MSTORE REVERT JUMPDEST PUSH2 0x1A5 JUMP JUMPDEST PUSH32 0xFFFFFFFFFFFFFFFFFFFFFFFFFFFFFFFFFFFFFFFFFFFFFFFFFFFFFFFFFFFFFF00 AND OR SWAP1 SSTORE DUP1 SLOAD DUP3 DUP2 ADD DUP1 SWAP2 GT PUSH2 0x2CC JUMPI DUP2 SSTORE CODESIZE DUP3 DUP2 PUSH2 0x139 JUMP JUMPDEST PUSH1 0x24 DUP10 PUSH1 0x11 DUP5 PUSH4 0x4E487B71 PUSH1 0xE0 SHL DUP4 MSTORE MSTORE REVERT JUMPDEST PUSH1 0x64 SWAP1 DUP5 DUP8 MLOAD SWAP2 PUSH3 0x461BCD PUSH1 0xE5 SHL DUP4 MSTORE DUP3 ADD MSTORE PUSH1 0xC PUSH1 0x24 DUP3 ADD MSTORE PUSH32 0x6E6F742076657269666965640000000000000000000000000000000000000000 PUSH1 0x44 DUP3 ADD MSTORE REVERT JUMPDEST PUSH1 0x64 DUP3 DUP7 DUP10 MLOAD SWAP2 PUSH3 0x461BCD PUSH1 0xE5 SHL DUP4 MSTORE DUP3 ADD MSTORE PUSH1 0x13 PUSH1 0x24 DUP3 ADD MSTORE PUSH32 0x62656E6566696369617279206D697373696E6700000000000000000000000000 PUSH1 0x44 DUP3 ADD MSTORE REVERT JUMPDEST PUSH1 0x64 SWAP2 DUP5 MLOAD SWAP2 PUSH3 0x461BCD PUSH1 0xE5 SHL DUP4 MSTORE DUP3 ADD MSTORE PUSH1 0x8 PUSH1 0x24 DUP3 ADD MSTORE PUSH32 0x6E6F2076616C7565000000000000000000000000000000000000000000000000 PUSH1 0x44 DUP3 ADD MSTORE REVERT JUMPDEST DUP4 DUP1 REVERT JUMPDEST POP POP CALLVALUE PUSH2 0xB0 JUMPI DUP2 PUSH1 0x3 NOT CALLDATASIZE ADD SLT PUSH2 0xB0 JUMPI PUSH1 0x20 SWAP1 PUSH1 0x2 SLOAD SWAP1 MLOAD SWAP1 DUP2 MSTORE RETURN JUMPDEST SWAP1 POP CALLVALUE PUSH2 0x412 JUMPI PUSH1 0x20 PUSH1 0x3 NOT CALLDATASIZE ADD SLT PUSH2 0x412 JUMPI CALLDATALOAD PUSH20 0xFFFFFFFFFFFFFFFFFFFFFFFFFFFFFFFFFFFFFFFF DUP2 AND DUP1 SWAP2 SUB PUSH2 0x412 JUMPI DUP2 DUP4 PUSH1 0xFF SWAP3 PUSH1 0x20 SWAP6 MSTORE PUSH1 0x6 DUP6 MSTORE KECCAK256 SLOAD AND SWAP1 MLOAD SWAP1 ISZERO ISZERO DUP2 MSTORE RETURN JUMPDEST DUP3 DUP1 REVERT JUMPDEST SWAP1 POP CALLVALUE PUSH2 0x412 JUMPI DUP3 PUSH1 0x3 NOT CALLDATASIZE ADD SLT PUSH2 0x412 JUMPI PUSH1 0x20 SWAP3 POP SLOAD SWAP1 MLOAD SWAP1 DUP2 MSTORE RETURN JUMPDEST POP POP CALLVALUE PUSH2 0xB0 JUMPI DUP2 PUSH1 0x3 NOT CALLDATASIZE ADD SLT PUSH2 0xB0 JUMPI PUSH20 0xFFFFFFFFFFFFFFFFFFFFFFFFFFFFFFFFFFFFFFFF PUSH1 0x20 SWAP3 SLOAD AND SWAP1 MLOAD SWAP1 DUP2 MSTORE RETURN JUMPDEST SWAP2 SWAP1 POP CALLVALUE PUSH2 0x412 JUMPI DUP1 PUSH1 0x3 NOT CALLDATASIZE ADD SLT PUSH2 0x412 JUMPI DUP2 CALLDATALOAD SWAP1 PUSH1 0x24 CALLDATALOAD SWAP3 PUSH20 0xFFFFFFFFFFFFFFFFFFFFFFFFFFFFFFFFFFFFFFFF SWAP1 DUP2 DUP6 AND DUP1 SWAP6 SUB PUSH2 0x59F JUMPI PUSH2 0x4AF DUP3 DUP8 SLOAD AND CALLER EQ PUSH2 0x726 JUMP JUMPDEST DUP5 ISZERO PUSH2 0x55C JUMPI DUP4 DUP7 MSTORE PUSH1 0x5 PUSH1 0x20 MSTORE DUP3 DUP7 KECCAK256 SWAP3 DUP4 SLOAD SWAP3 DUP4 AND PUSH2 0x519 JUMPI POP POP PUSH32 0xFFFFFFFFFFFFFFFFFFFFFFFF0000000000000000000000000000000000000000 AND DUP4 OR SWAP1 SSTORE PUSH32 0x1C9F5621EE6F6AF9BE0E5AE206668DACA7BDF54261404215D2DA0B7920322FB0 DUP4 DUP1 LOG3 DUP1 RETURN JUMPDEST SWAP1 PUSH1 0x20 PUSH1 0x64 SWAP3 MLOAD SWAP2 PUSH3 0x461BCD PUSH1 0xE5 SHL DUP4 MSTORE DUP3 ADD MSTORE PUSH1 0x6 PUSH1 0x24 DUP3 ADD MSTORE PUSH32 0x6578697374730000000000000000000000000000000000000000000000000000 PUSH1 0x44 DUP3 ADD MSTORE REVERT JUMPDEST PUSH1 0x64 SWAP1 PUSH1 0x20 DUP5 MLOAD SWAP2 PUSH3 0x461BCD PUSH1 0xE5 SHL DUP4 MSTORE DUP3 ADD MSTORE PUSH1 0xE PUSH1 0x24 DUP3 ADD MSTORE PUSH32 0x696E76616C69642077616C6C6574000000000000000000000000000000000000 PUSH1 0x44 DUP3 ADD MSTORE REVERT JUMPDEST DUP6 DUP1 REVERT JUMPDEST SWAP1 POP CALLVALUE PUSH2 0x412 JUMPI PUSH1 0x20 PUSH1 0x3 NOT CALLDATASIZE ADD SLT PUSH2 0x412 JUMPI PUSH1 0x60 SWAP3 DUP3 SWAP2 CALLDATALOAD DUP2 MSTORE PUSH1 0x5 PUSH1 0x20 MSTORE KECCAK256 SWAP1 PUSH1 0x1 DUP3 SLOAD SWAP3 ADD SLOAD SWAP1 PUSH1 0xFF DUP2 MLOAD SWAP4 PUSH20 0xFFFFFFFFFFFFFFFFFFFFFFFFFFFFFFFFFFFFFFFF DUP2 AND DUP6 MSTORE PUSH1 0xA0 SHR AND ISZERO ISZERO PUSH1 0x20 DUP5 ADD MSTORE DUP3 ADD MSTORE RETURN JUMPDEST SWAP1 POP CALLVALUE PUSH2 0x412 JUMPI DUP2 PUSH1 0x3 NOT CALLDATASIZE ADD SLT PUSH2 0x412 JUMPI DUP1 CALLDATALOAD SWAP1 PUSH1 0x24 CALLDATALOAD DUP1 ISZERO ISZERO DUP1 SWAP2 SUB PUSH2 0x706 JUMPI PUSH20 0xFFFFFFFFFFFFFFFFFFFFFFFFFFFFFFFFFFFFFFFF SWAP1 PUSH2 0x641 DUP3 DUP8 SLOAD AND CALLER EQ PUSH2 0x726 JUMP JUMPDEST DUP4 DUP7 MSTORE PUSH1 0x5 PUSH1 0x20 MSTORE DUP5 DUP7 KECCAK256 SWAP3 DUP4 SLOAD SWAP3 DUP4 AND SWAP6 DUP7 ISZERO PUSH2 0x6C3 JUMPI POP POP PUSH21 0xFF0000000000000000000000000000000000000000 PUSH32 0xFFFFFFFFFFFFFFFFFFFFFF00FFFFFFFFFFFFFFFFFFFFFFFFFFFFFFFFFFFFFFFF SWAP2 PUSH1 0xA0 SHL AND SWAP2 AND OR SWAP1 SSTORE PUSH32 0x94E8681FBA1879BF5310F5D1A71446DCDCB68FEB7669A1C90FA28A28EFC633E6 DUP4 DUP1 LOG3 DUP1 RETURN JUMPDEST SWAP1 PUSH1 0x20 PUSH1 0x64 SWAP3 MLOAD SWAP2 PUSH3 0x461BCD PUSH1 0xE5 SHL DUP4 MSTORE DUP3 ADD MSTORE PUSH1 0x9 PUSH1 0x24 DUP3 ADD MSTORE PUSH32 0x6E6F7420666F756E640000000000000000000000000000000000000000000000 PUSH1 0x44 DUP3 ADD MSTORE REVERT JUMPDEST DUP5 DUP1 REVERT JUMPDEST DUP5 SWAP1 CALLVALUE PUSH2 0xB0 JUMPI DUP2 PUSH1 0x3 NOT CALLDATASIZE ADD SLT PUSH2 0xB0 JUMPI PUSH1 0x20 SWAP1 PUSH1 0x3 SLOAD DUP2 MSTORE RETURN JUMPDEST ISZERO PUSH2 0x72D JUMPI JUMP JUMPDEST PUSH1 0x64 PUSH1 0x40 MLOAD PUSH3 0x461BCD PUSH1 0xE5 SHL DUP2 MSTORE PUSH1 0x20 PUSH1 0x4 DUP3 ADD MSTORE PUSH1 0xF PUSH1 0x24 DUP3 ADD MSTORE PUSH32 0x6F6E6C7920676F7665726E616E63650000000000000000000000000000000000 PUSH1 0x44 DUP3 ADD MSTORE REVERT JUMPDEST SWAP2 SWAP1 DUP3 ADD DUP1 SWAP3 GT PUSH2 0x77E JUMPI JUMP JUMPDEST PUSH4 0x4E487B71 PUSH1 0xE0 SHL PUSH1 0x0 MSTORE PUSH1 0x11 PUSH1 0x4 MSTORE PUSH1 0x24 PUSH1 0x0 REVERT INVALID LOG2 PUSH5 0x6970667358 0x22 SLT KECCAK256 DIV SWAP1 EXP 0x2D 0xE1 0xC2 PUSH26 0x441D99E2321E6AB274A61CCC0DF291707F9B541AE79385878864 PUSH20 0x6F6C634300081800330000000000000000000000 "},"methodIdentifiers":{"beneficiaries(bytes32)":"39cd53ee","donate(bytes32)":"c37067fa","donorHasDonated(address)":"87aa86c9","governance()":"5aa6e675","registerBeneficiary(bytes32,address)":"55a7c435","setVerified(bytes32,bool)":"1122e86a","totalDisbursed()":"bf95c78d","totalDonationCount()":"0b024f87","totalDonations()":"de2ed893","uniqueDonorCount()":"603090bc"}}}}}