{"contracts/GovernmentRegistry.sol":{"GovernmentRegistry":{"abi":[{"inputs":[{"internalType":"address","name":"_governance","type":"address"}],"stateMutability":"nonpayable","type":"constructor"},{"anonymous":false,"inputs":[{"indexed":true,"internalType":"address","name":"owner","type":"address"},{"indexed":true,"internalType":"address","name":"approved","type":"address"},{"indexed":true,"internalType":"uint256","name":"tokenId","type":"uint256"}],"name":"Approval","type":"event"},{"anonymous":false,"inputs":[{"indexed":true,"internalType":"address","name":"owner","type":"address"},{"indexed":true,"internalType":"address","name":"operator","type":"address"},{"indexed":false,"internalType":"bool","name":"approved","type":"bool"}],"name":"ApprovalForAll","type":"event"},{"anonymous":false,"inputs":[{"indexed":true,"internalType":"address","name":"from","type":"address"},{"indexed":true,"internalType":"address","name":"to","type":"address"},{"indexed":true,"internalType":"uint256","name":"tokenId","type":"uint256"}],"name":"Transfer","type":"event"},{"inputs":[{"internalType":"address","name":"","type":"address"},{"internalType":"uint256","name":"","type":"uint256"}],"name":"approve","outputs":[],"stateMutability":"pure","type":"function"},{"inputs":[{"internalType":"address","name":"owner","type":"address"}],"name":"balanceOf","outputs":[{"internalType":"uint256","name":"","type":"uint256"}],"stateMutability":"view","type":"function"},{"inputs":[{"internalType":"uint256","name":"","type":"uint256"}],"name":"getApproved","outputs":[{"internalType":"address","name":"","type":"address"}],"stateMutability":"pure","type":"function"},{"inputs":[],"name":"governance","outputs":[{"internalType":"address","name":"","type":"address"}],"stateMutability":"view","type":"function"},{"inputs":[{"internalType":"address","name":"","type":"address"},{"internalType":"address","name":"","type":"address"}],"name":"isApprovedForAll","outputs":[{"internalType":"bool","name":"","type":"bool"}],"stateMutability":"pure","type":"function"},{"inputs":[{"internalType":"address","name":"wallet","type":"address"},{"internalType":"string","name":"_name","type":"string"},{"internalType":"string","name":"_position","type":"string"},{"internalType":"string","name":"_region","type":"string"},{"internalType":"string","name":"_contactId","type":"string"}],"name":"mintOfficial","outputs":[{"internalType":"uint256","name":"tokenId","type":"uint256"}],"stateMutability":"nonpayable","type":"function"},{"inputs":[],"name":"name","outputs":[{"internalType":"string","name":"","type":"string"}],"stateMutability":"view","type":"function"},{"inputs":[],"name":"nextId","outputs":[{"internalType":"uint256","name":"","type":"uint256"}],"stateMutability":"view","type":"function"},{"inputs":[{"internalType":"uint256","name":"","type":"uint256"}],"name":"officials","outputs":[{"internalType":"string","name":"name","type":"string"},{"internalType":"string","name":"position","type":"string"},{"internalType":"string","name":"region","type":"string"},{"internalType":"string","name":"contactId","type":"string"},{"internalType":"address","name":"wallet","type":"address"},{"internalType":"bool","name":"exists","type":"bool"}],"stateMutability":"view","type":"function"},{"inputs":[{"internalType":"uint256","name":"tokenId","type":"uint256"}],"name":"ownerOf","outputs":[{"internalType":"address","name":"","type":"address"}],"stateMutability":"view","type":"function"},{"inputs":[{"internalType":"address","name":"","type":"address"},{"internalType":"address","name":"","type":"address"},{"internalType":"uint256","name":"","type":"uint256"}],"name":"safeTransferFrom","outputs":[],"stateMutability":"pure","type":"function"},{"inputs":[{"internalType":"address","name":"","type":"address"},{"internalType":"address","name":"","type":"address"},{"internalType":"uint256","name":"","type":"uint256"},{"internalType":"bytes","name":"","type":"bytes"}],"name":"safeTransferFrom","outputs":[],"stateMutability":"pure","type":"function"},{"inputs":[{"internalType":"address","name":"","type":"address"},{"internalType":"bool","name":"","type":"bool"}],"name":"setApprovalForAll","outputs":[],"stateMutability":"pure","type":"function"},{"inputs":[{"internalType":"bytes4","name":"interfaceId","type":"bytes4"}],"name":"supportsInterface","outputs":[{"internalType":"bool","name":"","type":"bool"}],"stateMutability":"pure","type":"function"},{"inputs":[],"name":"symbol","outputs":[{"internalType":"string","name":"","type":"string"}],"stateMutability":"view","type":"function"},{"inputs":[{"internalType":"address","name":"","type":"address"},{"internalType":"address","name":"","type":"address"},{"internalType":"uint256","name":"","type":"uint256"}],"name":"transferFrom","outputs":[],"stateMutability":"pure","type":"function"},{"inputs":[{"internalType":"address","name":"","type":"address"}],"name":"walletToTokenId","outputs":[{"internalType":"uint256","name":"","type":"uint256"}],"stateMutability":"view","type":"function"}],"evm":{"bytecode":{"linkReferences":{},"object":"6080346200017c57601f620011ea38819003918201601f19168301916001600160401b0383118484101762000181578084926020946040528339810103126200017c57516001600160a01b038116908190036200017c57600062000064815462000197565b601f81116200014f575b50603e7f4d6f6e616452656c69656620476f7665726e6d656e74204f6666696369616c00018155600190620000a560015462000197565b90601f821162000122575b5050600c6526a916a3a7ab60d11b016001908155600355508015620000f357600280546001600160a01b0319169190911790556040516110159081620001d58239f35b60405162461bcd60e51b81526020600482015260076024820152663130b21033b7bb60c91b6044820152606490fd5b60018152601f60208220920160051c8201915b828110620001445750620000b0565b818155830162000135565b818052601f60208320910160051c8101905b8181106200017057506200006e565b82815560010162000161565b600080fd5b634e487b7160e01b600052604160045260246000fd5b90600182811c92168015620001c9575b6020831014620001b357565b634e487b7160e01b600052602260045260246000fd5b91607f1691620001a756fe608080604052600436101561001357600080fd5b60003560e01c90816301ffc9a714610d035750806306fdde0314610c58578063081812fc14610c3c578063095ea7b314610c1d57806323b872dd14610c1857806342842e0e14610c185780635aa6e67514610bf157806361b8ce8c14610bd35780636352211e14610b3a57806370a0823114610ae957806395d89b4114610a0257806397ad6afd146109415780639c2806c714610907578063a22cb465146108dd578063b88d4fde1461087f578063d2052f601461010d5763e985e9c5146100da57600080fd5b34610108576040600319360112610108576100f3610ee4565b506100fc610efa565b50602060405160008152f35b600080fd5b346101085760a060031936011261010857610126610ee4565b60243567ffffffffffffffff811161010857610146903690600401610f44565b9060443567ffffffffffffffff811161010857610167903690600401610f44565b60643567ffffffffffffffff811161010857610187903690600401610f44565b60843567ffffffffffffffff8111610108576101a7903690600401610f44565b906001600160a01b0360025416330361083b576001600160a01b038416156107f7576001600160a01b03841660005260056020526040600020546107b35760035492600019841461079d5760018401600355604051958660c081011067ffffffffffffffff60c0890111176105325760c0870160405286526020860152604085015260608401526001600160a01b0382166080840152600160a0840152806000526004602052604060002092805180519067ffffffffffffffff82116105325781906102738754610da1565b601f811161074d575b50602090601f83116001146106e9576000926106de575b50506000198260011b9260031b1c19161784555b602081015180519067ffffffffffffffff82116105325781906102cd6001880154610da1565b601f811161068b575b50602090601f831160011461061e57600092610613575b50506000198260011b9260031b1c19161760018501555b604081015180519067ffffffffffffffff821161053257819061032a6002880154610da1565b601f81116105c0575b50602090601f831160011461055357600092610548575b50506000198260011b9260031b1c19161760028501555b606081015193845167ffffffffffffffff8111610532576103856003830154610da1565b95601f87116104eb575b602096508690601f831160011461047a5760049392916000918361046f575b50506000198260011b9260031b1c19161760038201555b01906001600160a01b036080820151167fffffffffffffffffffffff00000000000000000000000000000000000000000074ff000000000000000000000000000000000000000060a08554940151151560a01b169216171790556001600160a01b0382166000526005835280604060002055806001600160a01b03604051931660007fddf252ad1be2c89b69c2b068fc378daa952ba7f163c4a11628f55a4df523b3ef8180a48152f35b0151905088806103ae565b9060038401600052876000209160005b601f19851681106104d4575091839160019383601f196004989716106104bb575b505050811b0160038201556103c5565b015160001960f88460031b161c191690558880806104ab565b91928960018192868501518155019401920161048a565b600383016000526020600020601f830160051c81016020841061052b575b601f890160051c8201811061051f57505061038f565b60008155600101610509565b5080610509565b634e487b7160e01b600052604160045260246000fd5b01519050868061034a565b91601f1916916002880160005260206000209260005b8181106105a8575090846001959493921061058f575b505050811b016002850155610361565b015160001960f88460031b161c1916905586808061057f565b92936020600181928786015181550195019301610569565b909150600287016000526020600020601f840160051c81016020851061060c575b90849392915b601f830160051c820181106105fd575050610333565b600081558594506001016105e7565b50806105e1565b0151905086806102ed565b91601f1916916001880160005260206000209260005b818110610673575090846001959493921061065a575b505050811b016001850155610304565b015160001960f88460031b161c1916905586808061064a565b92936020600181928786015181550195019301610634565b909150600187016000526020600020601f840160051c8101602085106106d7575b90849392915b601f830160051c820181106106c85750506102d6565b600081558594506001016106b2565b50806106ac565b015190508680610293565b60008881526020812093601f1916905b818110610735575090846001959493921061071c575b505050811b0184556102a7565b015160001960f88460031b161c1916905586808061070f565b929360206001819287860151815501950193016106f9565b909150866000526020600020601f840160051c810160208510610796575b90849392915b601f830160051c8201811061078757505061027c565b60008155859450600101610771565b508061076b565b634e487b7160e01b600052601160045260246000fd5b606460405162461bcd60e51b815260206004820152600660248201527f65786973747300000000000000000000000000000000000000000000000000006044820152fd5b606460405162461bcd60e51b815260206004820152600a60248201527f6261642077616c6c6574000000000000000000000000000000000000000000006044820152fd5b606460405162461bcd60e51b815260206004820152600860248201527f6f6e6c7920676f760000000000000000000000000000000000000000000000006044820152fd5b3461010857608060031936011261010857610898610ee4565b506108a1610efa565b5060643567ffffffffffffffff8082116101085736602383011215610108578160040135908111610108573691016024011115610f9b57600080fd5b34610108576040600319360112610108576108f6610ee4565b5060243580151514610f9b57600080fd5b34610108576020600319360112610108576001600160a01b03610928610ee4565b1660005260056020526020604060002054604051908152f35b346101085760206003193601126101085760043560005260046020526109b9604060002061096e81610dfe565b9060ff6109e361098060018401610dfe565b926109d561099060028301610dfe565b6109c760046109a160038601610dfe565b94015496604051998a9960c08b5260c08b0190610ea4565b9089820360208b0152610ea4565b908782036040890152610ea4565b908582036060870152610ea4565b916001600160a01b038116608085015260a01c16151560a08301520390f35b3461010857600060031936011261010857604051600060018260015492610a2884610da1565b9283835260209485600182169182600014610ac9575050600114610a6c575b50610a5492500383610ddb565b610a68604051928284938452830190610ea4565b0390f35b84915060016000527fb10e2d527612073b26eecdfd717e6a320cf44b4afac2b0732d9fcbe2b7fa0cf6906000915b858310610ab1575050610a54935082010185610a47565b80548389018501528794508693909201918101610a9a565b60ff191685820152610a5495151560051b8501019250879150610a479050565b34610108576020600319360112610108576001600160a01b03610b0a610ee4565b16600052600560205260406000205415600014610b3157602060005b60ff60405191168152f35b60206001610b26565b346101085760206003193601126101085760043580600052600460205260ff60046040600020015460a01c1615610b8f57600052600460205260206001600160a01b0360046040600020015416604051908152f35b606460405162461bcd60e51b815260206004820152600860248201527f6e6f20746f6b656e0000000000000000000000000000000000000000000000006044820152fd5b34610108576000600319360112610108576020600354604051908152f35b346101085760006003193601126101085760206001600160a01b0360025416604051908152f35b610f10565b3461010857604060031936011261010857610c36610ee4565b50610f9b565b3461010857602060031936011261010857602060405160008152f35b3461010857600060031936011261010857604051600080549082610c7b83610da1565b9182825260209360019085600182169182600014610ac9575050600114610ca95750610a5492500383610ddb565b6000808052859250907f290decd9548b62a8d60345a988386fc84ba6bc95484008f6362f93160ef3e5635b858310610ceb575050610a54935082010185610a47565b80548389018501528794508693909201918101610cd4565b3461010857602060031936011261010857600435907fffffffff00000000000000000000000000000000000000000000000000000000821680920361010857817f01ffc9a70000000000000000000000000000000000000000000000000000000060209314908115610d77575b5015158152f35b7ff26f58160000000000000000000000000000000000000000000000000000000091501483610d70565b90600182811c92168015610dd1575b6020831014610dbb57565b634e487b7160e01b600052602260045260246000fd5b91607f1691610db0565b90601f601f19910116810190811067ffffffffffffffff82111761053257604052565b90604051918260008254610e1181610da1565b90818452602094600191600181169081600014610e815750600114610e42575b505050610e4092500383610ddb565b565b600090815285812095935091905b818310610e69575050610e409350820101388080610e31565b85548884018501529485019487945091830191610e50565b915050610e4095935060ff1991501682840152151560051b820101388080610e31565b919082519283825260005b848110610ed0575050601f19601f8460006020809697860101520116010190565b602081830181015184830182015201610eaf565b600435906001600160a01b038216820361010857565b602435906001600160a01b038216820361010857565b34610108576060600319360112610108576001600160a01b03600435818116036101085760243590811614610f9b57600080fd5b81601f820112156101085780359067ffffffffffffffff82116105325760405192610f796020601f19601f8601160185610ddb565b8284526020838301011161010857816000926020809301838601378301015290565b606460405162461bcd60e51b815260206004820152600960248201527f736f756c626f756e6400000000000000000000000000000000000000000000006044820152fdfea26469706673582212205f6b44c1689e13dea42d3017133ea6220f4989822832b92d37f08277f361fff764736f6c63430008180033","opcodes":"PUSH1 0x80 CALLVALUE PUSH3 0x17C JUMPI PUSH1 0x1F PUSH3 0x11EA CODESIZE DUP2 SWAP1 SUB SWAP2 DUP3 ADD PUSH1 0x1F NOT AND DUP4 ADD SWAP2 PUSH1 0x1 PUSH1 0x1 PUSH1 0x40 SHL SUB DUP4 GT DUP5 DUP5 LT OR PUSH3 0x181 JUMPI DUP1 DUP5 SWAP3 PUSH1 0x20 SWAP5 PUSH1 0x40 MSTORE DUP4 CODECOPY DUP2 ADD SUB SLT PUSH3 0x17C JUMPI MLOAD PUSH1 0x1 PUSH1 0x1 PUSH1 0xA0 SHL SUB DUP2 AND SWAP1 DUP2 SWAP1 SUB PUSH3 0x17C JUMPI PUSH1 0x0 PUSH3 0x64 DUP2 SLOAD PUSH3 0x197 JUMP JUMPDEST PUSH1 0x1F DUP2 GT PUSH3 0x14F JUMPI JUMPDEST POP PUSH1 0x3E PUSH32 0x4D6F6E616452656C69656620476F7665726E6D656E74204F6666696369616C00 ADD DUP2 SSTORE PUSH1 0x1 SWAP1 PUSH3 0xA5 PUSH1 0x1 SLOAD PUSH3 0x197 JUMP JUMPDEST SWAP1 PUSH1 0x1F DUP3 GT PUSH3 0x122 JUMPI JUMPDEST POP POP PUSH1 0xC PUSH6 0x26A916A3A7AB PUSH1 0xD1 SHL ADD PUSH1 0x1 SWAP1 DUP2 SSTORE PUSH1 0x3 SSTORE POP DUP1 ISZERO PUSH3 0xF3 JUMPI PUSH1 0x2 DUP1 SLOAD PUSH1 0x1 PUSH1 0x1 PUSH1 0xA0 SHL SUB NOT AND SWAP2 SWAP1 SWAP2 OR SWAP1 SSTORE PUSH1 0x40 MLOAD PUSH2 0x1015 SWAP1 DUP2 PUSH3 0x1D5 DUP3 CODECOPY RETURN JUMPDEST PUSH1 0x40 MLOAD PUSH3 0x461BCD PUSH1 0xE5 SHL DUP2 MSTORE PUSH1 0x20 PUSH1 0x4 DUP3 ADD MSTORE PUSH1 0x7 PUSH1 0x24 DUP3 ADD MSTORE PUSH7 0x3130B21033B7BB PUSH1 0xC9 SHL PUSH1 0x44 DUP3 ADD MSTORE PUSH1 0x64 SWAP1 REVERT JUMPDEST PUSH1 0x1 DUP2 MSTORE PUSH1 0x1F PUSH1 0x20 DUP3 KECCAK256 SWAP3 ADD PUSH1 0x5 SHR DUP3 ADD SWAP2 JUMPDEST DUP3 DUP2 LT PUSH3 0x144 JUMPI POP PUSH3 0xB0 JUMP JUMPDEST DUP2 DUP2 SSTORE DUP4 ADD PUSH3 0x135 JUMP JUMPDEST DUP2 DUP1 MSTORE PUSH1 0x1F PUSH1 0x20 DUP4 KECCAK256 SWAP2 ADD PUSH1 0x5 SHR DUP2 ADD SWAP1 JUMPDEST DUP2 DUP2 LT PUSH3 0x170 JUMPI POP PUSH3 0x6E JUMP JUMPDEST DUP3 DUP2 SSTORE PUSH1 0x1 ADD PUSH3 0x161 JUMP JUMPDEST PUSH1 0x0 DUP1 REVERT JUMPDEST PUSH4 0x4E487B71 PUSH1 0xE0 SHL PUSH1 0x0 MSTORE PUSH1 0x41 PUSH1 0x4 MSTORE PUSH1 0x24 PUSH1 0x0 REVERT JUMPDEST SWAP1 PUSH1 0x1 DUP3 DUP2 SHR SWAP3 AND DUP1 ISZERO PUSH3 0x1C9 JUMPI JUMPDEST PUSH1 0x20 DUP4 LT EQ PUSH3 0x1B3 JUMPI JUMP JUMPDEST PUSH4 0x4E487B71 PUSH1 0xE0 SHL PUSH1 0x0 MSTORE PUSH1 0x22 PUSH1 0x4 MSTORE PUSH1 0x24 PUSH1 0x0 REVERT JUMPDEST SWAP2 PUSH1 0x7F AND SWAP2 PUSH3 0x1A7 JUMP INVALID PUSH1 0x80 DUP1 PUSH1 0x40 MSTORE PUSH1 0x4 CALLDATASIZE LT ISZERO PUSH2 0x13 JUMPI PUSH1 0x0 DUP1 REVERT JUMPDEST PUSH1 0x0 CALLDATALOAD PUSH1 0xE0 SHR SWAP1 DUP2 PUSH4 0x1FFC9A7 EQ PUSH2 0xD03 JUMPI POP DUP1 PUSH4 0x6FDDE03 EQ PUSH2 0xC58 JUMPI DUP1 PUSH4 0x81812FC EQ PUSH2 0xC3C JUMPI DUP1 PUSH4 0x95EA7B3 EQ PUSH2 0xC1D JUMPI DUP1 PUSH4 0x23B872DD EQ PUSH2 0xC18 JUMPI DUP1 PUSH4 0x42842E0E EQ PUSH2 0xC18 JUMPI DUP1 PUSH4 0x5AA6E675 EQ PUSH2 0xBF1 JUMPI DUP1 PUSH4 0x61B8CE8C EQ PUSH2 0xBD3 JUMPI DUP1 PUSH4 0x6352211E EQ PUSH2 0xB3A JUMPI DUP1 PUSH4 0x70A08231 EQ PUSH2 0xAE9 JUMPI DUP1 PUSH4 0x95D89B41 EQ PUSH2 0xA02 JUMPI DUP1 PUSH4 0x97AD6AFD EQ PUSH2 0x941 JUMPI DUP1 PUSH4 0x9C2806C7 EQ PUSH2 0x907 JUMPI DUP1 PUSH4 0xA22CB465 EQ PUSH2 0x8DD JUMPI DUP1 PUSH4 0xB88D4FDE EQ PUSH2 0x87F JUMPI DUP1 PUSH4 0xD2052F60 EQ PUSH2 0x10D JUMPI PUSH4 0xE985E9C5 EQ PUSH2 0xDA JUMPI PUSH1 0x0 DUP1 REVERT JUMPDEST CALLVALUE PUSH2 0x108 JUMPI PUSH1 0x40 PUSH1 0x3 NOT CALLDATASIZE ADD SLT PUSH2 0x108 JUMPI PUSH2 0xF3 PUSH2 0xEE4 JUMP JUMPDEST POP PUSH2 0xFC PUSH2 0xEFA JUMP JUMPDEST POP PUSH1 0x20 PUSH1 0x40 MLOAD PUSH1 0x0 DUP2 MSTORE RETURN JUMPDEST PUSH1 0x0 DUP1 REVERT JUMPDEST CALLVALUE PUSH2 0x108 JUMPI PUSH1 0xA0 PUSH1 0x3 NOT CALLDATASIZE ADD SLT PUSH2 0x108 JUMPI PUSH2 0x126 PUSH2 0xEE4 JUMP JUMPDEST PUSH1 0x24 CALLDATALOAD PUSH8 0xFFFFFFFFFFFFFFFF DUP2 GT PUSH2 0x108 JUMPI PUSH2 0x146 SWAP1 CALLDATASIZE SWAP1 PUSH1 0x4 ADD PUSH2 0xF44 JUMP JUMPDEST SWAP1 PUSH1 0x44 CALLDATALOAD PUSH8 0xFFFFFFFFFFFFFFFF DUP2 GT PUSH2 0x108 JUMPI PUSH2 0x167 SWAP1 CALLDATASIZE SWAP1 PUSH1 0x4 ADD PUSH2 0xF44 JUMP JUMPDEST PUSH1 0x64 CALLDATALOAD PUSH8 0xFFFFFFFFFFFFFFFF DUP2 GT PUSH2 0x108 JUMPI PUSH2 0x187 SWAP1 CALLDATASIZE SWAP1 PUSH1 0x4 ADD PUSH2 0xF44 JUMP JUMPDEST PUSH1 0x84 CALLDATALOAD PUSH8 0xFFFFFFFFFFFFFFFF DUP2 GT PUSH2 0x108 JUMPI PUSH2 0x1A7 SWAP1 CALLDATASIZE SWAP1 PUSH1 0x4 ADD PUSH2 0xF44 JUMP JUMPDEST SWAP1 PUSH1 0x1 PUSH1 0x1 PUSH1 0xA0 SHL SUB PUSH1 0x2 SLOAD AND CALLER SUB PUSH2 0x83B JUMPI PUSH1 0x1 PUSH1 0x1 PUSH1 0xA0 SHL SUB DUP5 AND ISZERO PUSH2 0x7F7 JUMPI PUSH1 0x1 PUSH1 0x1 PUSH1 0xA0 SHL SUB DUP5 AND PUSH1 0x0 MSTORE PUSH1 0x5 PUSH1 0x20 MSTORE PUSH1 0x40 PUSH1 0x0 KECCAK256 SLOAD PUSH2 0x7B3 JUMPI PUSH1 0x3 SLOAD SWAP3 PUSH1 0x0 NOT DUP5 EQ PUSH2 0x79D JUMPI PUSH1 0x1 DUP5 ADD PUSH1 0x3 SSTORE PUSH1 0x40 MLOAD SWAP6 DUP7 PUSH1 0xC0 DUP2 ADD LT PUSH8 0xFFFFFFFFFFFFFFFF PUSH1 0xC0 DUP10 ADD GT OR PUSH2 0x532 JUMPI PUSH1 0xC0 DUP8 ADD PUSH1 0x40 MSTORE DUP7 MSTORE PUSH1 0x20 DUP7 ADD MSTORE PUSH1 0x40 DUP6 ADD MSTORE PUSH1 0x60 DUP5 ADD MSTORE PUSH1 0x1 PUSH1 0x1 PUSH1 0xA0 SHL SUB DUP3 AND PUSH1 0x80 DUP5 ADD MSTORE PUSH1 0x1 PUSH1 0xA0 DUP5 ADD MSTORE DUP1 PUSH1 0x0 MSTORE PUSH1 0x4 PUSH1 0x20 MSTORE PUSH1 0x40 PUSH1 0x0 KECCAK256 SWAP3 DUP1 MLOAD DUP1 MLOAD SWAP1 PUSH8 0xFFFFFFFFFFFFFFFF DUP3 GT PUSH2 0x532 JUMPI DUP2 SWAP1 PUSH2 0x273 DUP8 SLOAD PUSH2 0xDA1 JUMP JUMPDEST PUSH1 0x1F DUP2 GT PUSH2 0x74D JUMPI JUMPDEST POP PUSH1 0x20 SWAP1 PUSH1 0x1F DUP4 GT PUSH1 0x1 EQ PUSH2 0x6E9 JUMPI PUSH1 0x0 SWAP3 PUSH2 0x6DE JUMPI JUMPDEST POP POP PUSH1 0x0 NOT DUP3 PUSH1 0x1 SHL SWAP3 PUSH1 0x3 SHL SHR NOT AND OR DUP5 SSTORE JUMPDEST PUSH1 0x20 DUP2 ADD MLOAD DUP1 MLOAD SWAP1 PUSH8 0xFFFFFFFFFFFFFFFF DUP3 GT PUSH2 0x532 JUMPI DUP2 SWAP1 PUSH2 0x2CD PUSH1 0x1 DUP9 ADD SLOAD PUSH2 0xDA1 JUMP JUMPDEST PUSH1 0x1F DUP2 GT PUSH2 0x68B JUMPI JUMPDEST POP PUSH1 0x20 SWAP1 PUSH1 0x1F DUP4 GT PUSH1 0x1 EQ PUSH2 0x61E JUMPI PUSH1 0x0 SWAP3 PUSH2 0x613 JUMPI JUMPDEST POP POP PUSH1 0x0 NOT DUP3 PUSH1 0x1 SHL SWAP3 PUSH1 0x3 SHL SHR NOT AND OR PUSH1 0x1 DUP6 ADD SSTORE JUMPDEST PUSH1 0x40 DUP2 ADD MLOAD DUP1 MLOAD SWAP1 PUSH8 0xFFFFFFFFFFFFFFFF DUP3 GT PUSH2 0x532 JUMPI DUP2 SWAP1 PUSH2 0x32A PUSH1 0x2 DUP9 ADD SLOAD PUSH2 0xDA1 JUMP JUMPDEST PUSH1 0x1F DUP2 GT PUSH2 0x5C0 JUMPI JUMPDEST POP PUSH1 0x20 SWAP1 PUSH1 0x1F DUP4 GT PUSH1 0x1 EQ PUSH2 0x553 JUMPI PUSH1 0x0 SWAP3 PUSH2 0x548 JUMPI JUMPDEST POP POP PUSH1 0x0 NOT DUP3 PUSH1 0x1 SHL SWAP3 PUSH1 0x3 SHL SHR NOT AND OR PUSH1 0x2 DUP6 ADD SSTORE JUMPDEST PUSH1 0x60 DUP2 ADD MLOAD SWAP4 DUP5 MLOAD PUSH8 0xFFFFFFFFFFFFFFFF DUP2 GT PUSH2 0x532 JUMPI PUSH2 0x385 PUSH1 0x3 DUP4 ADD SLOAD PUSH2 0xDA1 JUMP JUMPDEST SWAP6 PUSH1 0x1F DUP8 GT PUSH2 0x4EB JUMPI JUMPDEST PUSH1 0x20 SWAP7 POP DUP7 SWAP1 PUSH1 0x1F DUP4 GT PUSH1 0x1 EQ PUSH2 0x47A JUMPI PUSH1 0x4 SWAP4 SWAP3 SWAP2 PUSH1 0x0 SWAP2 DUP4 PUSH2 0x46F JUMPI JUMPDEST POP POP PUSH1 0x0 NOT DUP3 PUSH1 0x1 SHL SWAP3 PUSH1 0x3 SHL SHR NOT AND OR PUSH1 0x3 DUP3 ADD SSTORE JUMPDEST ADD SWAP1 PUSH1 0x1 PUSH1 0x1 PUSH1 0xA0 SHL SUB PUSH1 0x80 DUP3 ADD MLOAD AND PUSH32 0xFFFFFFFFFFFFFFFFFFFFFF000000000000000000000000000000000000000000 PUSH21 0xFF0000000000000000000000000000000000000000 PUSH1 0xA0 DUP6 SLOAD SWAP5 ADD MLOAD ISZERO ISZERO PUSH1 0xA0 SHL AND SWAP3 AND OR OR SWAP1 SSTORE PUSH1 0x1 PUSH1 0x1 PUSH1 0xA0 SHL SUB DUP3 AND PUSH1 0x0 MSTORE PUSH1 0x5 DUP4 MSTORE DUP1 PUSH1 0x40 PUSH1 0x0 KECCAK256 SSTORE DUP1 PUSH1 0x1 PUSH1 0x1 PUSH1 0xA0 SHL SUB PUSH1 0x40 MLOAD SWAP4 AND PUSH1 0x0 PUSH32 0xDDF252AD1BE2C89B69C2B068FC378DAA952BA7F163C4A11628F55A4DF523B3EF DUP2 DUP1 LOG4 DUP2 MSTORE RETURN JUMPDEST ADD MLOAD SWAP1 POP DUP9 DUP1 PUSH2 0x3AE JUMP JUMPDEST SWAP1 PUSH1 0x3 DUP5 ADD PUSH1 0x0 MSTORE DUP8 PUSH1 0x0 KECCAK256 SWAP2 PUSH1 0x0 JUMPDEST PUSH1 0x1F NOT DUP6 AND DUP2 LT PUSH2 0x4D4 JUMPI POP SWAP2 DUP4 SWAP2 PUSH1 0x1 SWAP4 DUP4 PUSH1 0x1F NOT PUSH1 0x4 SWAP9 SWAP8 AND LT PUSH2 0x4BB JUMPI JUMPDEST POP POP POP DUP2 SHL ADD PUSH1 0x3 DUP3 ADD SSTORE PUSH2 0x3C5 JUMP JUMPDEST ADD MLOAD PUSH1 0x0 NOT PUSH1 0xF8 DUP5 PUSH1 0x3 SHL AND SHR NOT AND SWAP1 SSTORE DUP9 DUP1 DUP1 PUSH2 0x4AB JUMP JUMPDEST SWAP2 SWAP3 DUP10 PUSH1 0x1 DUP2 SWAP3 DUP7 DUP6 ADD MLOAD DUP2 SSTORE ADD SWAP5 ADD SWAP3 ADD PUSH2 0x48A JUMP JUMPDEST PUSH1 0x3 DUP4 ADD PUSH1 0x0 MSTORE PUSH1 0x20 PUSH1 0x0 KECCAK256 PUSH1 0x1F DUP4 ADD PUSH1 0x5 SHR DUP2 ADD PUSH1 0x20 DUP5 LT PUSH2 0x52B JUMPI JUMPDEST PUSH1 0x1F DUP10 ADD PUSH1 0x5 SHR DUP3 ADD DUP2 LT PUSH2 0x51F JUMPI POP POP PUSH2 0x38F JUMP JUMPDEST PUSH1 0x0 DUP2 SSTORE PUSH1 0x1 ADD PUSH2 0x509 JUMP JUMPDEST POP DUP1 PUSH2 0x509 JUMP JUMPDEST PUSH4 0x4E487B71 PUSH1 0xE0 SHL PUSH1 0x0 MSTORE PUSH1 0x41 PUSH1 0x4 MSTORE PUSH1 0x24 PUSH1 0x0 REVERT JUMPDEST ADD MLOAD SWAP1 POP DUP7 DUP1 PUSH2 0x34A JUMP JUMPDEST SWAP2 PUSH1 0x1F NOT AND SWAP2 PUSH1 0x2 DUP9 ADD PUSH1 0x0 MSTORE PUSH1 0x20 PUSH1 0x0 KECCAK256 SWAP3 PUSH1 0x0 JUMPDEST DUP2 DUP2 LT PUSH2 0x5A8 JUMPI POP SWAP1 DUP5 PUSH1 0x1 SWAP6 SWAP5 SWAP4 SWAP3 LT PUSH2 0x58F JUMPI JUMPDEST POP POP POP DUP2 SHL ADD PUSH1 0x2 DUP6 ADD SSTORE PUSH2 0x361 JUMP JUMPDEST ADD MLOAD PUSH1 0x0 NOT PUSH1 0xF8 DUP5 PUSH1 0x3 SHL AND SHR NOT AND SWAP1 SSTORE DUP7 DUP1 DUP1 PUSH2 0x57F JUMP JUMPDEST SWAP3 SWAP4 PUSH1 0x20 PUSH1 0x1 DUP2 SWAP3 DUP8 DUP7 ADD MLOAD DUP2 SSTORE ADD SWAP6 ADD SWAP4 ADD PUSH2 0x569 JUMP JUMPDEST SWAP1 SWAP2 POP PUSH1 0x2 DUP8 ADD PUSH1 0x0 MSTORE PUSH1 0x20 PUSH1 0x0 KECCAK256 PUSH1 0x1F DUP5 ADD PUSH1 0x5 SHR DUP2 ADD PUSH1 0x20 DUP6 LT PUSH2 0x60C JUMPI JUMPDEST SWAP1 DUP5 SWAP4 SWAP3 SWAP2 JUMPDEST PUSH1 0x1F DUP4 ADD PUSH1 0x5 SHR DUP3 ADD DUP2 LT PUSH2 0x5FD JUMPI POP POP PUSH2 0x333 JUMP JUMPDEST PUSH1 0x0 DUP2 SSTORE DUP6 SWAP5 POP PUSH1 0x1 ADD PUSH2 0x5E7 JUMP JUMPDEST POP DUP1 PUSH2 0x5E1 JUMP JUMPDEST ADD MLOAD SWAP1 POP DUP7 DUP1 PUSH2 0x2ED JUMP JUMPDEST SWAP2 PUSH1 0x1F NOT AND SWAP2 PUSH1 0x1 DUP9 ADD PUSH1 0x0 MSTORE PUSH1 0x20 PUSH1 0x0 KECCAK256 SWAP3 PUSH1 0x0 JUMPDEST DUP2 DUP2 LT PUSH2 0x673 JUMPI POP SWAP1 DUP5 PUSH1 0x1 SWAP6 SWAP5 SWAP4 SWAP3 LT PUSH2 0x65A JUMPI JUMPDEST POP POP POP DUP2 SHL ADD PUSH1 0x1 DUP6 ADD SSTORE PUSH2 0x304 JUMP JUMPDEST ADD MLOAD PUSH1 0x0 NOT PUSH1 0xF8 DUP5 PUSH1 0x3 SHL AND SHR NOT AND SWAP1 SSTORE DUP7 DUP1 DUP1 PUSH2 0x64A JUMP JUMPDEST SWAP3 SWAP4 PUSH1 0x20 PUSH1 0x1 DUP2 SWAP3 DUP8 DUP7 ADD MLOAD DUP2 SSTORE ADD SWAP6 ADD SWAP4 ADD PUSH2 0x634 JUMP JUMPDEST SWAP1 SWAP2 POP PUSH1 0x1 DUP8 ADD PUSH1 0x0 MSTORE PUSH1 0x20 PUSH1 0x0 KECCAK256 PUSH1 0x1F DUP5 ADD PUSH1 0x5 SHR DUP2 ADD PUSH1 0x20 DUP6 LT PUSH2 0x6D7 JUMPI JUMPDEST SWAP1 DUP5 SWAP4 SWAP3 SWAP2 JUMPDEST PUSH1 0x1F DUP4 ADD PUSH1 0x5 SHR DUP3 ADD DUP2 LT PUSH2 0x6C8 JUMPI POP POP PUSH2 0x2D6 JUMP JUMPDEST PUSH1 0x0 DUP2 SSTORE DUP6 SWAP5 POP PUSH1 0x1 ADD PUSH2 0x6B2 JUMP JUMPDEST POP DUP1 PUSH2 0x6AC JUMP JUMPDEST ADD MLOAD SWAP1 POP DUP7 DUP1 PUSH2 0x293 JUMP JUMPDEST PUSH1 0x0 DUP9 DUP2 MSTORE PUSH1 0x20 DUP2 KECCAK256 SWAP4 PUSH1 0x1F NOT AND SWAP1 JUMPDEST DUP2 DUP2 LT PUSH2 0x735 JUMPI POP SWAP1 DUP5 PUSH1 0x1 SWAP6 SWAP5 SWAP4 SWAP3 LT PUSH2 0x71C JUMPI JUMPDEST POP POP POP DUP2 SHL ADD DUP5 SSTORE PUSH2 0x2A7 JUMP JUMPDEST ADD MLOAD PUSH1 0x0 NOT PUSH1 0xF8 DUP5 PUSH1 0x3 SHL AND SHR NOT AND SWAP1 SSTORE DUP7 DUP1 DUP1 PUSH2 0x70F JUMP JUMPDEST SWAP3 SWAP4 PUSH1 0x20 PUSH1 0x1 DUP2 SWAP3 DUP8 DUP7 ADD MLOAD DUP2 SSTORE ADD SWAP6 ADD SWAP4 ADD PUSH2 0x6F9 JUMP JUMPDEST SWAP1 SWAP2 POP DUP7 PUSH1 0x0 MSTORE PUSH1 0x20 PUSH1 0x0 KECCAK256 PUSH1 0x1F DUP5 ADD PUSH1 0x5 SHR DUP2 ADD PUSH1 0x20 DUP6 LT PUSH2 0x796 JUMPI JUMPDEST SWAP1 DUP5 SWAP4 SWAP3 SWAP2 JUMPDEST PUSH1 0x1F DUP4 ADD PUSH1 0x5 SHR DUP3 ADD DUP2 LT PUSH2 0x787 JUMPI POP POP PUSH2 0x27C JUMP JUMPDEST PUSH1 0x0 DUP2 SSTORE DUP6 SWAP5 POP PUSH1 0x1 ADD PUSH2 0x771 JUMP JUMPDEST POP DUP1 PUSH2 0x76B JUMP JUMPDEST PUSH4 0x4E487B71 PUSH1 0xE0 SHL PUSH1 0x0 MSTORE PUSH1 0x11 PUSH1 0x4 MSTORE PUSH1 0x24 PUSH1 0x0 REVERT JUMPDEST PUSH1 0x64 PUSH1 0x40 MLOAD PUSH3 0x461BCD PUSH1 0xE5 SHL DUP2 MSTORE PUSH1 0x20 PUSH1 0x4 DUP3 ADD MSTORE PUSH1 0x6 PUSH1 0x24 DUP3 ADD MSTORE PUSH32 0x6578697374730000000000000000000000000000000000000000000000000000 PUSH1 0x44 DUP3 ADD MSTORE REVERT JUMPDEST PUSH1 0x64 PUSH1 0x40 MLOAD PUSH3 0x461BCD PUSH1 0xE5 SHL DUP2 MSTORE PUSH1 0x20 PUSH1 0x4 DUP3 ADD MSTORE PUSH1 0xA PUSH1 0x24 DUP3 ADD MSTORE PUSH32 0x6261642077616C6C657400000000000000000000000000000000000000000000 PUSH1 0x44 DUP3 ADD MSTORE REVERT JUMPDEST PUSH1 0x64 PUSH1 0x40 MLOAD PUSH3 0x461BCD PUSH1 0xE5 SHL DUP2 MSTORE PUSH1 0x20 PUSH1 0x4 DUP3 ADD MSTORE PUSH1 0x8 PUSH1 0x24 DUP3 ADD MSTORE PUSH32 0x6F6E6C7920676F76000000000000000000000000000000000000000000000000 PUSH1 0x44 DUP3 ADD MSTORE REVERT JUMPDEST CALLVALUE PUSH2 0x108 JUMPI PUSH1 0x80 PUSH1 0x3 NOT CALLDATASIZE ADD SLT PUSH2 0x108 JUMPI PUSH2 0x898 PUSH2 0xEE4 JUMP JUMPDEST POP PUSH2 0x8A1 PUSH2 0xEFA JUMP JUMPDEST POP PUSH1 0x64 CALLDATALOAD PUSH8 0xFFFFFFFFFFFFFFFF DUP1 DUP3 GT PUSH2 0x108 JUMPI CALLDATASIZE PUSH1 0x23 DUP4 ADD SLT ISZERO PUSH2 0x108 JUMPI DUP2 PUSH1 0x4 ADD CALLDATALOAD SWAP1 DUP2 GT PUSH2 0x108 JUMPI CALLDATASIZE SWAP2 ADD PUSH1 0x24 ADD GT ISZERO PUSH2 0xF9B JUMPI PUSH1 0x0 DUP1 REVERT JUMPDEST CALLVALUE PUSH2 0x108 JUMPI PUSH1 0x40 PUSH1 0x3 NOT CALLDATASIZE ADD SLT PUSH2 0x108 JUMPI PUSH2 0x8F6 PUSH2 0xEE4 JUMP JUMPDEST POP PUSH1 0x24 CALLDATALOAD DUP1 ISZERO ISZERO EQ PUSH2 0xF9B JUMPI PUSH1 0x0 DUP1 REVERT JUMPDEST CALLVALUE PUSH2 0x108 JUMPI PUSH1 0x20 PUSH1 0x3 NOT CALLDATASIZE ADD SLT PUSH2 0x108 JUMPI PUSH1 0x1 PUSH1 0x1 PUSH1 0xA0 SHL SUB PUSH2 0x928 PUSH2 0xEE4 JUMP JUMPDEST AND PUSH1 0x0 MSTORE PUSH1 0x5 PUSH1 0x20 MSTORE PUSH1 0x20 PUSH1 0x40 PUSH1 0x0 KECCAK256 SLOAD PUSH1 0x40 MLOAD SWAP1 DUP2 MSTORE RETURN JUMPDEST CALLVALUE PUSH2 0x108 JUMPI PUSH1 0x20 PUSH1 0x3 NOT CALLDATASIZE ADD SLT PUSH2 0x108 JUMPI PUSH1 0x4 CALLDATALOAD PUSH1 0x0 MSTORE PUSH1 0x4 PUSH1 0x20 MSTORE PUSH2 0x9B9 PUSH1 0x40 PUSH1 0x0 KECCAK256 PUSH2 0x96E DUP2 PUSH2 0xDFE JUMP JUMPDEST SWAP1 PUSH1 0xFF PUSH2 0x9E3 PUSH2 0x980 PUSH1 0x1 DUP5 ADD PUSH2 0xDFE JUMP JUMPDEST SWAP3 PUSH2 0x9D5 PUSH2 0x990 PUSH1 0x2 DUP4 ADD PUSH2 0xDFE JUMP JUMPDEST PUSH2 0x9C7 PUSH1 0x4 PUSH2 0x9A1 PUSH1 0x3 DUP7 ADD PUSH2 0xDFE JUMP JUMPDEST SWAP5 ADD SLOAD SWAP7 PUSH1 0x40 MLOAD SWAP10 DUP11 SWAP10 PUSH1 0xC0 DUP12 MSTORE PUSH1 0xC0 DUP12 ADD SWAP1 PUSH2 0xEA4 JUMP JUMPDEST SWAP1 DUP10 DUP3 SUB PUSH1 0x20 DUP12 ADD MSTORE PUSH2 0xEA4 JUMP JUMPDEST SWAP1 DUP8 DUP3 SUB PUSH1 0x40 DUP10 ADD MSTORE PUSH2 0xEA4 JUMP JUMPDEST SWAP1 DUP6 DUP3 SUB PUSH1 0x60 DUP8 ADD MSTORE PUSH2 0xEA4 JUMP JUMPDEST SWAP2 PUSH1 0x1 PUSH1 0x1 PUSH1 0xA0 SHL SUB DUP2 AND PUSH1 0x80 DUP6 ADD MSTORE PUSH1 0xA0 SHR AND ISZERO ISZERO PUSH1 0xA0 DUP4 ADD MSTORE SUB SWAP1 RETURN JUMPDEST CALLVALUE PUSH2 0x108 JUMPI PUSH1 0x0 PUSH1 0x3 NOT CALLDATASIZE ADD SLT PUSH2 0x108 JUMPI PUSH1 0x40 MLOAD PUSH1 0x0 PUSH1 0x1 DUP3 PUSH1 0x1 SLOAD SWAP3 PUSH2 0xA28 DUP5 PUSH2 0xDA1 JUMP JUMPDEST SWAP3 DUP4 DUP4 MSTORE PUSH1 0x20 SWAP5 DUP6 PUSH1 0x1 DUP3 AND SWAP2 DUP3 PUSH1 0x0 EQ PUSH2 0xAC9 JUMPI POP POP PUSH1 0x1 EQ PUSH2 0xA6C JUMPI JUMPDEST POP PUSH2 0xA54 SWAP3 POP SUB DUP4 PUSH2 0xDDB JUMP JUMPDEST PUSH2 0xA68 PUSH1 0x40 MLOAD SWAP3 DUP3 DUP5 SWAP4 DUP5 MSTORE DUP4 ADD SWAP1 PUSH2 0xEA4 JUMP JUMPDEST SUB SWAP1 RETURN JUMPDEST DUP5 SWAP2 POP PUSH1 0x1 PUSH1 0x0 MSTORE PUSH32 0xB10E2D527612073B26EECDFD717E6A320CF44B4AFAC2B0732D9FCBE2B7FA0CF6 SWAP1 PUSH1 0x0 SWAP2 JUMPDEST DUP6 DUP4 LT PUSH2 0xAB1 JUMPI POP POP PUSH2 0xA54 SWAP4 POP DUP3 ADD ADD DUP6 PUSH2 0xA47 JUMP JUMPDEST DUP1 SLOAD DUP4 DUP10 ADD DUP6 ADD MSTORE DUP8 SWAP5 POP DUP7 SWAP4 SWAP1 SWAP3 ADD SWAP2 DUP2 ADD PUSH2 0xA9A JUMP JUMPDEST PUSH1 0xFF NOT AND DUP6 DUP3 ADD MSTORE PUSH2 0xA54 SWAP6 ISZERO ISZERO PUSH1 0x5 SHL DUP6 ADD ADD SWAP3 POP DUP8 SWAP2 POP PUSH2 0xA47 SWAP1 POP JUMP JUMPDEST CALLVALUE PUSH2 0x108 JUMPI PUSH1 0x20 PUSH1 0x3 NOT CALLDATASIZE ADD SLT PUSH2 0x108 JUMPI PUSH1 0x1 PUSH1 0x1 PUSH1 0xA0 SHL SUB PUSH2 0xB0A PUSH2 0xEE4 JUMP JUMPDEST AND PUSH1 0x0 MSTORE PUSH1 0x5 PUSH1 0x20 MSTORE PUSH1 0x40 PUSH1 0x0 KECCAK256 SLOAD ISZERO PUSH1 0x0 EQ PUSH2 0xB31 JUMPI PUSH1 0x20 PUSH1 0x0 JUMPDEST PUSH1 0xFF PUSH1 0x40 MLOAD SWAP2 AND DUP2 MSTORE RETURN JUMPDEST PUSH1 0x20 PUSH1 0x1 PUSH2 0xB26 JUMP JUMPDEST CALLVALUE PUSH2 0x108 JUMPI PUSH1 0x20 PUSH1 0x3 NOT CALLDATASIZE ADD SLT PUSH2 0x108 JUMPI PUSH1 0x4 CALLDATALOAD DUP1 PUSH1 0x0 MSTORE PUSH1 0x4 PUSH1 0x20 MSTORE PUSH1 0xFF PUSH1 0x4 PUSH1 0x40 PUSH1 0x0 KECCAK256 ADD SLOAD PUSH1 0xA0 SHR AND ISZERO PUSH2 0xB8F JUMPI PUSH1 0x0 MSTORE PUSH1 0x4 PUSH1 0x20 MSTORE PUSH1 0x20 PUSH1 0x1 PUSH1 0x1 PUSH1 0xA0 SHL SUB PUSH1 0x4 PUSH1 0x40 PUSH1 0x0 KECCAK256 ADD SLOAD AND PUSH1 0x40 MLOAD SWAP1 DUP2 MSTORE RETURN JUMPDEST PUSH1 0x64 PUSH1 0x40 MLOAD PUSH3 0x461BCD PUSH1 0xE5 SHL DUP2 MSTORE PUSH1 0x20 PUSH1 0x4 DUP3 ADD MSTORE PUSH1 0x8 PUSH1 0x24 DUP3 ADD MSTORE PUSH32 0x6E6F20746F6B656E000000000000000000000000000000000000000000000000 PUSH1 0x44 DUP3 ADD MSTORE REVERT JUMPDEST CALLVALUE PUSH2 0x108 JUMPI PUSH1 0x0 PUSH1 0x3 NOT CALLDATASIZE ADD SLT PUSH2 0x108 JUMPI PUSH1 0x20 PUSH1 0x3 SLOAD PUSH1 0x40 MLOAD SWAP1 DUP2 MSTORE RETURN JUMPDEST CALLVALUE PUSH2 0x108 JUMPI PUSH1 0x0 PUSH1 0x3 NOT CALLDATASIZE ADD SLT PUSH2 0x108 JUMPI PUSH1 0x20 PUSH1 0x1 PUSH1 0x1 PUSH1 0xA0 SHL SUB PUSH1 0x2 SLOAD AND PUSH1 0x40 MLOAD SWAP1 DUP2 MSTORE RETURN JUMPDEST PUSH2 0xF10 JUMP JUMPDEST CALLVALUE PUSH2 0x108 JUMPI PUSH1 0x40 PUSH1 0x3 NOT CALLDATASIZE ADD SLT PUSH2 0x108 JUMPI PUSH2 0xC36 PUSH2 0xEE4 JUMP JUMPDEST POP PUSH2 0xF9B JUMP JUMPDEST CALLVALUE PUSH2 0x108 JUMPI PUSH1 0x20 PUSH1 0x3 NOT CALLDATASIZE ADD SLT PUSH2 0x108 JUMPI PUSH1 0x20 PUSH1 0x40 MLOAD PUSH1 0x0 DUP2 MSTORE RETURN JUMPDEST CALLVALUE PUSH2 0x108 JUMPI PUSH1 0x0 PUSH1 0x3 NOT CALLDATASIZE ADD SLT PUSH2 0x108 JUMPI PUSH1 0x40 MLOAD PUSH1 0x0 DUP1 SLOAD SWAP1 DUP3 PUSH2 0xC7B DUP4 PUSH2 0xDA1 JUMP JUMPDEST SWAP2 DUP3 DUP3 MSTORE PUSH1 0x20 SWAP4 PUSH1 0x1 SWAP1 DUP6 PUSH1 0x1 DUP3 AND SWAP2 DUP3 PUSH1 0x0 EQ PUSH2 0xAC9 JUMPI POP POP PUSH1 0x1 EQ PUSH2 0xCA9 JUMPI POP PUSH2 0xA54 SWAP3 POP SUB DUP4 PUSH2 0xDDB JUMP JUMPDEST PUSH1 0x0 DUP1 DUP1 MSTORE DUP6 SWAP3 POP SWAP1 PUSH32 0x290DECD9548B62A8D60345A988386FC84BA6BC95484008F6362F93160EF3E563 JUMPDEST DUP6 DUP4 LT PUSH2 0xCEB JUMPI POP POP PUSH2 0xA54 SWAP4 POP DUP3 ADD ADD DUP6 PUSH2 0xA47 JUMP JUMPDEST DUP1 SLOAD DUP4 DUP10 ADD DUP6 ADD MSTORE DUP8 SWAP5 POP DUP7 SWAP4 SWAP1 SWAP3 ADD SWAP2 DUP2 ADD PUSH2 0xCD4 JUMP JUMPDEST CALLVALUE PUSH2 0x108 JUMPI PUSH1 0x20 PUSH1 0x3 NOT CALLDATASIZE ADD SLT PUSH2 0x108 JUMPI PUSH1 0x4 CALLDATALOAD SWAP1 PUSH32 0xFFFFFFFF00000000000000000000000000000000000000000000000000000000 DUP3 AND DUP1 SWAP3 SUB PUSH2 0x108 JUMPI DUP2 PUSH32 0x1FFC9A700000000000000000000000000000000000000000000000000000000 PUSH1 0x20 SWAP4 EQ SWAP1 DUP2 ISZERO PUSH2 0xD77 JUMPI JUMPDEST POP ISZERO ISZERO DUP2 MSTORE RETURN JUMPDEST PUSH32 0xF26F581600000000000000000000000000000000000000000000000000000000 SWAP2 POP EQ DUP4 PUSH2 0xD70 JUMP JUMPDEST SWAP1 PUSH1 0x1 DUP3 DUP2 SHR SWAP3 AND DUP1 ISZERO PUSH2 0xDD1 JUMPI JUMPDEST PUSH1 0x20 DUP4 LT EQ PUSH2 0xDBB JUMPI JUMP JUMPDEST PUSH4 0x4E487B71 PUSH1 0xE0 SHL PUSH1 0x0 MSTORE PUSH1 0x22 PUSH1 0x4 MSTORE PUSH1 0x24 PUSH1 0x0 REVERT JUMPDEST SWAP2 PUSH1 0x7F AND SWAP2 PUSH2 0xDB0 JUMP JUMPDEST SWAP1 PUSH1 0x1F PUSH1 0x1F NOT SWAP2 ADD AND DUP2 ADD SWAP1 DUP2 LT PUSH8 0xFFFFFFFFFFFFFFFF DUP3 GT OR PUSH2 0x532 JUMPI PUSH1 0x40 MSTORE JUMP JUMPDEST SWAP1 PUSH1 0x40 MLOAD SWAP2 DUP3 PUSH1 0x0 DUP3 SLOAD PUSH2 0xE11 DUP2 PUSH2 0xDA1 JUMP JUMPDEST SWAP1 DUP2 DUP5 MSTORE PUSH1 0x20 SWAP5 PUSH1 0x1 SWAP2 PUSH1 0x1 DUP2 AND SWAP1 DUP2 PUSH1 0x0 EQ PUSH2 0xE81 JUMPI POP PUSH1 0x1 EQ PUSH2 0xE42 JUMPI JUMPDEST POP POP POP PUSH2 0xE40 SWAP3 POP SUB DUP4 PUSH2 0xDDB JUMP JUMPDEST JUMP JUMPDEST PUSH1 0x0 SWAP1 DUP2 MSTORE DUP6 DUP2 KECCAK256 SWAP6 SWAP4 POP SWAP2 SWAP1 JUMPDEST DUP2 DUP4 LT PUSH2 0xE69 JUMPI POP POP PUSH2 0xE40 SWAP4 POP DUP3 ADD ADD CODESIZE DUP1 DUP1 PUSH2 0xE31 JUMP JUMPDEST DUP6 SLOAD DUP9 DUP5 ADD DUP6 ADD MSTORE SWAP5 DUP6 ADD SWAP5 DUP8 SWAP5 POP SWAP2 DUP4 ADD SWAP2 PUSH2 0xE50 JUMP JUMPDEST SWAP2 POP POP PUSH2 0xE40 SWAP6 SWAP4 POP PUSH1 0xFF NOT SWAP2 POP AND DUP3 DUP5 ADD MSTORE ISZERO ISZERO PUSH1 0x5 SHL DUP3 ADD ADD CODESIZE DUP1 DUP1 PUSH2 0xE31 JUMP JUMPDEST SWAP2 SWAP1 DUP3 MLOAD SWAP3 DUP4 DUP3 MSTORE PUSH1 0x0 JUMPDEST DUP5 DUP2 LT PUSH2 0xED0 JUMPI POP POP PUSH1 0x1F NOT PUSH1 0x1F DUP5 PUSH1 0x0 PUSH1 0x20 DUP1 SWAP7 SWAP8 DUP7 ADD ADD MSTORE ADD AND ADD ADD SWAP1 JUMP JUMPDEST PUSH1 0x20 DUP2 DUP4 ADD DUP2 ADD MLOAD DUP5 DUP4 ADD DUP3 ADD MSTORE ADD PUSH2 0xEAF JUMP JUMPDEST PUSH1 0x4 CALLDATALOAD SWAP1 PUSH1 0x1 PUSH1 0x1 PUSH1 0xA0 SHL SUB DUP3 AND DUP3 SUB PUSH2 0x108 JUMPI JUMP JUMPDEST PUSH1 0x24 CALLDATALOAD SWAP1 PUSH1 0x1 PUSH1 0x1 PUSH1 0xA0 SHL SUB DUP3 AND DUP3 SUB PUSH2 0x108 JUMPI JUMP JUMPDEST CALLVALUE PUSH2 0x108 JUMPI PUSH1 0x60 PUSH1 0x3 NOT CALLDATASIZE ADD SLT PUSH2 0x108 JUMPI PUSH1 0x1 PUSH1 0x1 PUSH1 0xA0 SHL SUB PUSH1 0x4 CALLDATALOAD DUP2 DUP2 AND SUB PUSH2 0x108 JUMPI PUSH1 0x24 CALLDATALOAD SWAP1 DUP2 AND EQ PUSH2 0xF9B JUMPI PUSH1 0x0 DUP1 REVERT JUMPDEST DUP2 PUSH1 0x1F DUP3 ADD SLT ISZERO PUSH2 0x108 JUMPI DUP1 CALLDATALOAD SWAP1 PUSH8 0xFFFFFFFFFFFFFFFF DUP3 GT PUSH2 0x532 JUMPI PUSH1 0x40 MLOAD SWAP3 PUSH2 0xF79 PUSH1 0x20 PUSH1 0x1F NOT PUSH1 0x1F DUP7 ADD AND ADD DUP6 PUSH2 0xDDB JUMP JUMPDEST DUP3 DUP5 MSTORE PUSH1 0x20 DUP4 DUP4 ADD ADD GT PUSH2 0x108 JUMPI DUP2 PUSH1 0x0 SWAP3 PUSH1 0x20 DUP1 SWAP4 ADD DUP4 DUP7 ADD CALLDATACOPY DUP4 ADD ADD MSTORE SWAP1 JUMP JUMPDEST PUSH1 0x64 PUSH1 0x40 MLOAD PUSH3 0x461BCD PUSH1 0xE5 SHL DUP2 MSTORE PUSH1 0x20 PUSH1 0x4 DUP3 ADD MSTORE PUSH1 0x9 PUSH1 0x24 DUP3 ADD MSTORE PUSH32 0x736F756C626F756E640000000000000000000000000000000000000000000000 PUSH1 0x44 DUP3 ADD MSTORE REVERT INVALID LOG2 PUSH5 0x6970667358 0x22 SLT KECCAK256 PUSH0 PUSH12 0x44C1689E13DEA42D3017133E 0xA6 0x22 0xF BLOBHASH DUP10 DUP3 0x28 ORIGIN 0xB9 0x2D CALLDATACOPY CREATE DUP3 PUSH24 0xF361FFF764736F6C63430008180033000000000000000000 "},"methodIdentifiers":{"approve(address,uint256)":"095ea7b3","balanceOf(address)":"70a08231","getApproved(uint256)":"081812fc","governance()":"5aa6e675","isApprovedForAll(address,address)":"e985e9c5","mintOfficial(address,string,string,string,string)":"d2052f60","name()":"06fdde03","nextId()":"61b8ce8c","officials(uint256)":"97ad6afd","ownerOf(uint256)":"6352211e","safeTransferFrom(address,address,uint256)":"42842e0e","safeTransferFrom(address,address,uint256,bytes)":"b88d4fde","setApprovalForAll(address,bool)":"a22cb465","supportsInterface(bytes4)":"01ffc9a7","symbol()":"95d89b41","transferFrom(address,address,uint256)":"23b872dd","walletToTokenId(address)":"9c2806c7"}}}}}