{"abi":[{"type":"constructor","inputs":[{"name":"gmon","type":"address","internalType":"address"},{"name":"initialOwner","type":"address","internalType":"address"}],"stateMutability":"nonpayable"},{"type":"receive","stateMutability":"payable"},{"type":"function","name":"FEE_BPS","inputs":[],"outputs":[{"name":"","type":"uint256","internalType":"uint256"}],"stateMutability":"view"},{"type":"function","name":"FEE_DENOM","inputs":[],"outputs":[{"name":"","type":"uint256","internalType":"uint256"}],"stateMutability":"view"},{"type":"function","name":"GMON","inputs":[],"outputs":[{"name":"","type":"address","internalType":"contract IERC20"}],"stateMutability":"view"},{"type":"function","name":"getReserves","inputs":[],"outputs":[{"name":"ethReserve","type":"uint256","internalType":"uint256"},{"name":"gmonReserve","type":"uint256","internalType":"uint256"}],"stateMutability":"view"},{"type":"function","name":"owner","inputs":[],"outputs":[{"name":"","type":"address","internalType":"address"}],"stateMutability":"view"},{"type":"function","name":"renounceOwnership","inputs":[],"outputs":[],"stateMutability":"nonpayable"},{"type":"function","name":"reserveETH","inputs":[],"outputs":[{"name":"","type":"uint256","internalType":"uint256"}],"stateMutability":"view"},{"type":"function","name":"reserveGMON","inputs":[],"outputs":[{"name":"","type":"uint256","internalType":"uint256"}],"stateMutability":"view"},{"type":"function","name":"seedLiquidity","inputs":[{"name":"gmonAmount","type":"uint256","internalType":"uint256"}],"outputs":[],"stateMutability":"payable"},{"type":"function","name":"swapExactETHForGMON","inputs":[{"name":"minGMONOut","type":"uint256","internalType":"uint256"}],"outputs":[{"name":"gmonOut","type":"uint256","internalType":"uint256"}],"stateMutability":"payable"},{"type":"function","name":"swapExactGMONForETH","inputs":[{"name":"gmonIn","type":"uint256","internalType":"uint256"},{"name":"minETHOut","type":"uint256","internalType":"uint256"}],"outputs":[{"name":"ethOut","type":"uint256","internalType":"uint256"}],"stateMutability":"nonpayable"},{"type":"function","name":"transferOwnership","inputs":[{"name":"newOwner","type":"address","internalType":"address"}],"outputs":[],"stateMutability":"nonpayable"},{"type":"function","name":"withdraw","inputs":[{"name":"to","type":"address","internalType":"address payable"},{"name":"ethAmount","type":"uint256","internalType":"uint256"},{"name":"gmonAmount","type":"uint256","internalType":"uint256"}],"outputs":[],"stateMutability":"nonpayable"},{"type":"event","name":"OwnershipTransferred","inputs":[{"name":"previousOwner","type":"address","indexed":true,"internalType":"address"},{"name":"newOwner","type":"address","indexed":true,"internalType":"address"}],"anonymous":false},{"type":"event","name":"Seeded","inputs":[{"name":"ethAdded","type":"uint256","indexed":false,"internalType":"uint256"},{"name":"gmonAdded","type":"uint256","indexed":false,"internalType":"uint256"}],"anonymous":false},{"type":"event","name":"SwapETHForGMON","inputs":[{"name":"user","type":"address","indexed":true,"internalType":"address"},{"name":"ethIn","type":"uint256","indexed":false,"internalType":"uint256"},{"name":"gmonOut","type":"uint256","indexed":false,"internalType":"uint256"}],"anonymous":false},{"type":"event","name":"SwapGMONForETH","inputs":[{"name":"user","type":"address","indexed":true,"internalType":"address"},{"name":"gmonIn","type":"uint256","indexed":false,"internalType":"uint256"},{"name":"ethOut","type":"uint256","indexed":false,"internalType":"uint256"}],"anonymous":false},{"type":"event","name":"Withdrawn","inputs":[{"name":"to","type":"address","indexed":true,"internalType":"address"},{"name":"ethAmount","type":"uint256","indexed":false,"internalType":"uint256"},{"name":"gmonAmount","type":"uint256","indexed":false,"internalType":"uint256"}],"anonymous":false},{"type":"error","name":"OwnableInvalidOwner","inputs":[{"name":"owner","type":"address","internalType":"address"}]},{"type":"error","name":"OwnableUnauthorizedAccount","inputs":[{"name":"account","type":"address","internalType":"address"}]},{"type":"error","name":"ReentrancyGuardReentrantCall","inputs":[]},{"type":"error","name":"SafeERC20FailedOperation","inputs":[{"name":"token","type":"address","internalType":"address"}]}],"bytecode":{"object":"0x60a060405234801561001057600080fd5b50604051610f3e380380610f3e83398101604081905261002f9161014d565b806001600160a01b03811661005f57604051631e4fbdf760e01b8152600060048201526024015b60405180910390fd5b610068816100e1565b5060017f9b779b17422d0df92223018b32b4d1fa46e071723d6817e2486d003becc55f00556001600160a01b0382166100cf5760405162461bcd60e51b8152602060048201526009602482015268474d4f4e5f5a45524f60b81b6044820152606401610056565b506001600160a01b0316608052610180565b600080546001600160a01b038381166001600160a01b0319831681178455604051919092169283917f8be0079c531659141344cd1fd0a4f28419497f9722a3daafe3b4186f6b6457e09190a35050565b80516001600160a01b038116811461014857600080fd5b919050565b6000806040838503121561016057600080fd5b61016983610131565b915061017760208401610131565b90509250929050565b608051610d876101b7600039600081816101aa015281816103ec015281816104f40152818161070501526108d40152610d876000f3fe6080604052600436106100c65760003560e01c8063abf6c4891161007f578063c3c1fbcc11610059578063c3c1fbcc14610201578063c57fed1314610221578063ec71c6d414610234578063f2fde38b1461024757600080fd5b8063abf6c48914610198578063b5c5f672146101cc578063bf333f2c146101ec57600080fd5b80630902f1ac146100d2578063100af203146100ff5780631509c0bc146101235780634886c67514610139578063715018a61461014f5780638da5cb5b1461016657600080fd5b366100cd57005b600080fd5b3480156100de57600080fd5b50600154600254604080519283526020830191909152015b60405180910390f35b34801561010b57600080fd5b5061011560015481565b6040519081526020016100f6565b34801561012f57600080fd5b5061011560025481565b34801561014557600080fd5b5061011561271081565b34801561015b57600080fd5b50610164610267565b005b34801561017257600080fd5b506000546001600160a01b03165b6040516001600160a01b0390911681526020016100f6565b3480156101a457600080fd5b506101807f000000000000000000000000000000000000000000000000000000000000000081565b3480156101d857600080fd5b506101646101e7366004610c08565b61027b565b3480156101f857600080fd5b50610115601e81565b34801561020d57600080fd5b5061011561021c366004610c3d565b610473565b61016461022f366004610c5f565b6106a0565b610115610242366004610c5f565b6107b0565b34801561025357600080fd5b50610164610262366004610c78565b610953565b61026f61098e565b61027960006109bb565b565b61028361098e565b61028b610a0b565b8115610380576001548211156102d65760405162461bcd60e51b815260206004820152600b60248201526a4554485f4558434545445360a81b60448201526064015b60405180910390fd5b81600160008282546102e89190610cb2565b90915550506040516000906001600160a01b0385169084908381818185875af1925050503d8060008114610338576040519150601f19603f3d011682016040523d82523d6000602084013e61033d565b606091505b505090508061037e5760405162461bcd60e51b815260206004820152600d60248201526c11551217d4d1539117d1905253609a1b60448201526064016102cd565b505b8015610413576002548111156103c75760405162461bcd60e51b815260206004820152600c60248201526b474d4f4e5f4558434545445360a01b60448201526064016102cd565b80600260008282546103d99190610cb2565b9091555061041390506001600160a01b037f0000000000000000000000000000000000000000000000000000000000000000168483610a27565b60408051838152602081018390526001600160a01b038516917f92ccf450a286a957af52509bc1c9939d1a6a481783e142e41e2499f0bb66ebc6910160405180910390a261046e6001600080516020610d3283398151915255565b505050565b600061047d610a0b565b600083116104b75760405162461bcd60e51b81526020600482015260076024820152662d22a927afa4a760c91b60448201526064016102cd565b60006001541180156104cb57506000600254115b6104e75760405162461bcd60e51b81526004016102cd90610cc5565b61051c6001600160a01b037f000000000000000000000000000000000000000000000000000000000000000016333086610a5c565b600061271061052c601e82610cb2565b6105369086610ce5565b6105409190610cfc565b905061055181600254600154610a98565b91508282101561058e5760405162461bcd60e51b8152602060048201526008602482015267534c49505041474560c01b60448201526064016102cd565b83600260008282546105a09190610d1e565b9250508190555081600160008282546105b99190610cb2565b9091555050604051600090339084908381818185875af1925050503d8060008114610600576040519150601f19603f3d011682016040523d82523d6000602084013e610605565b606091505b50509050806106465760405162461bcd60e51b815260206004820152600d60248201526c11551217d4d1539117d1905253609a1b60448201526064016102cd565b604080518681526020810185905233917fdeb0d6d4cc1815ee878a59f7761c320e941f6b7e6340b5cdf7678b49400cc5d1910160405180910390a2505061069a6001600080516020610d3283398151915255565b92915050565b6106a861098e565b6106b0610a0b565b6000341180156106c05750600081115b6106f85760405162461bcd60e51b815260206004820152600960248201526816915493d7d4d1515160ba1b60448201526064016102cd565b61072d6001600160a01b037f000000000000000000000000000000000000000000000000000000000000000016333084610a5c565b346001600082825461073f9190610d1e565b9250508190555080600260008282546107589190610d1e565b909155505060408051348152602081018390527f67f9b61bf7b39fd24dd60467083f89ea77979db358db2804069474590a36c035910160405180910390a16107ad6001600080516020610d3283398151915255565b50565b60006107ba610a0b565b600034116107f45760405162461bcd60e51b81526020600482015260076024820152662d22a927afa4a760c91b60448201526064016102cd565b600060015411801561080857506000600254115b6108245760405162461bcd60e51b81526004016102cd90610cc5565b6000612710610834601e82610cb2565b61083e9034610ce5565b6108489190610cfc565b905061085981600154600254610a98565b9150828210156108965760405162461bcd60e51b8152602060048201526008602482015267534c49505041474560c01b60448201526064016102cd565b34600160008282546108a89190610d1e565b9250508190555081600260008282546108c19190610cb2565b909155506108fb90506001600160a01b037f0000000000000000000000000000000000000000000000000000000000000000163384610a27565b604080513481526020810184905233917ffe4ecc0c8bef56a7a34244aac0cdd25df3c817d7c2a56e8a0f8c8483a0be48ba910160405180910390a25061094e6001600080516020610d3283398151915255565b919050565b61095b61098e565b6001600160a01b03811661098557604051631e4fbdf760e01b8152600060048201526024016102cd565b6107ad816109bb565b6000546001600160a01b031633146102795760405163118cdaa760e01b81523360048201526024016102cd565b600080546001600160a01b038381166001600160a01b0319831681178455604051919092169283917f8be0079c531659141344cd1fd0a4f28419497f9722a3daafe3b4186f6b6457e09190a35050565b610a13610aeb565b6002600080516020610d3283398151915255565b610a348383836001610b1b565b61046e57604051635274afe760e01b81526001600160a01b03841660048201526024016102cd565b610a6a848484846001610b81565b610a9257604051635274afe760e01b81526001600160a01b03851660048201526024016102cd565b50505050565b60008083118015610aa95750600082115b610ac55760405162461bcd60e51b81526004016102cd90610cc5565b610acf8484610d1e565b610ad98386610ce5565b610ae39190610cfc565b949350505050565b600080516020610d328339815191525460020361027957604051633ee5aeb560e01b815260040160405180910390fd5b60405163a9059cbb60e01b60008181526001600160a01b038616600452602485905291602083604481808b5af192506001600051148316610b75578383151615610b68573d6000823e3d81fd5b6000873b113d1516831692505b60405250949350505050565b6040516323b872dd60e01b60008181526001600160a01b038781166004528616602452604485905291602083606481808c5af192506001600051148316610be1578383151615610bd4573d6000823e3d81fd5b6000883b113d1516831692505b60405250600060605295945050505050565b6001600160a01b03811681146107ad57600080fd5b600080600060608486031215610c1d57600080fd5b8335610c2881610bf3565b95602085013595506040909401359392505050565b60008060408385031215610c5057600080fd5b50508035926020909101359150565b600060208284031215610c7157600080fd5b5035919050565b600060208284031215610c8a57600080fd5b8135610c9581610bf3565b9392505050565b634e487b7160e01b600052601160045260246000fd5b8181038181111561069a5761069a610c9c565b6020808252600690820152654e4f5f4c495160d01b604082015260600190565b808202811582820484141761069a5761069a610c9c565b600082610d1957634e487b7160e01b600052601260045260246000fd5b500490565b8082018082111561069a5761069a610c9c56fe9b779b17422d0df92223018b32b4d1fa46e071723d6817e2486d003becc55f00a2646970667358221220220bbe9375f4c0915ac7c323ea794b58b2f9cba4f74ca972afad9d0e7accccca64736f6c63430008140033","linkReferences":{}},"methodIdentifiers":{"FEE_BPS()":"bf333f2c","FEE_DENOM()":"4886c675","GMON()":"abf6c489","getReserves()":"0902f1ac","owner()":"8da5cb5b","renounceOwnership()":"715018a6","reserveETH()":"100af203","reserveGMON()":"1509c0bc","seedLiquidity(uint256)":"c57fed13","swapExactETHForGMON(uint256)":"ec71c6d4","swapExactGMONForETH(uint256,uint256)":"c3c1fbcc","transferOwnership(address)":"f2fde38b","withdraw(address,uint256,uint256)":"b5c5f672"},"id":0}