{"abi":[{"type":"constructor","inputs":[{"name":"initialOwner","type":"address","internalType":"address"}],"stateMutability":"nonpayable"},{"type":"function","name":"allowance","inputs":[{"name":"owner","type":"address","internalType":"address"},{"name":"spender","type":"address","internalType":"address"}],"outputs":[{"name":"","type":"uint256","internalType":"uint256"}],"stateMutability":"view"},{"type":"function","name":"approve","inputs":[{"name":"spender","type":"address","internalType":"address"},{"name":"value","type":"uint256","internalType":"uint256"}],"outputs":[{"name":"","type":"bool","internalType":"bool"}],"stateMutability":"nonpayable"},{"type":"function","name":"balanceOf","inputs":[{"name":"account","type":"address","internalType":"address"}],"outputs":[{"name":"","type":"uint256","internalType":"uint256"}],"stateMutability":"view"},{"type":"function","name":"batchTransfer","inputs":[{"name":"recipients","type":"address[]","internalType":"address[]"},{"name":"amounts","type":"uint256[]","internalType":"uint256[]"}],"outputs":[],"stateMutability":"nonpayable"},{"type":"function","name":"burn","inputs":[{"name":"value","type":"uint256","internalType":"uint256"}],"outputs":[],"stateMutability":"nonpayable"},{"type":"function","name":"burnFrom","inputs":[{"name":"account","type":"address","internalType":"address"},{"name":"value","type":"uint256","internalType":"uint256"}],"outputs":[],"stateMutability":"nonpayable"},{"type":"function","name":"decimals","inputs":[],"outputs":[{"name":"","type":"uint8","internalType":"uint8"}],"stateMutability":"pure"},{"type":"function","name":"getTokenInfo","inputs":[],"outputs":[{"name":"tokenName","type":"string","internalType":"string"},{"name":"tokenSymbol","type":"string","internalType":"string"},{"name":"totalSupply","type":"uint256","internalType":"uint256"},{"name":"tokenDecimals","type":"uint8","internalType":"uint8"},{"name":"description","type":"string","internalType":"string"}],"stateMutability":"pure"},{"type":"function","name":"mint","inputs":[{"name":"to","type":"address","internalType":"address"},{"name":"amount","type":"uint256","internalType":"uint256"}],"outputs":[],"stateMutability":"nonpayable"},{"type":"function","name":"name","inputs":[],"outputs":[{"name":"","type":"string","internalType":"string"}],"stateMutability":"view"},{"type":"function","name":"owner","inputs":[],"outputs":[{"name":"","type":"address","internalType":"address"}],"stateMutability":"view"},{"type":"function","name":"renounceOwnership","inputs":[],"outputs":[],"stateMutability":"nonpayable"},{"type":"function","name":"symbol","inputs":[],"outputs":[{"name":"","type":"string","internalType":"string"}],"stateMutability":"view"},{"type":"function","name":"totalSupply","inputs":[],"outputs":[{"name":"","type":"uint256","internalType":"uint256"}],"stateMutability":"view"},{"type":"function","name":"transfer","inputs":[{"name":"to","type":"address","internalType":"address"},{"name":"value","type":"uint256","internalType":"uint256"}],"outputs":[{"name":"","type":"bool","internalType":"bool"}],"stateMutability":"nonpayable"},{"type":"function","name":"transferFrom","inputs":[{"name":"from","type":"address","internalType":"address"},{"name":"to","type":"address","internalType":"address"},{"name":"value","type":"uint256","internalType":"uint256"}],"outputs":[{"name":"","type":"bool","internalType":"bool"}],"stateMutability":"nonpayable"},{"type":"function","name":"transferOwnership","inputs":[{"name":"newOwner","type":"address","internalType":"address"}],"outputs":[],"stateMutability":"nonpayable"},{"type":"event","name":"Approval","inputs":[{"name":"owner","type":"address","indexed":true,"internalType":"address"},{"name":"spender","type":"address","indexed":true,"internalType":"address"},{"name":"value","type":"uint256","indexed":false,"internalType":"uint256"}],"anonymous":false},{"type":"event","name":"OwnershipTransferred","inputs":[{"name":"previousOwner","type":"address","indexed":true,"internalType":"address"},{"name":"newOwner","type":"address","indexed":true,"internalType":"address"}],"anonymous":false},{"type":"event","name":"Transfer","inputs":[{"name":"from","type":"address","indexed":true,"internalType":"address"},{"name":"to","type":"address","indexed":true,"internalType":"address"},{"name":"value","type":"uint256","indexed":false,"internalType":"uint256"}],"anonymous":false},{"type":"error","name":"ERC20InsufficientAllowance","inputs":[{"name":"spender","type":"address","internalType":"address"},{"name":"allowance","type":"uint256","internalType":"uint256"},{"name":"needed","type":"uint256","internalType":"uint256"}]},{"type":"error","name":"ERC20InsufficientBalance","inputs":[{"name":"sender","type":"address","internalType":"address"},{"name":"balance","type":"uint256","internalType":"uint256"},{"name":"needed","type":"uint256","internalType":"uint256"}]},{"type":"error","name":"ERC20InvalidApprover","inputs":[{"name":"approver","type":"address","internalType":"address"}]},{"type":"error","name":"ERC20InvalidReceiver","inputs":[{"name":"receiver","type":"address","internalType":"address"}]},{"type":"error","name":"ERC20InvalidSender","inputs":[{"name":"sender","type":"address","internalType":"address"}]},{"type":"error","name":"ERC20InvalidSpender","inputs":[{"name":"spender","type":"address","internalType":"address"}]},{"type":"error","name":"OwnableInvalidOwner","inputs":[{"name":"owner","type":"address","internalType":"address"}]},{"type":"error","name":"OwnableUnauthorizedAccount","inputs":[{"name":"account","type":"address","internalType":"address"}]}],"bytecode":{"object":"0x608060405234801561000f575f5ffd5b506040516121ed3803806121ed83398181016040528101906100319190610520565b806040518060400160405280600d81526020017f4352554e43485920544f4b454e000000000000000000000000000000000000008152506040518060400160405280600681526020017f4352554e4348000000000000000000000000000000000000000000000000000081525081600390816100ad9190610788565b5080600490816100bd9190610788565b5050505f73ffffffffffffffffffffffffffffffffffffffff168173ffffffffffffffffffffffffffffffffffffffff1603610130575f6040517f1e4fbdf70000000000000000000000000000000000000000000000000000000081526004016101279190610866565b60405180910390fd5b61013f8161016160201b60201c565b5061015b816a52b7d2dcc80cd2e400000061022460201b60201c565b5061093c565b5f60055f9054906101000a900473ffffffffffffffffffffffffffffffffffffffff1690508160055f6101000a81548173ffffffffffffffffffffffffffffffffffffffff021916908373ffffffffffffffffffffffffffffffffffffffff1602179055508173ffffffffffffffffffffffffffffffffffffffff168173ffffffffffffffffffffffffffffffffffffffff167f8be0079c531659141344cd1fd0a4f28419497f9722a3daafe3b4186f6b6457e060405160405180910390a35050565b5f73ffffffffffffffffffffffffffffffffffffffff168273ffffffffffffffffffffffffffffffffffffffff1603610294575f6040517fec442f0500000000000000000000000000000000000000000000000000000000815260040161028b9190610866565b60405180910390fd5b6102a55f83836102a960201b60201c565b5050565b5f73ffffffffffffffffffffffffffffffffffffffff168373ffffffffffffffffffffffffffffffffffffffff16036102f9578060025f8282546102ed91906108ac565b925050819055506103c7565b5f5f5f8573ffffffffffffffffffffffffffffffffffffffff1673ffffffffffffffffffffffffffffffffffffffff1681526020019081526020015f2054905081811015610382578381836040517fe450d38c000000000000000000000000000000000000000000000000000000008152600401610379939291906108ee565b60405180910390fd5b8181035f5f8673ffffffffffffffffffffffffffffffffffffffff1673ffffffffffffffffffffffffffffffffffffffff1681526020019081526020015f2081905550505b5f73ffffffffffffffffffffffffffffffffffffffff168273ffffffffffffffffffffffffffffffffffffffff160361040e578060025f8282540392505081905550610458565b805f5f8473ffffffffffffffffffffffffffffffffffffffff1673ffffffffffffffffffffffffffffffffffffffff1681526020019081526020015f205f82825401925050819055505b8173ffffffffffffffffffffffffffffffffffffffff168373ffffffffffffffffffffffffffffffffffffffff167fddf252ad1be2c89b69c2b068fc378daa952ba7f163c4a11628f55a4df523b3ef836040516104b59190610923565b60405180910390a3505050565b5f5ffd5b5f73ffffffffffffffffffffffffffffffffffffffff82169050919050565b5f6104ef826104c6565b9050919050565b6104ff816104e5565b8114610509575f5ffd5b50565b5f8151905061051a816104f6565b92915050565b5f60208284031215610535576105346104c2565b5b5f6105428482850161050c565b91505092915050565b5f81519050919050565b7f4e487b71000000000000000000000000000000000000000000000000000000005f52604160045260245ffd5b7f4e487b71000000000000000000000000000000000000000000000000000000005f52602260045260245ffd5b5f60028204905060018216806105c657607f821691505b6020821081036105d9576105d8610582565b5b50919050565b5f819050815f5260205f209050919050565b5f6020601f8301049050919050565b5f82821b905092915050565b5f6008830261063b7fffffffffffffffffffffffffffffffffffffffffffffffffffffffffffffffff82610600565b6106458683610600565b95508019841693508086168417925050509392505050565b5f819050919050565b5f819050919050565b5f61068961068461067f8461065d565b610666565b61065d565b9050919050565b5f819050919050565b6106a28361066f565b6106b66106ae82610690565b84845461060c565b825550505050565b5f5f905090565b6106cd6106be565b6106d8818484610699565b505050565b5b818110156106fb576106f05f826106c5565b6001810190506106de565b5050565b601f82111561074057610711816105df565b61071a846105f1565b81016020851015610729578190505b61073d610735856105f1565b8301826106dd565b50505b505050565b5f82821c905092915050565b5f6107605f1984600802610745565b1980831691505092915050565b5f6107788383610751565b9150826002028217905092915050565b6107918261054b565b67ffffffffffffffff8111156107aa576107a9610555565b5b6107b482546105af565b6107bf8282856106ff565b5f60209050601f8311600181146107f0575f84156107de578287015190505b6107e8858261076d565b86555061084f565b601f1984166107fe866105df565b5f5b8281101561082557848901518255600182019150602085019450602081019050610800565b86831015610842578489015161083e601f891682610751565b8355505b6001600288020188555050505b505050505050565b610860816104e5565b82525050565b5f6020820190506108795f830184610857565b92915050565b7f4e487b71000000000000000000000000000000000000000000000000000000005f52601160045260245ffd5b5f6108b68261065d565b91506108c18361065d565b92508282019050808211156108d9576108d861087f565b5b92915050565b6108e88161065d565b82525050565b5f6060820190506109015f830186610857565b61090e60208301856108df565b61091b60408301846108df565b949350505050565b5f6020820190506109365f8301846108df565b92915050565b6118a4806109495f395ff3fe608060405234801561000f575f5ffd5b5060043610610109575f3560e01c8063715018a6116100a057806395d89b411161006f57806395d89b411461028f578063a9059cbb146102ad578063abb1dc44146102dd578063dd62ed3e146102ff578063f2fde38b1461032f57610109565b8063715018a61461022f57806379cc67901461023957806388d695b2146102555780638da5cb5b1461027157610109565b8063313ce567116100dc578063313ce567146101a957806340c10f19146101c757806342966c68146101e357806370a08231146101ff57610109565b806306fdde031461010d578063095ea7b31461012b57806318160ddd1461015b57806323b872dd14610179575b5f5ffd5b61011561034b565b60405161012291906110d3565b60405180910390f35b61014560048036038101906101409190611191565b6103db565b60405161015291906111e9565b60405180910390f35b6101636103fd565b6040516101709190611211565b60405180910390f35b610193600480360381019061018e919061122a565b610406565b6040516101a091906111e9565b60405180910390f35b6101b1610434565b6040516101be9190611295565b60405180910390f35b6101e160048036038101906101dc9190611191565b61043c565b005b6101fd60048036038101906101f891906112ae565b610452565b005b610219600480360381019061021491906112d9565b610466565b6040516102269190611211565b60405180910390f35b6102376104ab565b005b610253600480360381019061024e9190611191565b6104be565b005b61026f600480360381019061026a9190611504565b6104de565b005b610279610609565b6040516102869190611589565b60405180910390f35b610297610631565b6040516102a491906110d3565b60405180910390f35b6102c760048036038101906102c29190611191565b6106c1565b6040516102d491906111e9565b60405180910390f35b6102e56106e3565b6040516102f69594939291906115a2565b60405180910390f35b61031960048036038101906103149190611608565b610792565b6040516103269190611211565b60405180910390f35b610349600480360381019061034491906112d9565b610814565b005b60606003805461035a90611673565b80601f016020809104026020016040519081016040528092919081815260200182805461038690611673565b80156103d15780601f106103a8576101008083540402835291602001916103d1565b820191905f5260205f20905b8154815290600101906020018083116103b457829003601f168201915b5050505050905090565b5f5f6103e5610898565b90506103f281858561089f565b600191505092915050565b5f600254905090565b5f5f610410610898565b905061041d8582856108b1565b610428858585610943565b60019150509392505050565b5f6012905090565b610444610a33565b61044e8282610aba565b5050565b61046361045d610898565b82610b39565b50565b5f5f5f8373ffffffffffffffffffffffffffffffffffffffff1673ffffffffffffffffffffffffffffffffffffffff1681526020019081526020015f20549050919050565b6104b3610a33565b6104bc5f610bb8565b565b6104d0826104ca610898565b836108b1565b6104da8282610b39565b5050565b8051825114610522576040517f08c379a0000000000000000000000000000000000000000000000000000000008152600401610519906116ed565b60405180910390fd5b5f5f90505b8251811015610604575f73ffffffffffffffffffffffffffffffffffffffff1683828151811061055a5761055961170b565b5b602002602001015173ffffffffffffffffffffffffffffffffffffffff16036105b8576040517f08c379a00000000000000000000000000000000000000000000000000000000081526004016105af90611782565b60405180910390fd5b6105f7338483815181106105cf576105ce61170b565b5b60200260200101518484815181106105ea576105e961170b565b5b6020026020010151610943565b8080600101915050610527565b505050565b5f60055f9054906101000a900473ffffffffffffffffffffffffffffffffffffffff16905090565b60606004805461064090611673565b80601f016020809104026020016040519081016040528092919081815260200182805461066c90611673565b80156106b75780601f1061068e576101008083540402835291602001916106b7565b820191905f5260205f20905b81548152906001019060200180831161069a57829003601f168201915b5050505050905090565b5f5f6106cb610898565b90506106d8818585610943565b600191505092915050565b6060805f5f60606a52b7d2dcc80cd2e400000060126040518060400160405280600d81526020017f4352554e43485920544f4b454e0000000000000000000000000000000000000081525091906040518060400160405280600681526020017f4352554e43480000000000000000000000000000000000000000000000000000815250919060405180606001604052806039815260200161183660399139945094509450945094509091929394565b5f60015f8473ffffffffffffffffffffffffffffffffffffffff1673ffffffffffffffffffffffffffffffffffffffff1681526020019081526020015f205f8373ffffffffffffffffffffffffffffffffffffffff1673ffffffffffffffffffffffffffffffffffffffff1681526020019081526020015f2054905092915050565b61081c610a33565b5f73ffffffffffffffffffffffffffffffffffffffff168173ffffffffffffffffffffffffffffffffffffffff160361088c575f6040517f1e4fbdf70000000000000000000000000000000000000000000000000000000081526004016108839190611589565b60405180910390fd5b61089581610bb8565b50565b5f33905090565b6108ac8383836001610c7b565b505050565b5f6108bc8484610792565b90507fffffffffffffffffffffffffffffffffffffffffffffffffffffffffffffffff811461093d578181101561092e578281836040517ffb8f41b2000000000000000000000000000000000000000000000000000000008152600401610925939291906117a0565b60405180910390fd5b61093c84848484035f610c7b565b5b50505050565b5f73ffffffffffffffffffffffffffffffffffffffff168373ffffffffffffffffffffffffffffffffffffffff16036109b3575f6040517f96c6fd1e0000000000000000000000000000000000000000000000000000000081526004016109aa9190611589565b60405180910390fd5b5f73ffffffffffffffffffffffffffffffffffffffff168273ffffffffffffffffffffffffffffffffffffffff1603610a23575f6040517fec442f05000000000000000000000000000000000000000000000000000000008152600401610a1a9190611589565b60405180910390fd5b610a2e838383610e4a565b505050565b610a3b610898565b73ffffffffffffffffffffffffffffffffffffffff16610a59610609565b73ffffffffffffffffffffffffffffffffffffffff1614610ab857610a7c610898565b6040517f118cdaa7000000000000000000000000000000000000000000000000000000008152600401610aaf9190611589565b60405180910390fd5b565b5f73ffffffffffffffffffffffffffffffffffffffff168273ffffffffffffffffffffffffffffffffffffffff1603610b2a575f6040517fec442f05000000000000000000000000000000000000000000000000000000008152600401610b219190611589565b60405180910390fd5b610b355f8383610e4a565b5050565b5f73ffffffffffffffffffffffffffffffffffffffff168273ffffffffffffffffffffffffffffffffffffffff1603610ba9575f6040517f96c6fd1e000000000000000000000000000000000000000000000000000000008152600401610ba09190611589565b60405180910390fd5b610bb4825f83610e4a565b5050565b5f60055f9054906101000a900473ffffffffffffffffffffffffffffffffffffffff1690508160055f6101000a81548173ffffffffffffffffffffffffffffffffffffffff021916908373ffffffffffffffffffffffffffffffffffffffff1602179055508173ffffffffffffffffffffffffffffffffffffffff168173ffffffffffffffffffffffffffffffffffffffff167f8be0079c531659141344cd1fd0a4f28419497f9722a3daafe3b4186f6b6457e060405160405180910390a35050565b5f73ffffffffffffffffffffffffffffffffffffffff168473ffffffffffffffffffffffffffffffffffffffff1603610ceb575f6040517fe602df05000000000000000000000000000000000000000000000000000000008152600401610ce29190611589565b60405180910390fd5b5f73ffffffffffffffffffffffffffffffffffffffff168373ffffffffffffffffffffffffffffffffffffffff1603610d5b575f6040517f94280d62000000000000000000000000000000000000000000000000000000008152600401610d529190611589565b60405180910390fd5b8160015f8673ffffffffffffffffffffffffffffffffffffffff1673ffffffffffffffffffffffffffffffffffffffff1681526020019081526020015f205f8573ffffffffffffffffffffffffffffffffffffffff1673ffffffffffffffffffffffffffffffffffffffff1681526020019081526020015f20819055508015610e44578273ffffffffffffffffffffffffffffffffffffffff168473ffffffffffffffffffffffffffffffffffffffff167f8c5be1e5ebec7d5bd14f71427d1e84f3dd0314c0f7b2291e5b200ac8c7c3b92584604051610e3b9190611211565b60405180910390a35b50505050565b5f73ffffffffffffffffffffffffffffffffffffffff168373ffffffffffffffffffffffffffffffffffffffff1603610e9a578060025f828254610e8e9190611802565b92505081905550610f68565b5f5f5f8573ffffffffffffffffffffffffffffffffffffffff1673ffffffffffffffffffffffffffffffffffffffff1681526020019081526020015f2054905081811015610f23578381836040517fe450d38c000000000000000000000000000000000000000000000000000000008152600401610f1a939291906117a0565b60405180910390fd5b8181035f5f8673ffffffffffffffffffffffffffffffffffffffff1673ffffffffffffffffffffffffffffffffffffffff1681526020019081526020015f2081905550505b5f73ffffffffffffffffffffffffffffffffffffffff168273ffffffffffffffffffffffffffffffffffffffff1603610faf578060025f8282540392505081905550610ff9565b805f5f8473ffffffffffffffffffffffffffffffffffffffff1673ffffffffffffffffffffffffffffffffffffffff1681526020019081526020015f205f82825401925050819055505b8173ffffffffffffffffffffffffffffffffffffffff168373ffffffffffffffffffffffffffffffffffffffff167fddf252ad1be2c89b69c2b068fc378daa952ba7f163c4a11628f55a4df523b3ef836040516110569190611211565b60405180910390a3505050565b5f81519050919050565b5f82825260208201905092915050565b8281835e5f83830152505050565b5f601f19601f8301169050919050565b5f6110a582611063565b6110af818561106d565b93506110bf81856020860161107d565b6110c88161108b565b840191505092915050565b5f6020820190508181035f8301526110eb818461109b565b905092915050565b5f604051905090565b5f5ffd5b5f5ffd5b5f73ffffffffffffffffffffffffffffffffffffffff82169050919050565b5f61112d82611104565b9050919050565b61113d81611123565b8114611147575f5ffd5b50565b5f8135905061115881611134565b92915050565b5f819050919050565b6111708161115e565b811461117a575f5ffd5b50565b5f8135905061118b81611167565b92915050565b5f5f604083850312156111a7576111a66110fc565b5b5f6111b48582860161114a565b92505060206111c58582860161117d565b9150509250929050565b5f8115159050919050565b6111e3816111cf565b82525050565b5f6020820190506111fc5f8301846111da565b92915050565b61120b8161115e565b82525050565b5f6020820190506112245f830184611202565b92915050565b5f5f5f60608486031215611241576112406110fc565b5b5f61124e8682870161114a565b935050602061125f8682870161114a565b92505060406112708682870161117d565b9150509250925092565b5f60ff82169050919050565b61128f8161127a565b82525050565b5f6020820190506112a85f830184611286565b92915050565b5f602082840312156112c3576112c26110fc565b5b5f6112d08482850161117d565b91505092915050565b5f602082840312156112ee576112ed6110fc565b5b5f6112fb8482850161114a565b91505092915050565b5f5ffd5b7f4e487b71000000000000000000000000000000000000000000000000000000005f52604160045260245ffd5b61133e8261108b565b810181811067ffffffffffffffff8211171561135d5761135c611308565b5b80604052505050565b5f61136f6110f3565b905061137b8282611335565b919050565b5f67ffffffffffffffff82111561139a57611399611308565b5b602082029050602081019050919050565b5f5ffd5b5f6113c16113bc84611380565b611366565b905080838252602082019050602084028301858111156113e4576113e36113ab565b5b835b8181101561140d57806113f9888261114a565b8452602084019350506020810190506113e6565b5050509392505050565b5f82601f83011261142b5761142a611304565b5b813561143b8482602086016113af565b91505092915050565b5f67ffffffffffffffff82111561145e5761145d611308565b5b602082029050602081019050919050565b5f61148161147c84611444565b611366565b905080838252602082019050602084028301858111156114a4576114a36113ab565b5b835b818110156114cd57806114b9888261117d565b8452602084019350506020810190506114a6565b5050509392505050565b5f82601f8301126114eb576114ea611304565b5b81356114fb84826020860161146f565b91505092915050565b5f5f6040838503121561151a576115196110fc565b5b5f83013567ffffffffffffffff81111561153757611536611100565b5b61154385828601611417565b925050602083013567ffffffffffffffff81111561156457611563611100565b5b611570858286016114d7565b9150509250929050565b61158381611123565b82525050565b5f60208201905061159c5f83018461157a565b92915050565b5f60a0820190508181035f8301526115ba818861109b565b905081810360208301526115ce818761109b565b90506115dd6040830186611202565b6115ea6060830185611286565b81810360808301526115fc818461109b565b90509695505050505050565b5f5f6040838503121561161e5761161d6110fc565b5b5f61162b8582860161114a565b925050602061163c8582860161114a565b9150509250929050565b7f4e487b71000000000000000000000000000000000000000000000000000000005f52602260045260245ffd5b5f600282049050600182168061168a57607f821691505b60208210810361169d5761169c611646565b5b50919050565b7f417272617973206c656e677468206d69736d61746368000000000000000000005f82015250565b5f6116d760168361106d565b91506116e2826116a3565b602082019050919050565b5f6020820190508181035f830152611704816116cb565b9050919050565b7f4e487b71000000000000000000000000000000000000000000000000000000005f52603260045260245ffd5b7f496e76616c696420726563697069656e742061646472657373000000000000005f82015250565b5f61176c60198361106d565b915061177782611738565b602082019050919050565b5f6020820190508181035f83015261179981611760565b9050919050565b5f6060820190506117b35f83018661157a565b6117c06020830185611202565b6117cd6040830184611202565b949350505050565b7f4e487b71000000000000000000000000000000000000000000000000000000005f52601160045260245ffd5b5f61180c8261115e565b91506118178361115e565b925082820190508082111561182f5761182e6117d5565b5b9291505056fe4120736e61636b7320746f6b656e206372656174656420657370656369616c6c7920666f7220417468656e61204861636b657220486f757365a2646970667358221220711a176f70e935af4ebee2dde13cb3146a408d5e51ace2cd6a3a6a2383ed203864736f6c634300081e0033","linkReferences":{}},"methodIdentifiers":{"allowance(address,address)":"dd62ed3e","approve(address,uint256)":"095ea7b3","balanceOf(address)":"70a08231","batchTransfer(address[],uint256[])":"88d695b2","burn(uint256)":"42966c68","burnFrom(address,uint256)":"79cc6790","decimals()":"313ce567","getTokenInfo()":"abb1dc44","mint(address,uint256)":"40c10f19","name()":"06fdde03","owner()":"8da5cb5b","renounceOwnership()":"715018a6","symbol()":"95d89b41","totalSupply()":"18160ddd","transfer(address,uint256)":"a9059cbb","transferFrom(address,address,uint256)":"23b872dd","transferOwnership(address)":"f2fde38b"},"id":30}