{
  "_format": "hh-sol-artifact-1",
  "contractName": "MonadReliefV2",
  "sourceName": "contracts/MonadReliefV2.sol",
  "abi": [
    {
      "inputs": [
        {
          "internalType": "address",
          "name": "_gov",
          "type": "address"
        },
        {
          "internalType": "address",
          "name": "_registry",
          "type": "address"
        }
      ],
      "stateMutability": "nonpayable",
      "type": "constructor"
    },
    {
      "anonymous": false,
      "inputs": [
        {
          "indexed": true,
          "internalType": "bytes32",
          "name": "beneficiaryId",
          "type": "bytes32"
        },
        {
          "indexed": true,
          "internalType": "address",
          "name": "wallet",
          "type": "address"
        },
        {
          "indexed": false,
          "internalType": "uint256",
          "name": "amount",
          "type": "uint256"
        }
      ],
      "name": "Disbursement",
      "type": "event"
    },
    {
      "anonymous": false,
      "inputs": [
        {
          "indexed": true,
          "internalType": "address",
          "name": "donor",
          "type": "address"
        },
        {
          "indexed": false,
          "internalType": "uint256",
          "name": "amount",
          "type": "uint256"
        },
        {
          "indexed": true,
          "internalType": "bytes32",
          "name": "beneficiaryId",
          "type": "bytes32"
        }
      ],
      "name": "Donation",
      "type": "event"
    },
    {
      "inputs": [
        {
          "internalType": "bytes32",
          "name": "beneficiaryId",
          "type": "bytes32"
        }
      ],
      "name": "donate",
      "outputs": [],
      "stateMutability": "payable",
      "type": "function"
    },
    {
      "inputs": [
        {
          "internalType": "address",
          "name": "",
          "type": "address"
        }
      ],
      "name": "donorHasDonated",
      "outputs": [
        {
          "internalType": "bool",
          "name": "",
          "type": "bool"
        }
      ],
      "stateMutability": "view",
      "type": "function"
    },
    {
      "inputs": [],
      "name": "governance",
      "outputs": [
        {
          "internalType": "address",
          "name": "",
          "type": "address"
        }
      ],
      "stateMutability": "view",
      "type": "function"
    },
    {
      "inputs": [],
      "name": "registry",
      "outputs": [
        {
          "internalType": "contract IBeneficiaryRegistry",
          "name": "",
          "type": "address"
        }
      ],
      "stateMutability": "view",
      "type": "function"
    },
    {
      "inputs": [],
      "name": "totalDisbursed",
      "outputs": [
        {
          "internalType": "uint256",
          "name": "",
          "type": "uint256"
        }
      ],
      "stateMutability": "view",
      "type": "function"
    },
    {
      "inputs": [],
      "name": "totalDonationCount",
      "outputs": [
        {
          "internalType": "uint256",
          "name": "",
          "type": "uint256"
        }
      ],
      "stateMutability": "view",
      "type": "function"
    },
    {
      "inputs": [],
      "name": "totalDonations",
      "outputs": [
        {
          "internalType": "uint256",
          "name": "",
          "type": "uint256"
        }
      ],
      "stateMutability": "view",
      "type": "function"
    },
    {
      "inputs": [],
      "name": "uniqueDonorCount",
      "outputs": [
        {
          "internalType": "uint256",
          "name": "",
          "type": "uint256"
        }
      ],
      "stateMutability": "view",
      "type": "function"
    }
  ],
  "bytecode": "0x60803461008d57601f6106a338819003918201601f19168301916001600160401b0383118484101761009257808492604094855283398101031261008d57610052602061004b836100a8565b92016100a8565b600180546001600160a01b039384166001600160a01b031991821617909155600080549290931691161790556040516105e690816100bd8239f35b600080fd5b634e487b7160e01b600052604160045260246000fd5b51906001600160a01b038216820361008d5756fe608060408181526004918236101561001657600080fd5b600092833560e01c9182630b024f8714610539575081635aa6e67514610504578163603090bc146104e55781637b103999146104b257816387aa86c914610463578163bf95c78d14610444578163c37067fa1461009e575063de2ed8931461007d57600080fd5b3461009a578160031936011261009a576020906002549051908152f35b5080fd5b9190506020806003193601126104405782359134156103ff5773ffffffffffffffffffffffffffffffffffffffff9384865416948251957f48aefc32000000000000000000000000000000000000000000000000000000008752858388015260249685818981855afa9081156103f55789916103bb575b501561037a57908487928551988980927f095214580000000000000000000000000000000000000000000000000000000082528a888301525afa968715610370578897610334575b5086169586156102f3576101733460025461058d565b6002558254600181018091116102e15783553388526006855287848120805460ff81161561029e575b50508080809334905af13d15610299573d67ffffffffffffffff8111610287578451906101d287601f19601f8401160183610554565b815288863d92013e5b15610247575050907f8489523a0949d54d08ae65a8576d31d3b14c72c328a833f30dbb9d02505a77c0916102113460035461058d565b6003558381513481527f4653725aaef32330a11da5e47adc56343bba69a948d45aa8e3dbdd2c0b9bd6bb843392a351348152a380f35b606493600f9293519362461bcd60e51b85528401528201527f7472616e73666572206661696c656400000000000000000000000000000000006044820152fd5b8289604186634e487b7160e01b835252fd5b6101db565b60019192507fffffffffffffffffffffffffffffffffffffffffffffffffffffffffffffff0016179055600554600181018091116102e15760055587808061019c565b8289601186634e487b7160e01b835252fd5b5060649360099293519362461bcd60e51b85528401528201527f6e6f2077616c6c657400000000000000000000000000000000000000000000006044820152fd5b9096508481813d8311610369575b61034c8183610554565b810103126103655751868116810361036557953861015d565b8780fd5b503d610342565b84513d8a823e3d90fd5b606483600c898888519362461bcd60e51b85528401528201527f6e6f7420617070726f76656400000000000000000000000000000000000000006044820152fd5b90508581813d83116103ee575b6103d28183610554565b810103126103ea575180151581036103ea5738610115565b8880fd5b503d6103c8565b85513d8b823e3d90fd5b5162461bcd60e51b81529283015250600860248201527f6e6f2076616c75650000000000000000000000000000000000000000000000006044820152606490fd5b8380fd5b50503461009a578160031936011261009a576020906003549051908152f35b9050346104ae5760206003193601126104ae573573ffffffffffffffffffffffffffffffffffffffff81168091036104ae57818360ff92602095526006855220541690519015158152f35b8280fd5b50503461009a578160031936011261009a5773ffffffffffffffffffffffffffffffffffffffff60209254169051908152f35b50503461009a578160031936011261009a576020906005549051908152f35b50503461009a578160031936011261009a5760209073ffffffffffffffffffffffffffffffffffffffff600154169051908152f35b8491346104ae57826003193601126104ae5760209250548152f35b90601f601f19910116810190811067ffffffffffffffff82111761057757604052565b634e487b7160e01b600052604160045260246000fd5b9190820180921161059a57565b634e487b7160e01b600052601160045260246000fdfea2646970667358221220bc37eb4bf2179ec13a6a00dedc3a686740a36816e98124b7ef41fb662bca06e264736f6c63430008180033",
  "linkReferences": {},
  "deployedLinkReferences": {}
}